{
  "_format": "hh-sol-artifact-1",
  "contractName": "SockPatternLibrary",
  "sourceName": "contracts/SockPatternLibrary.sol",
  "abi": [
    {
      "inputs": [
        {
          "internalType": "uint256",
          "name": "currentPattern",
          "type": "uint256"
        }
      ],
      "name": "GetPattern",
      "outputs": [
        {
          "internalType": "string",
          "name": "",
          "type": "string"
        }
      ],
      "stateMutability": "pure",
      "type": "function"
    }
  ],
  "bytecode": "0x6080806040523461001a57614ee29081610020823930815050f35b600080fdfe608060408181526004918236101561001657600080fd5b600090813560e01c630722ef891461002d57600080fd5b602093846003193601126143f5578035806101e5575083517f3c67207472616e73666f726d3d227472616e736c617465283539302c20323534868201526214911f60e91b8186015264078e0c2e8d60db1b60438201527f20202020643d224d38382e383432362032302e323639334c35392e303739352060488201527f342e393431314c32312e303038362034302e393832394c33332e39313739203460688201527f372e363331324c332e31353133362038302e393432354c36382e30303431203460888201527f362e363336344c35342e373336332033392e383033334c38382e38343236203260a88201527f302e323639335a222066696c6c3d222346464630363622207374726f6b653d2260c88201527f626c61636b22207374726f6b652d77696474683d2238222f3e3c2f673e00000060e882015260e5815291506101208201906001600160401b038211838310176101d2575083529290925b82519382859384528251928382860152825b8481106101bc57505050828201840152601f01601f19168101030190f35b818101830151888201880152879550820161019e565b634e487b7160e01b845260419052602483fd5b6001810361072657505050815161071d61040b82610204878201614e77565b7f20202020203c7061746820643d224d32392e373038312039332e35333933433481527f302e323039362039382e363538382035322e373637362039352e323633332036888201527f332e303830362038392e313736324337332e353236312038332e303130392038878201527f322e393134342037332e333938332038372e353530382036332e38383737433960608201527f362e393839332034342e353236372038382e393435362032312e31383031203660808201527f392e353834362031312e373431364335302e3232333620322e3330333039203260a08201527f362e3837372031302e333436392031372e343338352032392e3730373943313260c08201527f2e383032312033392e323138352031312e303132322035322e3533353320313260e08201527f2e353839332036342e353631364331342e313436342037362e343335342031396101008201527f2e323036372038382e343139392032392e373038312039332e353339335a22206101208201527f66696c6c3d222342344538343722207374726f6b653d22626c61636b222073746101408201526f3937b5b296bbb4b23a341e911c11179f60811b6101608201527f20202020203c656c6c697073652063783d2233372e37383033222063793d22346101708201527f332e36383732222072783d2231322e35222072793d22392e3522207472616e736101908201527f666f726d3d22726f746174652837342e323532352033372e373830332034332e6101b0820152741b1c1b991491103334b6361e91313630b1b591179f60591b6101d08201527f20202020203c656c6c697073652072783d2231322e35222072793d22392e35226101e58201527f207472616e73666f726d3d226d6174726978282d302e39323533383220302e336102058201527f373930333620302e33373930333620302e3932353338322036342e3734363520610225820152771a9b171c19991c1491103334b6361e91313630b1b591179f60411b6102458201527f20202020203c636972636c652063783d2233382e31313238222063793d22333961025d8201527f2e373836352220723d223222207472616e73666f726d3d22726f74617465283261027d8201527f352e393839332033382e313132382033392e3738363529222066696c6c3d222361029d82015268221ca21ca21c91179f60b91b6102bd8201527f20202020203c636972636c652063783d2236332e32383037222063793d2235326102c68201527f2e3035362220723d223222207472616e73666f726d3d22726f746174652832356102e68201527f2e393839332036332e323830372035322e30353629222066696c6c3d2223443961030682015266221ca21c91179f60c91b6103268201527f20202020203c636972636c652063783d2234312e31383535222063793d22363561032d8201527f2e313835312220723d22312e373439303622207472616e73666f726d3d22726f61034d8201527f746174652831372e303534382034312e313835352036352e313835312922206661036d8201526c34b6361e91313630b1b591179f60991b61038d82018190527f20202020203c636972636c652063783d2234362e37353938222063793d22363661039a8301527f2e383935312220723d22312e373439303622207472616e73666f726d3d22726f6103ba8301527f746174652831372e303534382034362e373539382036362e38393531292220666103da8301526103fa820152631e17b39f60e11b610407820152036103eb8101845201826143f9565b905b929061018c565b60028103610c49575050508151610c436103f382610745878201614e77565b6501e3830ba34160d51b81527f202020643d224d32392e373038312039332e353339334334302e32303936203960068201527f382e363538382035322e373637362039352e323633332036332e30383036203860268201527f392e313736324337332e353236312038332e303130392038322e39313434203760468201527f332e333938332038372e353530382036332e383837374339362e39383933203460668201527f342e353236372038382e393435362032312e313830312036392e35383436203160868201527f312e373431364335302e3232333620322e33303330392032362e38373720313060a68201527f2e333436392031372e343338352032392e373037394331322e3830323120333960c68201527f2e323138352031312e303132322035322e353335332031322e3538393320363460e68201527f2e353631364331342e313436342037362e343335342031392e323036372038386101068201527f2e343139392032392e373038312039332e353339335a2220202066696c6c3d226101268201527f2342344538343722207374726f6b653d22626c61636b22207374726f6b652d776101468201526734b23a341e911c1160c11b61016682015261179f60f11b61016e8201527f3c656c6c697073652063783d2233372e37383033222063793d2234332e3638376101708201527f32222072783d2231322e35222072793d22392e3522207472616e73666f726d3d6101908201527f22726f746174652837342e323532352033372e373830332034332e36383732296101b08201527011103334b6361e91313630b1b59110179f60791b6101d08201527f3c656c6c697073652072783d2231322e35222072793d22392e3522207472616e6101e18201527f73666f726d3d226d6174726978282d302e39323533383220302e3337393033366102018201527f20302e33373930333620302e3932353338322036342e373436352035362e383361022182015273191c1491103334b6361e91313630b1b59110179f60611b6102418201527f3c636972636c652063783d2233382e31313238222063793d2233392e373836356102558201527f2220723d223222207472616e73666f726d3d22726f746174652832352e3938396102758201527f332033382e313132382033392e3738363529222066696c6c3d22234439443944610295820152641c9110179f60d91b6102b58201527f3c636972636c652063783d2236332e32383037222063793d2235322e303536226102ba8201527f20723d223222207472616e73666f726d3d22726f746174652832352e393839336102da8201527f2036332e323830372035322e30353629222066696c6c3d2223443944394439226102fa8201526210179f60e91b61031a8201527f3c636972636c652063783d2234312e31383535222063793d2236352e3138353161031d8201527f2220723d22312e373439303622207472616e73666f726d3d22726f746174652861033d82018190527f31372e303534382034312e313835352036352e3138353129222066696c6c3d2261035d83015268313630b1b59110179f60b91b61037d83018190527f3c636972636c652063783d2234362e37353938222063793d2236362e383935316103868401526103a68301919091527f31372e303534382034362e373539382036362e3839353129222066696c6c3d226103c68301526103e6820152631e17b39f60e11b6103ef820152036103d38101845201826143f9565b9061071f565b60038103610fbb575083517f3c67207472616e73666f726d3d227472616e736c617465283536302c20323630868201526214911f60e91b818601527f2020203c7061746820643d224d3130362e3732382033332e393132334c31303560438201527f2e3138312033372e373238324c3130392e30342033392e31363435433131382e60638201527f3932332034322e38343238203132342e3938372035332e34303435203132322e60838201527f3738362036342e32393235433132302e3335312037362e33343137203130382e60a38201527f37362038342e303738332039362e393738392038312e363937314c32322e343160c38201527f39372036362e363237314331302e363338352036342e3234353820322e39363260e38201527f322035322e3631343820352e33393736332034302e3536353643372e383333306101038201527f352032382e353136332031392e3432342032302e373739372033312e323035326101238201527f2032332e313630394c33312e323038312032332e313631354c33352e303639206101438201527f32332e393431394c33352e393038362032302e303933344333382e31383938206101638201527f392e36333639322034382e3331373520322e39363938392035382e35393939206101838201527f352e30343832324336332e3230383820352e39373937372036372e30393036206101a38201527f382e35303434332036392e383130382031312e393630334c37322e35333438206101c38201527f31352e343230394c37352e373138312031322e333737354338302e31343735206101e38201527f382e31343238322038362e3433303620362e30393539382039322e37383636206102038201527f372e3338303637433130332e31363920392e3437393136203130392e393433206102238201527f31392e37333235203130372e3739342033302e33363437433130372e353434206102438201527f33312e363034203130372e3138342033322e37383838203130362e37323820336102638201527f332e393132335a222066696c6c3d22776869746522207374726f6b653d22626c6102838201527730b1b5911039ba3937b5b296bbb4b23a341e911c1110179f60411b6102a3820152631e17b39f60e11b6102bb82015261029f815291506102c08201906001600160401b038211838310176101d2575083529061071f565b80820361120f575083517f3c67207472616e73666f726d3d227472616e736c617465283536302c20323430868201526214911f60e91b818601527f20203c7061746820643d224d39362e353839372035302e39373537433130302e60438201527f3836342033372e3735332039332e383037372032332e393830392038302e393660638201527f38352031392e383330384337302e363031312031362e343739362035392e353260838201527f31332032302e373839392035332e333936342032392e343733334335332e353160a38201527f30312031382e383438322034362e3936393620392e313135352033362e36303260c38201527f3120352e37363432394332332e3736303420312e36313333312031302e30383460e38201527f3120382e333536323420352e38303833322032312e3538333943332e363530386101038201527f362032382e3235383420342e37383530332033332e3833333220372e343332336101238201527f342034302e323632344c33332e3038342039322e333836334c38342e333437356101438201527f2036352e313234364339302e323630392036312e343632362039342e343333396101638201527f2035372e363435312039362e353839372035302e393735375a222066696c6c3d6101838201527f222346423441344122207374726f6b653d22626c61636b22207374726f6b652d6101a38201526b3bb4b23a341e911c1110179f60a11b6101c3820152631e17b39f60e11b6101cf8201526101b3815291506101e08201906001600160401b038211838310176101d2575083529061071f565b60058103611a10575083517f3c67207472616e73666f726d3d227472616e736c617465283536302c20323330868201526214911f60e91b818601527f3c7061746820643d224d36322e32323437203130332e3532384336312e34383660438201527f33203130322e3530372036302e38333336203130312e3336372036302e32353760638201527f39203130302e3135314335392e36393231203130312e3336332035392e30343460838201527f34203130322e3530322035382e33303234203130332e3532374c35382e33303260a38201527f33203130332e3532384335302e38373536203131332e37392033362e3535363460c38201527f203131362e3037322032362e33323439203130382e3630394331362e3130323960e38201527f203130312e3135322031332e3834342038362e383030322032312e32363336206101038201527f37362e3534374332312e393837362037352e353436352032322e3836343220376101238201527f342e363137382032332e383433362037332e373537354332322e3439393420376101438201527f332e353432332032312e323231382037332e323436382032302e3034303520376101638201527f322e3836313443382e30313234372036382e3933373620312e343531363820356101838201527f352e3938303920352e33353030382034332e393334344c352e333530303920346101a38201527f332e3933343443392e32353037362033312e383831342032322e3135383420326101c38201527f352e323633332033342e313933352032392e313839344333352e3338373320326101e38201527f392e353738392033362e353933332033302e313338352033372e3738393420336102038201527f302e383231314333372e353038352032392e353131332033372e3334373220326102238201527f382e323134352033372e333437322032362e393631334333372e3334373220316102438201527f342e323935322034372e3537383220332e39393939332036302e3233323720336102638201527f2e39393939334337322e3838373320332e39393939332038332e3131383320316102838201527f342e323935322038332e313138332032362e393631334338332e3131383320326102a38201527f382e323037342038322e393538372032392e343936362038322e3638303820336102c38201527f302e373938384338332e383633382033302e313330352038352e3036323820326102e38201527f392e353739372038362e323539312032392e313839344c38372e3439393720336103038201527f322e393932324c38362e323539322032392e313839344339382e3239343520326103238201527f352e32363333203131312e3230322033312e38383134203131352e31303320346103438201527f332e393334344c3131312e3239372034352e3136364c3131352e3130332034336103638201527f2e39333434433131392e3030312035352e39383039203131322e34342036382e6103838201527f39333736203130302e3431322037322e383631344339392e323438382037332e6103a38201527f3234312039372e393933382037332e353033362039362e363836392037332e366103c38201527f3732394339372e3635382037342e353736372039382e353331322037352e35336103e38201527f35372039392e3236332037362e35343731433130362e3638332038362e3830306104038201527f32203130342e343234203130312e3135322039342e32303139203130382e36306104238201527f394338332e39373033203131362e3037322036392e36353131203131332e37396104438201527f312036322e32323437203130332e3532385a4d36322e32323437203130332e356104638201527f32384c36352e34363532203130312e3138334c36322e32323437203130332e356104838201527f32385a4d36312e353737322036332e3436364336312e333439392036332e35396104a38201527f32342036312e313236372036332e373331332036302e393039322036332e38386104c38201527f33384c36302e373430342036332e373830374336302e323431362036332e34376104e38201527f36312035392e373034372036332e323539392035392e313639382036332e31306105038201527f35374335392e343234322036322e333435352035392e353432352036312e35376105238201527f36382035392e353734342036302e383431364335392e373834372036302e38366105438201527f392036302e303034362036302e383834392036302e323332372036302e3838346105638201527f394336302e353832372036302e383834392036302e393133342036302e3834376105838201527f362036312e323139332036302e373838344336312e323137312036312e3639386105a38201527f342036312e333234362036322e353938382036312e353737322036332e3436366105c3820152612d1160f11b6105e38201527f2066696c6c3d22776869746522207374726f6b653d22626c61636b22207374726105e58201527f6f6b652d77696474683d223822202f3e3c636972636c652063783d2235392e376106058201527f323636222063793d2236322e352220723d2232332e35222066696c6c3d2223466106258201527f444544354522207374726f6b653d22626c61636b22207374726f6b652d776964610645820152683a341e911c1110179f60b91b610665820152631e17b39f60e11b61066e820152610652815291506106808201906001600160401b038211838310176101d2575083529061071f565b60068103611c2b575050508151610c4361019282611a2f878201614e77565b7f2020203c7061746820643d224d34362e3232363620372e39343735354c35382e81527f323837362032382e363535314c35392e313734382033302e313738334c36302e888201527f383937352033302e353531334c38342e333138372033352e363233314c36382e878201527f333531372035332e343932394c36372e313737322035342e383037334c36372e60608201527f333534382035362e3536314c36392e373638382038302e343033314c34372e3860808201527f3339362037302e373339364c34362e323236362037302e303238384c34342e3660a08201527f3133362037302e373339364c32322e363834332038302e343033314c32352e3060c08201527f3938332035362e3536314c32352e323735392035342e383037334c32342e313060e08201527f31342035332e343932394c382e31333434322033352e363233314c33312e35356101008201527f35362033302e353531334c33332e323738332033302e313738334c33342e31366101208201527f35352032382e363535314c34362e3232363620372e39343735355a222066696c6101408201527f6c3d222346444544354522207374726f6b653d22626c61636b22207374726f6b6101608201526d3296bbb4b23a341e911c1110179f60911b610180820152631e17b39f60e11b61018e820152036101728101845201826143f9565b600781036127ac575050508151610c4361093982611c4a878201614430565b7f20202020203c7061746820643d224d3130382e3232322036372e31383137433181527f31342e3732362034352e39383032203130322e3832372032332e353235312038888201527f312e3634352031372e3032374338302e343831362031362e363730312036332e878201527f3937332031312e363632342036322e383034382031312e343135314334322e3760608201527f30343220372e31353938342032322e333230332031382e393036342031362e3160808201527f3733342033382e393433354331312e393631362035322e363732372031352e3460a08201527f3636372036362e393237362032342e323132342037372e303334384c31382e3460c08201527f3831382038382e313530374332302e3737352039302e353535392032342e343560e08201527f38372039332e363635342032392e313334332039362e353432384333332e33386101008201527f38312039392e313630372033382e34363238203130312e3538362034342e30356101208201527f3832203130332e3131344335302e323035203130342e3739332035362e3938306101408201527f31203130352e3338392036332e39383534203130332e3936374c36332e3931316101608201527f342039352e313330384338332e323338372039382e303439203130322e3331316101808201527f2038362e34343737203130382e3232322036372e313831375a222066696c6c3d6101a08201526a1111a3222323212191179f60a91b6101c08201527f20202020203c7061746820643d224d35382e303931352039332e3830343643366101cb8201527f302e303235332039342e333937382036312e393639362039342e3833373620366101eb8201527f332e393131342039352e313330384d36332e393131342039352e31333038433861020b8201527f332e323338372039382e303439203130322e3331312038362e3434373720313061022b8201527f382e3232322036372e31383137433131342e3732362034352e3938303220313061024b8201527f322e3832372032332e353235312038312e3634352031372e3032374338302e3461026b8201527f3831362031362e363730312036332e3937332031312e363632342036322e383061028b8201527f34382031312e343135314334322e3730343220372e31353938342032322e33326102ab8201527f30332031382e393036342031362e313733342033382e393433354331312e39366102cb8201527f31362035322e363732372031352e343636372036362e393237362032342e32316102eb8201527f32342037372e303334384c31382e343831382038382e313530374332302e373761030b8201527f352039302e353535392032342e343538372039332e363635342032392e31333461032b8201527f332039362e353432384d36332e393131342039352e313330384c36332e39383561034b8201527f34203130332e3936374335362e39383031203130352e3338392035302e32303561036b8201527f203130342e3739332034342e30353832203130332e3131344d32392e3133343361038b8201527f2039362e353432384c33322e333932392038352e393230394d32392e313334336103ab8201527f2039362e353432384333332e333838312039392e313630372033382e343632386103cb8201527f203130312e3538362034342e30353832203130332e3131344d34342e303538326103eb8201527f203130332e3131344c34372e3232352039322e3739313522207374726f6b653d61040b8201527911313630b1b5911039ba3937b5b296bbb4b23a341e911c11179f60311b61042b8201527f20202020203c7061746820643d224d38332e393134332035382e3236373443386104458201527f302e373036392036362e303138312037342e323232372037302e3639342036396104658201527f2e343331332036382e373131334336352e363334332036372e31342036342e306104858201527f3339392036312e383538372036352e313337392035352e383736394c37312e376104a58201527f3830382035362e353333384c36362e353633322035312e303837334336392e376104c58201527f3730352034332e333336352037362e323534382033382e363630362038312e306104e58201527f3436312034302e363433344338352e383337352034322e363236312038372e316105058201527f3231362035302e353136362038332e393134332035382e323637345a222066696105258201526b36361e91313630b1b591179f60a11b61054582018190527f20202020203c7061746820643d224d35342e353732352034352e3035303643356105518301527f312e333635312035322e383031332034342e383830392035372e3437373220346105718301527f302e303839352035352e343934354333362e323932352035332e3932333220336105918301527f342e363938312034382e363431392033352e373936312034322e363630314c346105b18301527f322e3433392034332e3331374c33372e323231342033372e383730354334302e6105d18301527f343238372033302e313139372034362e3931332032352e343433382035312e376105f18301527f3034332032372e343236364335362e343935372032392e343039332035372e376106118301527f3739382033372e323939382035342e353732352034352e303530365a222066696106318301526106518201527f20202020203c7061746820643d224d36302e333534332034382e34333939433561065d8201527f362e383630372035362e383832342035392e373432372036352e32323937203661067d8201527f352e363034322036372e363535334337312e343635372037302e30383039203761069d8201527f392e343033342036362e323130382038322e3839372035372e373638334338366106bd8201527f2e333930372034392e333235382038332e353038362034302e393738342037376106dd8201527f2e363437312033382e353532394337312e373835362033362e313237332036336106fd8201527f2e383437392033392e393937332036302e333534332034382e343339395a222061071d8201527f7374726f6b653d22626c61636b22207374726f6b652d77696474683d2234222f61073d820152601f60f91b61075d8201527f20202020203c7061746820643d224d33312e323434392033362e33393443323761075e8201527f2e373531332034342e383336352033302e363333332035332e3138333820333661077e8201527f2e343934382035352e363039344334322e333536332035382e3033352035302e61079e8201527f3239342035342e313634392035332e373837372034352e373232344335372e326107be8201527f3831332033372e323739392035342e333939332032382e393332352034382e356107de8201527f3337372032362e3530374334322e363736322032342e303831342033342e37336107fe8201527f38352032372e393531342033312e323434392033362e3339345a22207374726f61081e8201527f6b653d22626c61636b22207374726f6b652d77696474683d2234222f3e00000061083e8201527f20202020203c636972636c652063783d2234322e32313239222063793d22363861085b8201527f2e323830362220723d22312e393936363422207472616e73666f726d3d22726f61087b8201527f746174652831372e303534382034322e323132392036382e323830362922206661089b8201526c34b6361e91313630b1b591179f60991b6108bb82018190527f20202020203c636972636c652063783d2234382e35373632222063793d2237306108c88301527f2e323332372220723d22312e393936363422207472616e73666f726d3d22726f6108e88301527f746174652831372e303534382034382e353736322037302e3233323729222066610908830152610928820152631e17b39f60e11b610935820152036109198101845201826143f9565b60088103612d17575083517f3c67207472616e73666f726d3d227472616e736c617465283539302c20323430868201526214911f60e91b818601527f20202020203c7061746820643d224d34352e3932383920352e3236333236433360438201527f342e3736313520312e37353135352032322e38383720382e303232312031392e60638201527f333731352031392e323031354331382e303333392032332e343535332031382e60838201527f303936332032372e383230362031392e323939392033312e373835374331312e60a38201527f323233352033382e3930303420332e313231372035302e3337323620352e313160c38201527f3434382036332e33353543372e33333432312037372e3831362032312e35393660e38201527f332039312e343130312035342e36323738203130312e3635314338372e3536386101038201527f38203131322e313533203130372e303231203130392e313435203131372e30386101238201527f372039382e35323139433132362e31322038382e39383934203132362e3030396101438201527f2037342e39323134203132332e3435332036342e34363635433132362e3637386101638201527f2036312e39303739203132392e3230332035382e33383235203133302e3533326101838201527f2035342e31353639433133342e3034372034322e39373735203132372e3839396101a38201527f2033312e30333934203131362e3733312032372e35323737433130372e3337386101c38201527f2032342e353836342039372e353238312032382e353037362039322e353039366101e38201527f2033362e343237394338312e313830382032382e343034372036382e383238206102038201527f32362e333030342036302e373031322032362e333339334336312e30373939206102238201527f31372e303033372035352e3235343220382e31393536382034352e39323839206102438201527f352e32363332365a222066696c6c3d222342344538343722207374726f6b653d6102638201527911313630b1b5911039ba3937b5b296bbb4b23a341e911c11179f60311b6102838201527f20202020203c7061746820643d224d32342e383830382035322e32343339433261029d8201527f312e323436392035392e393537382032322e313532382037342e3937353520356102bd8201527f362e333833312038362e333937324339392e38333733203130302e38393720316102dd8201527f30322e3631342038322e39313138203130362e3536352037392e3530323922206102fd8201527f7374726f6b653d22626c61636b22207374726f6b652d77696474683d2238222061031d8201527739ba3937b5b296b634b732b1b0b81e913937bab73211179f60411b61033d8201527f20202020203c636972636c652063783d2233392e33353137222063793d2232366103558201527f2e323330362220723d2231302e30343822207472616e73666f726d3d22726f746103758201527f61746528362e333934362033392e333531372032362e3233303629222066696c6103958201527f6c3d22776869746522207374726f6b653d22626c61636b22207374726f6b652d6103b582018190526a3bb4b23a341e911c11179f60a91b6103d583018190527f20202020203c636972636c652063783d223131302e313336222063793d2234376103e08401527f2e363434362220723d2231302e30343822207472616e73666f726d3d22726f746104008401527f61746528362e33393436203131302e3133362034372e3634343629222066696c610420840152610440830191909152610460820152631e17b39f60e11b61046b82015261044f815291506104808201906001600160401b038211838310176101d2575083529061071f565b60098103612df3575083517f3c67207472616e73666f726d3d227472616e736c617465283537322c20323430868201526214911f60e91b81860152915081612d6160438201614465565b612d6a9061483c565b612d7390614983565b612d7c90614acf565b612d8590614c17565b612d8e90614d61565b612d9790614dec565b612da090614465565b612da99061483c565b612db290614983565b612dbb90614acf565b612dc490614c17565b612dcd90614d61565b612dd690614dec565b631e17b39f60e11b815203601b198101835201610c4390826143f9565b600a8103613341575083517f3c67207472616e73666f726d3d227472616e736c617465283537302c20323238868201526214911f60e91b818601527f20202020203c7061746820643d224d36382e383534352035392e35323738433460438201527f352e3336382039362e343635392031372e3432362039312e3038373720362e3360638201527f393037382038332e373831334331372e33373635203132322e36342039302e3660838201527f363837203133362e3737203130302e3331392039382e30353631433130312e3160a38201527f34392039342e37323438203130312e3539362039312e36363337203130312e3760c38201527f31342038382e38353332433130322e3338372037322e383432322039322e343060e38201527f39392036342e393636372038322e313331372036312e363230394337372e34346101038201527f30392036302e3039342037322e363837332035392e353130352036382e3835346101238201527f352035392e353237385a222066696c6c3d222345423435343522207374726f6b6101438201527f653d22626c61636b22207374726f6b652d77696474683d2234222f3e000000006101638201527f20202020203c7061746820643d224d3130322e3339352039302e31353838433961017f8201527f382e363835342036382e303334352038322e373436392036302e31333732203661019f8201527f372e373035392035382e353331344337352e313931372035352e3738343520386101bf8201527f362e313139332035342e313831342039332e393139392035382e3633393143316101df8201527f30312e3734362035362e33303434203131362e3137312034382e3133313520316101ff8201527f31312e3236322033342e313137324c3132302e3837312033362e36373836433161021f8201527f32312e3534312034312e38383631203131372e3835362035342e31363633203961023f8201527f372e373534352036312e36323639433130322e35362036362e3635313420313061025f8201527f352037352e34393331203130322e3339352039302e313538385a222066696c6c61027f8201526b1e9111a11a229c1a1b91179f60a11b61029f8201527f20202020203c7061746820643d224d39332e393139392035382e3633393143386102ab8201527f362e313139332035342e313831342037352e313931372035352e3738343520366102cb8201527f372e373035392035382e353331344338322e373436392036302e3133373220396102eb8201527f382e363835342036382e30333435203130322e3339352039302e31353838433161030b8201527f30352037352e34393331203130322e35362036362e363531342039372e37353461032b8201527f352036312e363236394d39332e393139392035382e36333931433130312e373461034b8201527f362035362e33303434203131362e3137312034382e31333135203131312e323661036b8201527f322033342e313137324c3132302e3837312033362e36373836433132312e353461038b8201527f312034312e38383631203131372e3835362035342e313636332039372e3735346103ab8201527f352036312e363236394d39332e393139392035382e363339314339352e3330396103cb8201527f372035392e343333332039362e363030332036302e34322039372e37353435206103eb8201527f36312e3632363922207374726f6b653d22626c61636b22207374726f6b652d7761040b8201526934b23a341e911a11179f60b11b61042b820152631e17b39f60e11b610435820152610419815291506104408201906001600160401b038211838310176101d2575083529061071f565b600b036143d3575050815180613358858201614430565b7f20202020203c7061746820643d224d39392e3038352032392e3435313743383381528581017f2e383937322032382e363838382036312e3038352036342e343531322033322e90528481017f3538352036302e3435313243362e31383437362035352e3635313520382e39319052606081017f38352034392e3935313820352e30383534312034302e3935313743322e3038359052608081017f31352033362e39353137202d332e37313335342033332e333532312031372e30905260a081017f3836352032302e393532324332322e393135382031372e3437372032392e3234905260c081017f37382031352e343339322033352e3538352031342e343035314333332e353835905260e081017f20352e34353234362035322e303835202d322e30343837322035362e35383520905261010081017f342e34353137324335332e3431383320362e34383539372034382e3138352031905261012081017f312e313934322035322e3538352031332e373533314336322e34303031203134905261014081017f2e343737342037302e393835332031362e383635332037362e30383635203138905261016081017f2e393532314338342e353836352032312e36313838203130322e343836203235905261018081017f2e33353231203130362e3038362031382e39353231433131302e35383620313090526101a081017f2e39353231203132352e3538362031332e34353231203132312e30383620313790526101c081017f2e34353231433131362e3538362032312e34353231203132342e35383620353490526101e081017f2e39353231203132312e3038362035322e39353231433131382e323836203531905261020081017f2e33353231203131352e3136372034332e36363637203131342e352034314331905261022081017f31352033362e35203131302033302039392e3038352032392e343531375a222090526f3334b6361e9111a21ca21ca21c91179f60811b6102408201527f20202020203c7061746820643d224d33352e3538352031342e34303531433239806102508301527f2e323437382031352e343339322032322e393135382031372e3437372031372e80610270840152827f303836352032302e39353232432d332e37313335342033332e3335323120322e806102908301527f30383531352033362e3935313720352e30383534312034302e3935313743382e806102b08401526102d083017f393138352034392e3935313820362e31383437362035352e363531352033322e90526102f083017f3538352036302e343531324336312e3038352036342e343531322038332e3839905261031083017f37322032382e363838382039392e3038352032392e3435313743313130203330905261033083017f203131352033362e35203131342e35203431433131352e3136372034332e3636905261035083017f3637203131382e3238362035312e33353231203132312e3038362035322e3935905261037083017f3231433132342e3538362035342e39353231203131362e3538362032312e3435905261039083017f3231203132312e3038362031372e34353231433132352e3538362031332e343590527f3231203131302e3538362031302e39353231203130362e3038362031382e3935806103b08501527f3231433130322e3438362032352e333532312038342e353836352032312e3631806103d08601527f38382037362e303836352031382e393532314337302e393835332031362e3836806103f08701527f35332036322e343030312031342e343737342035322e3538352031332e37353390816104108801527f314d33352e3538352031342e343035314333332e35383520352e34353234362092836104308901527f35322e303835202d322e30343837322035362e35383520342e3435313732433594856104508a01527f332e3431383320362e34383539372034382e3138352031312e3139343220353296876104708b01527f2e3538352031332e373533314d33352e3538352031342e343035314334312e3398896104908c01527f3733372031332e343630342034372e313636372031332e333533332035322e356104b0819c01528d7f38352031332e3735333122207374726f6b653d22626c61636b22207374726f6b9c8d6104d08301526c3296bbb4b23a341e911991179f60991b9e8f6104f08401526104fd83017f20202020203c7061746820643d224d3130362e3038362031382e393532314331905261051d83017f31302e3538362031302e39353231203132352e3538362031332e343532312031905261053d83017f32312e3038362031372e34353231433131382e3538382032372e343533203132905261055d83017f352e3038352035312e34353132203132312e3038362035322e39353132433131905261057d83017f372e3838382035342e31353132203131342e3735332034322e34353132203131905261059d83017f332e3538352033362e34353132433131312e3735322033312e3238343820393290526105bd83017f2e303938382033302e303030382039302e352033324338382e3530313520333490526105dd83017f2e3439392035382e343731332033362e343030322036332e352033304337342e90526105fd83017f352031362034392e363636322033302e363636372034332032394333382e3333905261061d83017f33332033312033322e312033362e312032362e352033342e354332302e392033905261063d83017f322e3920382e37353139322033372e3435313520352e30383534312034302e39905261065d83017f35313743322e30383531352033362e39353137202d332e37313335342033332e905261067d83017f333532312031372e303836352032302e393532324332322e393135382031372e905261069d83017f3437372032392e323437382031352e343339322033352e3538352031342e343090526106bd83017f35314333332e35383520352e34353234362035322e303835202d322e3034383790526106dd83017f322035362e35383520342e34353137324335332e3431383320362e343835393790526106fd83017f2034382e3138352031312e313934322035322e3538352031332e373533314336905261071d83017f322e343030312031342e343737342037302e393835332031362e383635332037905261073d83017f362e303836352031382e393532314338342e353836352032312e363138382031905261075d83017f30322e3438362032352e33353231203130362e3038362031382e393532315a22905270103334b6361e91119c999c9b1ca311179f60791b61077d84015261078e8301526107ae8201526107ce01526107ee8d015261080e8c017f37353139322033372e343531352032302e392033322e392032362e352033342e905261082e8c017f354333322e312033362e312033382e333333332033312034332032394334392e905261084e8c017f363636322033302e363636372037342e352031362036332e352033304335382e905261086e8c017f343731332033362e343030322038382e353031352033342e3439392039302e35905261088e8c017f2033324339322e303938382033302e30303038203131312e3735322033312e3290526108ae8c017f383438203131332e3538352033362e34353132433131342e3735332034322e3490526108ce8c017f353132203131372e3838382035342e31353132203132312e3038362035322e3990526108ee8c017f353132433132352e3038352035312e34353132203131382e3538382032372e34905261090e8c017f3533203132312e3038362031372e34353231433132352e3538362031332e3435905261092e8c015261094e8b015261096e8a015261098e8901526109ae8801526109ce8701526109ee860152610a0e850152610a2e840152610a4e830152610a6e820152610a7b81017f20202020203c7061746820643d224d392e36383234372034392e3735393543399052610a9b81017f2e35393335372034392e3730353120392e35353337382034392e3636373120399052610abb81017f2e353338392034392e363530374c392e35333336342034392e363334394c362e9052610adb81017f36373438352034312e3035383543362e39373134362034302e3539353320372e9052610afb81017f34383136312033392e3936393420382e32363231342033392e3235313143392e9052610b1b81017f35393231322033382e303237312031312e393231392033372e303432362031359052610b3b81017f2e343536362033362e303431314c31352e363133322033352e393936374c31359052610b5b81017f2e373734332033352e393531394331372e363134312033352e343430312031399052610b7b81017f2e373234382033342e393332322032322e313133392033342e333830324832379052610b9b81017f2e3038354832372e313136354c32372e3134382033342e333738324332392e379052610bbb81017f33382033342e323134382033332e323438322033332e353036342033372e39309052610bdb81017f39322033312e3930394333392e36322033312e333232372034312e34383836209052610bfb81017f33302e363135372034332e353236362032392e373730334334342e37343931209052610c1b81017f33332e323732332034342e343839372033372e313033392034322e34313936209052610c3b81017f34302e343231384334302e383435382034322e393434322033382e31383834209052610c5b81017f34352e323331322033342e3230382034362e3835314333322e3134382034372e9052610c7b81017f363839332032392e373334312034382e333438332032362e393337342034382e9052610c9b81017f373635354332362e343630312034382e383336362032352e393731372034382e9052610cbb81017f393030382032352e343732312034382e393537364332302e343130382034392e9052610cdb81017f353332372031372e3431362034392e393631352031352e353436382035302e329052610cfb81017f3239324331352e333233342035302e323631322031352e313136312035302e329052610d1b81017f3930392031342e393233332035302e333138324331332e303438382035302e359052610d3b81017f3834312031322e373237352035302e353838342031322e333434362035302e349052610d5b81017f3835354331322e313733372035302e343339352031312e393231332035302e339052610d7b81017f3931372031312e363738382035302e333435384331312e363130332035302e339052610d9b81017f3332382031312e353432372035302e33322031312e343737392035302e3330379052610dbb81017f344331312e313437372035302e323433332031302e373935372035302e3136399052610ddb81017f312031302e343634382035302e303733334331302e313235382034392e3937359052610dfb81017f3120392e38363031342034392e3836383420392e36383234372034392e3735399052610e1b81017f355a222066696c6c3d22776869746522207374726f6b653d22626c61636b222090527139ba3937b5b296bbb4b23a341e911911179f60711b610e3b820152610e4d81017f20202020203c636972636c652063783d2232392e35222063793d2232342e352290527610391e9119971a91103334b6361e91313630b1b591179f60491b610e6d820152610e848101631e17b39f60e11b905203610e6881018252610e8801610c4390826143f9565b828252848201908282106001600160401b038311176101d2575083529061071f565b8280fd5b90601f801991011681019081106001600160401b0382111761441a57604052565b634e487b7160e01b600052604160045260246000fd5b7f3c67207472616e73666f726d3d227472616e736c617465283537302c2032353081526214911f60e91b602082015260230190565b7f20202020203c7061746820643d224d37382e313332312033352e35333037433781527f362e393638372033352e313733382036302e343630312033302e31363620353960208201527f2e323931392032392e393138374c36302e3339392032322e3436344336302e3360408201527f39392031332e303735312035322e3738373920352e34363339392034332e333960608201527f3920352e34363339394333342e3031303220352e34363339392032362e33393960808201527f2031332e303735322032362e3339392032322e3436344332362e33393920323760a08201527f2e3036392032382e32332033312e323436332033312e323033372033342e333060c08201527f37374332322e363039382033392e313933352031352e37392034372e3234353960e08201527f2031322e363630352035372e3434373143382e343438372037312e31373634206101008201527f31312e393533382038352e343331332032302e363939352039352e35333834436101208201527f32362e30383633203130302e3638362034302e34303336203131312e323437206101408201527f35342e35373835203131322e3330384335362e35313234203131322e393031206101608201527f35382e34353637203131332e3334312036302e33393835203131332e363334436101808201527f37392e37323538203131362e3535332039382e37393834203130342e393531206101a08201527f3130342e3730392038352e36383534433130362e3937372037382e32393031206101c08201527f3130372e3030372037302e37343232203130352e3138352036332e37373233436101e08201527f3130352e3932332036332e38373033203130362e3637372036332e39323039206102008201527f3130372e3434332036332e39323039433131362e3833322036332e39323039206102208201527f3132342e3434332035362e33303937203132342e3434332034362e39323039436102408201527f3132342e3434332033372e35333231203131362e3833322032392e39323039206102608201527f3130372e3434332032392e393230394339392e363634332032392e39323039206102808201527f39332e313036312033352e313434392039312e303835312034322e32373538436102a08201527f38372e333234322033392e333331372038322e393730332033372e30313439206102c08201527f37382e313332312033352e353330375a222066696c6c3d2223464441324634226102e08201527f207374726f6b653d22626c61636b22207374726f6b652d77696474683d22382261030082015261179f60f11b6103208201526103220190565b7f20202020203c7061746820643d224d35362e383430362036362e39343238433581527f332e3334372037352e333835332035362e3232392038332e373332372036322e60208201527f303930352038362e313538324336372e3935322038382e353833382037352e3860408201527f3839372038342e373133382037392e333833342037362e323731324338322e3860608201527f37372036372e383238372037392e3939352035392e343831332037342e31333360808201527f352035372e303535384336382e3237322035342e363330322036302e3333343260a08201527f2035382e353030322035362e383430362036362e393432385a222066696c6c3d60c08201527f22776869746522207374726f6b653d22626c61636b22207374726f6b652d776960e082015268323a341e911a11179f60b91b6101008201526101090190565b7f20202020203c7061746820643d224d32372e373332322035342e38393739433281527f342e323338362036332e333430342032372e313230362037312e36383737203360208201527f322e393832312037342e313133334333382e383433362037362e35333839203460408201527f362e373831332037322e363638392035302e3237352036342e3232363343353360608201527f2e373638362035352e373833382035302e383836362034372e3433363420343560808201527f2e303235312034352e303130394333392e313633362034322e3538353320333160a08201527f2e323235382034362e343535332032372e373332322035342e383937395a222060c08201527f66696c6c3d22776869746522207374726f6b653d22626c61636b22207374726f60e08201526d35b296bbb4b23a341e911a11179f60911b61010082015261010e0190565b7f20202020203c7061746820643d224d38302e343031362037362e37373133433781527f372e313934322038342e3532322037302e37312038392e313937392036352e3960208201527f3138362038372e323135324336322e313231362038352e363433392036302e3560408201527f3237322038302e333632362036312e363235322037342e333830384c36382e3260608201527f3638312037352e303337374c36332e303530352036392e353931324336362e3260808201527f3537382036312e383430342037322e373432312035372e313634352037372e3560a08201527f3333342035392e313437334338322e333234382036312e31332038332e36303860c08201527f392036392e303230352038302e343031362037362e373731335a222066696c6c60e0820152691e91313630b1b591179f60b11b61010082015261010a0190565b7f20202020203c7061746820643d224d35312e303539382036332e35353435433481527f372e383532342037312e333035322034312e333638322037352e39383131203360208201527f362e353736382037332e393938344333322e373739382037322e34323731203360408201527f312e313835342036372e313435382033322e323833342036312e3136344c333860608201527f2e393236332036312e383230394c33332e373038372035362e3337343443333660808201527f2e3931362034382e363233372034332e343030332034332e393437372034382e60a08201527f313931372034352e393330354335322e3938332034372e393133322035342e3260c08201527f3637312035352e383033372035312e303539382036332e353534355a2220666960e08201526b36361e91313630b1b591179f60a11b61010082015261010c0190565b7f20202020203c636972636c652063783d2233382e37303032222063793d22383681527f2e373834352220723d22312e393936363422207472616e73666f726d3d22726f60208201527f746174652831372e303534382033382e373030322038362e373834352922206660408201526c34b6361e91313630b1b591179f60991b6060820152606d0190565b7f20202020203c636972636c652063783d2234352e30363335222063793d22383881527f2e373336362220723d22312e393936363422207472616e73666f726d3d22726f60208201527f746174652831372e303534382034352e303633352038382e373336362922206660408201526c34b6361e91313630b1b591179f60991b6060820152606d0190565b7f3c67207472616e73666f726d3d227472616e736c617465283539302c2032353081526214911f60e91b60208201526023019056fea26469706673582212207abbef6cecafa7e944efc2bb1506659e382c1d3a7775f1701d2a0a863bc9ae7c64736f6c63430008130033",
  "linkReferences": {},
  "deployedLinkReferences": {}
}