{
  "_format": "hh-sol-artifact-1",
  "contractName": "BackgroundMetadataLibrary",
  "sourceName": "contracts/SockBackground/BackgroundMetadataLibrary.sol",
  "abi": [
    {
      "inputs": [
        {
          "internalType": "uint256",
          "name": "colorInt",
          "type": "uint256"
        }
      ],
      "name": "GetBackgroundColorMetadata",
      "outputs": [
        {
          "internalType": "string",
          "name": "",
          "type": "string"
        }
      ],
      "stateMutability": "pure",
      "type": "function"
    },
    {
      "inputs": [
        {
          "internalType": "uint256",
          "name": "colorInt",
          "type": "uint256"
        }
      ],
      "name": "GetBackgroundColorText",
      "outputs": [
        {
          "internalType": "string",
          "name": "",
          "type": "string"
        }
      ],
      "stateMutability": "pure",
      "type": "function"
    },
    {
      "inputs": [
        {
          "internalType": "uint256",
          "name": "backgroundType",
          "type": "uint256"
        }
      ],
      "name": "GetBackgroundTypeMetadata",
      "outputs": [
        {
          "internalType": "string",
          "name": "",
          "type": "string"
        }
      ],
      "stateMutability": "pure",
      "type": "function"
    },
    {
      "inputs": [
        {
          "internalType": "uint256",
          "name": "backgroundType",
          "type": "uint256"
        }
      ],
      "name": "GetBackgroundTypeText",
      "outputs": [
        {
          "internalType": "string",
          "name": "",
          "type": "string"
        }
      ],
      "stateMutability": "pure",
      "type": "function"
    }
  ],
  "bytecode": "0x6080806040523461001a57610cb19081610020823930815050f35b600080fdfe6080604052600436101561001257600080fd5b6000803560e01c80630353b077146100ac5780633cb067d214610091578063a81f66ed146100765763e28b34df1461004957600080fd5b60203660031901126100735761006f61006360043561075e565b60405191829182610110565b0390f35b80fd5b5060203660031901126100735761006f6100636004356101ac565b5060203660031901126100735761006f61006360043561052d565b5060203660031901126100735761006f610063600435610aa4565b60005b602b81106100dd575050602b6000910152565b81810151838201526020016100ca565b60005b8381106101005750506000910152565b81810151838201526020016100f0565b6040916020825261013081518092816020860152602086860191016100ed565b601f01601f1916010190565b6060810190811067ffffffffffffffff82111761015857604052565b634e487b7160e01b600052604160045260246000fd5b6040810190811067ffffffffffffffff82111761015857604052565b90601f8019910116810190811067ffffffffffffffff82111761015857604052565b6040908151906101bb8261013c565b602b82527f7b2274726169745f74797065223a224261636b67726f756e6420436f6c6f722260208084019182526a1610113b30b63ab2911d1160a91b8585015293909180610243575091610220936027926102409451958693518092848601906100ed565b820190665768697465227d60c81b9082015203600781018452018261018a565b90565b60018103610287575091610268936026926102409451958693518092848601906100ed565b8201906547726179227d60d01b9082015203600681018452018261018a565b600281036102cd5750916102ac936028926102409451958693518092848601906100ed565b820190674f72616e6765227d60c01b9082015203600881018452018261018a565b600381036103115750916102f2936026926102409451958693518092848601906100ed565b8201906550696e6b227d60d01b9082015203600681018452018261018a565b60048103610357575091610336936028926102409451958693518092848601906100ed565b8201906759656c6c6f77227d60c01b9082015203600881018452018261018a565b600581036103a457509161037c93602f926102409451958693518092848601906100ed565b8201906e4272696768742059656c6c6f77227d60881b9082015203600f81018452018261018a565b600681036103e95750916103c9936027926102409451958693518092848601906100ed565b82019066477265656e227d60c81b9082015203600781018452018261018a565b6007810361042d57509161040e936026926102409451958693518092848601906100ed565b82019065426c7565227d60d01b9082015203600681018452018261018a565b6008810361047657509161045293602b926102409451958693518092848601906100ed565b8201906a4461726b20426c7565227d60a81b9082015203600b81018452018261018a565b600981036104bf57509161049b93602b926102409451958693518092848601906100ed565b8201906a4461726b2050696e6b227d60a81b9082015203600b81018452018261018a565b600a1461050157916104e2936026926102409451958693518092848601906100ed565b820190654e6f6e65227d60d01b9082015203600681018452018261018a565b610510925051928301906100c7565b66426c61636b227d60c81b604b820152603281526102408161013c565b80610554575060405161053f8161016e565b6005815264576869746560d81b602082015290565b6001810361057d57506040516105698161016e565b60048152634772617960e01b602082015290565b600281036105a857506040516105928161016e565b60068152654f72616e676560d01b602082015290565b600381036105d157506040516105bd8161016e565b600481526350696e6b60e01b602082015290565b600481036105fc57506040516105e68161016e565b600681526559656c6c6f7760d01b602082015290565b6005810361062e57506040516106118161016e565b600d81526c4272696768742059656c6c6f7760981b602082015290565b6006810361065857506040516106438161016e565b600581526423b932b2b760d91b602082015290565b60078103610681575060405161066d8161016e565b6004815263426c756560e01b602082015290565b600881036106af57506040516106968161016e565b60098152684461726b20426c756560b81b602082015290565b600981036106dd57506040516106c48161016e565b60098152684461726b2050696e6b60b81b602082015290565b600a14610702576040516106f08161016e565b60028152614e6f60f01b602082015290565b60405161070e8161016e565b6005815264426c61636b60d81b602082015290565b7f2c7b2274726169745f74797065223a202248616e676564222c202276616c7565815268223a2254727565227d60b81b602082015260290190565b60409081519061076d8261013c565b602b82527f7b2274726169745f74797065223a20224261636b67726f756e6420547970652260208084019182526a1610113b30b63ab2911d1160a91b85850152939091600a81036107fc5750916107d593602e926102409451958693518092848601906100ed565b8201906d4e61747572616c20576f6f64227d60901b9082015203600e81018452018261018a565b600f810361084557509161082193602b926102409451958693518092848601906100ed565b8201906a4772617920576f6f64227d60a81b9082015203600b81018452018261018a565b6014810361088f57509161086a93602c926102409451958693518092848601906100ed565b8201906b42617369632054696c65227d60a01b9082015203600c81018452018261018a565b601981036108e15750602b6108b79461024094936108d39351968795518092848801906100ed565b6a436f6c6420416c7073227d60a81b9085019182015201610723565b03601f19810183528261018a565b601e8103610920575060266109099461024094936108d39351968795518092848801906100ed565b65416c7073227d60d01b9085019182015201610723565b60038103610966575091610945936028926102409451958693518092848601906100ed565b82019067466c6f776572227d60c01b9082015203600881018452018261018a565b600681036109ac57509161098b936028926102409451958693518092848601906100ed565b820190674c6561766573227d60c01b9082015203600881018452018261018a565b600c81036109f25750916109d1936028926102409451958693518092848601906100ed565b8201906750696c6c6f77227d60c01b9082015203600881018452018261018a565b60128103610a35575091610a17936025926102409451958693518092848601906100ed565b82019064527567227d60d81b9082015203600581018452018261018a565b601814610a785791610a58936027926102409451958693518092848601906100ed565b82019066506c61696e227d60c81b9082015203600781018452018261018a565b610a87925051928301906100c7565b665761746572227d60c81b604b820152603281526102408161013c565b600a8103610ad55750604051610ab98161016e565b600c81526b13985d1d5c985b0815dbdbd960a21b602082015290565b600f8103610b035750604051610aea8161016e565b600981526811dc985e4815dbdbd960ba1b602082015290565b60148103610b325750604051610b188161016e565b600a81526942617369632054696c6560b01b602082015290565b60198103610b605750604051610b478161016e565b6009815268436f6c6420416c707360b81b602082015290565b601e8103610b895750604051610b758161016e565b6004815263416c707360e01b602082015290565b60038103610bb45750604051610b9e8161016e565b6006815265233637bbb2b960d11b602082015290565b60068103610bdf5750604051610bc98161016e565b60068152654c656176657360d01b602082015290565b600c8103610c0a5750604051610bf48161016e565b600681526550696c6c6f7760d01b602082015290565b60128103610c325750604051610c1f8161016e565b600381526252756760e81b602082015290565b601814610c5a57604051610c458161016e565b6005815264283630b4b760d91b602082015290565b604051610c668161016e565b60058152642bb0ba32b960d91b60208201529056fea2646970667358221220c10b39c8b31ee155b98bbe11b34e172e9f82a91705648c06ab084b545f61059664736f6c63430008130033",
  "linkReferences": {},
  "deployedLinkReferences": {}
}