{
  "_format": "hh-sol-artifact-1",
  "contractName": "PatternLibrary",
  "sourceName": "contracts/SockPattern/PatternLibrary.sol",
  "abi": [
    {
      "inputs": [
        {
          "internalType": "uint256",
          "name": "currentPattern",
          "type": "uint256"
        }
      ],
      "name": "GetPattern",
      "outputs": [
        {
          "internalType": "string",
          "name": "",
          "type": "string"
        }
      ],
      "stateMutability": "pure",
      "type": "function"
    }
  ],
  "bytecode": "0x6080806040523461001a576105059081610020823930815050f35b600080fdfe6080604052600436101561001257600080fd5b60003560e01c630722ef891461002757600080fd5b602036600319011261006f5761003e60043561013b565b604080518092602082526100618151809281602086015260208686019101610074565b601f01601f19168101030190f35b600080fd5b60005b8381106100875750506000910152565b8181015183820152602001610077565b90601f8019910116810190811067ffffffffffffffff8211176100b957604052565b634e487b7160e01b600052604160045260246000fd5b60208183031261006f57805167ffffffffffffffff9182821161006f57019082601f8301121561006f5781519081116100b9576040519261011a601f8301601f191660200185610097565b8184526020828401011161006f576101389160208085019101610074565b90565b806101a4575060405163a96f1c6960e01b815260008160048173__$3b823523b574a2febe2e1e43a92160c877$__5af49081156101985760009161017d575090565b610138913d8091833e6101908183610097565b8101906100cf565b6040513d6000823e3d90fd5b600181036101e9575060405163a96f1c6960e01b815260008160048173__$f0930af758e332680a168b8a37f870f1cb$__5af49081156101985760009161017d575090565b6002810361022e575060405163a96f1c6960e01b815260008160048173__$18894c7e98642358bafb4f96aaa476e286$__5af49081156101985760009161017d575090565b60038103610273575060405163a96f1c6960e01b815260008160048173__$c0b8a333edc9707c2e86768540521ca98b$__5af49081156101985760009161017d575090565b6004908082036102b957506000604051809263a96f1c6960e01b82528173__$7ace15007747a4e14ab0daea7bfef0f84d$__5af49081156101985760009161017d575090565b600581036102fd57506000604051809263a96f1c6960e01b82528173__$30d14cca345a55515fe568b6515d224cde$__5af49081156101985760009161017d575090565b6006810361034157506000604051809263a96f1c6960e01b82528173__$0af9b92c0f4f3021c360f5697ed4d887ef$__5af49081156101985760009161017d575090565b6007810361038557506000604051809263a96f1c6960e01b82528173__$fdc5958c9d0f2a289e0ee45ba960feecd8$__5af49081156101985760009161017d575090565b600881036103c957506000604051809263a96f1c6960e01b82528173__$77e5c00bc9f6f3b67493680dcdd1083bd7$__5af49081156101985760009161017d575090565b6009810361040d57506000604051809263a96f1c6960e01b82528173__$95ceee603e06303d4cc2410c49deda99d5$__5af49081156101985760009161017d575090565b600a810361045157506000604051809263a96f1c6960e01b82528173__$cddfc1f16f47ea5463b7b70253a7288937$__5af49081156101985760009161017d575090565b600b03610493576000604051809263a96f1c6960e01b82528173__$39a221e63db6870c72d3811771de4c416e$__5af49081156101985760009161017d575090565b60405190602082019082821067ffffffffffffffff8311176104ba57506040526000815290565b604190634e487b7160e01b6000525260246000fdfea2646970667358221220353e8146dee84033c74741c96fb89864aeb1223e76974ec5e85e6f47f2ec95cb64736f6c63430008130033",
  "linkReferences": {
    "contracts/SockPattern/Patterns/BonePattern.sol": {
      "BonePattern": [
        {
          "length": 20,
          "start": 374
        }
      ]
    },
    "contracts/SockPattern/Patterns/ChilliPattern.sol": {
      "ChilliPattern": [
        {
          "length": 20,
          "start": 482
        }
      ]
    },
    "contracts/SockPattern/Patterns/CloudPattern.sol": {
      "CloudPattern": [
        {
          "length": 20,
          "start": 551
        }
      ]
    },
    "contracts/SockPattern/Patterns/FirePattern.sol": {
      "FirePattern": [
        {
          "length": 20,
          "start": 620
        }
      ]
    },
    "contracts/SockPattern/Patterns/HeartBreakPattern.sol": {
      "HeartBreakPattern": [
        {
          "length": 20,
          "start": 690
        }
      ]
    },
    "contracts/SockPattern/Patterns/HeartPattern.sol": {
      "HeartPattern": [
        {
          "length": 20,
          "start": 758
        }
      ]
    },
    "contracts/SockPattern/Patterns/LemonPattern.sol": {
      "LemonPattern": [
        {
          "length": 20,
          "start": 826
        }
      ]
    },
    "contracts/SockPattern/Patterns/LightingPattern.sol": {
      "LightingPattern": [
        {
          "length": 20,
          "start": 894
        }
      ]
    },
    "contracts/SockPattern/Patterns/MultiplePattern.sol": {
      "MultiplePattern": [
        {
          "length": 20,
          "start": 962
        }
      ]
    },
    "contracts/SockPattern/Patterns/StarPattern.sol": {
      "StarPattern": [
        {
          "length": 20,
          "start": 1030
        }
      ]
    },
    "contracts/SockPattern/Patterns/StripePattern.sol": {
      "StripePattern": [
        {
          "length": 20,
          "start": 1098
        }
      ]
    },
    "contracts/SockPattern/Patterns/UfoPattern.sol": {
      "UfoPattern": [
        {
          "length": 20,
          "start": 1164
        }
      ]
    }
  },
  "deployedLinkReferences": {
    "contracts/SockPattern/Patterns/BonePattern.sol": {
      "BonePattern": [
        {
          "length": 20,
          "start": 342
        }
      ]
    },
    "contracts/SockPattern/Patterns/ChilliPattern.sol": {
      "ChilliPattern": [
        {
          "length": 20,
          "start": 450
        }
      ]
    },
    "contracts/SockPattern/Patterns/CloudPattern.sol": {
      "CloudPattern": [
        {
          "length": 20,
          "start": 519
        }
      ]
    },
    "contracts/SockPattern/Patterns/FirePattern.sol": {
      "FirePattern": [
        {
          "length": 20,
          "start": 588
        }
      ]
    },
    "contracts/SockPattern/Patterns/HeartBreakPattern.sol": {
      "HeartBreakPattern": [
        {
          "length": 20,
          "start": 658
        }
      ]
    },
    "contracts/SockPattern/Patterns/HeartPattern.sol": {
      "HeartPattern": [
        {
          "length": 20,
          "start": 726
        }
      ]
    },
    "contracts/SockPattern/Patterns/LemonPattern.sol": {
      "LemonPattern": [
        {
          "length": 20,
          "start": 794
        }
      ]
    },
    "contracts/SockPattern/Patterns/LightingPattern.sol": {
      "LightingPattern": [
        {
          "length": 20,
          "start": 862
        }
      ]
    },
    "contracts/SockPattern/Patterns/MultiplePattern.sol": {
      "MultiplePattern": [
        {
          "length": 20,
          "start": 930
        }
      ]
    },
    "contracts/SockPattern/Patterns/StarPattern.sol": {
      "StarPattern": [
        {
          "length": 20,
          "start": 998
        }
      ]
    },
    "contracts/SockPattern/Patterns/StripePattern.sol": {
      "StripePattern": [
        {
          "length": 20,
          "start": 1066
        }
      ]
    },
    "contracts/SockPattern/Patterns/UfoPattern.sol": {
      "UfoPattern": [
        {
          "length": 20,
          "start": 1132
        }
      ]
    }
  }
}