{
  "_format": "hh-sol-artifact-1",
  "contractName": "AccessLock",
  "sourceName": "contracts/PondNFTs.sol",
  "abi": [
    {
      "anonymous": false,
      "inputs": [
        {
          "indexed": true,
          "internalType": "address",
          "name": "user",
          "type": "address"
        },
        {
          "indexed": false,
          "internalType": "bool",
          "name": "isEnabled",
          "type": "bool"
        }
      ],
      "name": "AdminSet",
      "type": "event"
    },
    {
      "anonymous": false,
      "inputs": [
        {
          "indexed": true,
          "internalType": "address",
          "name": "previousOwner",
          "type": "address"
        },
        {
          "indexed": true,
          "internalType": "address",
          "name": "newOwner",
          "type": "address"
        }
      ],
      "name": "OwnershipTransferred",
      "type": "event"
    },
    {
      "inputs": [
        {
          "internalType": "address",
          "name": "",
          "type": "address"
        }
      ],
      "name": "isAdmin",
      "outputs": [
        {
          "internalType": "bool",
          "name": "",
          "type": "bool"
        }
      ],
      "stateMutability": "view",
      "type": "function"
    },
    {
      "inputs": [],
      "name": "owner",
      "outputs": [
        {
          "internalType": "address",
          "name": "",
          "type": "address"
        }
      ],
      "stateMutability": "view",
      "type": "function"
    },
    {
      "inputs": [],
      "name": "renounceOwnership",
      "outputs": [],
      "stateMutability": "nonpayable",
      "type": "function"
    },
    {
      "inputs": [
        {
          "internalType": "address",
          "name": "user",
          "type": "address"
        },
        {
          "internalType": "bool",
          "name": "isEnabled",
          "type": "bool"
        }
      ],
      "name": "setAdmin",
      "outputs": [],
      "stateMutability": "nonpayable",
      "type": "function"
    },
    {
      "inputs": [
        {
          "internalType": "address",
          "name": "newOwner",
          "type": "address"
        }
      ],
      "name": "transferOwnership",
      "outputs": [],
      "stateMutability": "nonpayable",
      "type": "function"
    }
  ],
  "bytecode": "0x6080806040523461005b5760008054336001600160a01b0319821681178355916001600160a01b03909116907f8be0079c531659141344cd1fd0a4f28419497f9722a3daafe3b4186f6b6457e09080a361030990816100618239f35b600080fdfe60806040818152600436101561001457600080fd5b600091823560e01c90816324d7806c14610221575080634b0bddd2146101a0578063715018a6146101435780638da5cb5b1461011c5763f2fde38b1461005957600080fd5b3461011857602036600319011261011857610072610260565b61007a61027b565b6001600160a01b039081169182156100c6575082546001600160a01b0319811683178455167f8be0079c531659141344cd1fd0a4f28419497f9722a3daafe3b4186f6b6457e08380a380f35b5162461bcd60e51b815260206004820152602660248201527f4f776e61626c653a206e6577206f776e657220697320746865207a65726f206160448201526564647265737360d01b6064820152608490fd5b5080fd5b5034610118578160031936011261011857905490516001600160a01b039091168152602090f35b823461019d578060031936011261019d5761015c61027b565b80546001600160a01b03198116825581906001600160a01b03167f8be0079c531659141344cd1fd0a4f28419497f9722a3daafe3b4186f6b6457e08280a380f35b80fd5b50346101185780600319360112610118576101b9610260565b6024359081151580920361021d577fe68d2c359a771606c400cf8b87000cf5864010363d6a736e98f5047b7bbe18e9916020916101f461027b565b6001600160a01b031680865260018352848620805460ff191660ff84161790559351908152a280f35b8380fd5b9190503461025c57602036600319011261025c5760209260ff91906001600160a01b0361024c610260565b1681526001855220541615158152f35b8280fd5b600435906001600160a01b038216820361027657565b600080fd5b6000546001600160a01b0316330361028f57565b606460405162461bcd60e51b815260206004820152602060248201527f4f776e61626c653a2063616c6c6572206973206e6f7420746865206f776e65726044820152fdfea26469706673582212206d3a7b4522708f1f765e45cab7116ac3479a0c24e778666fa16e0f7aa8d8a00164736f6c63430008130033",
  "linkReferences": {},
  "deployedLinkReferences": {}
}