{
  "_format": "hh-sol-artifact-1",
  "contractName": "DuckRaceDerbyPondNFT",
  "sourceName": "contracts/PondNFTs.sol",
  "abi": [
    {
      "inputs": [
        {
          "internalType": "string",
          "name": "_initialURI",
          "type": "string"
        }
      ],
      "stateMutability": "nonpayable",
      "type": "constructor"
    },
    {
      "inputs": [],
      "name": "ApprovalCallerNotOwnerNorApproved",
      "type": "error"
    },
    {
      "inputs": [],
      "name": "ApprovalQueryForNonexistentToken",
      "type": "error"
    },
    {
      "inputs": [],
      "name": "ApprovalToCurrentOwner",
      "type": "error"
    },
    {
      "inputs": [],
      "name": "ApproveToCaller",
      "type": "error"
    },
    {
      "inputs": [],
      "name": "BalanceQueryForZeroAddress",
      "type": "error"
    },
    {
      "inputs": [],
      "name": "MintToZeroAddress",
      "type": "error"
    },
    {
      "inputs": [],
      "name": "MintZeroQuantity",
      "type": "error"
    },
    {
      "inputs": [],
      "name": "OwnerQueryForNonexistentToken",
      "type": "error"
    },
    {
      "inputs": [],
      "name": "TransferCallerNotOwnerNorApproved",
      "type": "error"
    },
    {
      "inputs": [],
      "name": "TransferFromIncorrectOwner",
      "type": "error"
    },
    {
      "inputs": [],
      "name": "TransferToNonERC721ReceiverImplementer",
      "type": "error"
    },
    {
      "inputs": [],
      "name": "TransferToZeroAddress",
      "type": "error"
    },
    {
      "inputs": [],
      "name": "URIQueryForNonexistentToken",
      "type": "error"
    },
    {
      "anonymous": false,
      "inputs": [
        {
          "indexed": true,
          "internalType": "address",
          "name": "user",
          "type": "address"
        },
        {
          "indexed": false,
          "internalType": "bool",
          "name": "isEnabled",
          "type": "bool"
        }
      ],
      "name": "AdminSet",
      "type": "event"
    },
    {
      "anonymous": false,
      "inputs": [
        {
          "indexed": true,
          "internalType": "address",
          "name": "owner",
          "type": "address"
        },
        {
          "indexed": true,
          "internalType": "address",
          "name": "approved",
          "type": "address"
        },
        {
          "indexed": true,
          "internalType": "uint256",
          "name": "tokenId",
          "type": "uint256"
        }
      ],
      "name": "Approval",
      "type": "event"
    },
    {
      "anonymous": false,
      "inputs": [
        {
          "indexed": true,
          "internalType": "address",
          "name": "owner",
          "type": "address"
        },
        {
          "indexed": true,
          "internalType": "address",
          "name": "operator",
          "type": "address"
        },
        {
          "indexed": false,
          "internalType": "bool",
          "name": "approved",
          "type": "bool"
        }
      ],
      "name": "ApprovalForAll",
      "type": "event"
    },
    {
      "anonymous": false,
      "inputs": [
        {
          "indexed": true,
          "internalType": "address",
          "name": "admin",
          "type": "address"
        },
        {
          "indexed": false,
          "internalType": "string",
          "name": "newBaseURI",
          "type": "string"
        }
      ],
      "name": "BaseURIUpdated",
      "type": "event"
    },
    {
      "anonymous": false,
      "inputs": [
        {
          "indexed": true,
          "internalType": "address",
          "name": "admin",
          "type": "address"
        },
        {
          "indexed": false,
          "internalType": "string",
          "name": "newURI",
          "type": "string"
        }
      ],
      "name": "InitialURIUpdated",
      "type": "event"
    },
    {
      "anonymous": false,
      "inputs": [
        {
          "indexed": true,
          "internalType": "address",
          "name": "previousOwner",
          "type": "address"
        },
        {
          "indexed": true,
          "internalType": "address",
          "name": "newOwner",
          "type": "address"
        }
      ],
      "name": "OwnershipTransferred",
      "type": "event"
    },
    {
      "anonymous": false,
      "inputs": [
        {
          "indexed": true,
          "internalType": "address",
          "name": "admin",
          "type": "address"
        },
        {
          "indexed": false,
          "internalType": "string",
          "name": "baseURI",
          "type": "string"
        }
      ],
      "name": "RevealUpdated",
      "type": "event"
    },
    {
      "anonymous": false,
      "inputs": [
        {
          "indexed": true,
          "internalType": "address",
          "name": "from",
          "type": "address"
        },
        {
          "indexed": true,
          "internalType": "address",
          "name": "to",
          "type": "address"
        },
        {
          "indexed": true,
          "internalType": "uint256",
          "name": "tokenId",
          "type": "uint256"
        }
      ],
      "name": "Transfer",
      "type": "event"
    },
    {
      "inputs": [
        {
          "internalType": "uint16",
          "name": "_newMaxPerWallet",
          "type": "uint16"
        }
      ],
      "name": "_changeMaxPerWallet",
      "outputs": [],
      "stateMutability": "nonpayable",
      "type": "function"
    },
    {
      "inputs": [],
      "name": "_openPublicMinting",
      "outputs": [],
      "stateMutability": "nonpayable",
      "type": "function"
    },
    {
      "inputs": [
        {
          "internalType": "uint256",
          "name": "_newMintPrice",
          "type": "uint256"
        }
      ],
      "name": "_updateMintPrice",
      "outputs": [],
      "stateMutability": "nonpayable",
      "type": "function"
    },
    {
      "inputs": [
        {
          "internalType": "address",
          "name": "to",
          "type": "address"
        },
        {
          "internalType": "uint256",
          "name": "tokenId",
          "type": "uint256"
        }
      ],
      "name": "approve",
      "outputs": [],
      "stateMutability": "nonpayable",
      "type": "function"
    },
    {
      "inputs": [
        {
          "internalType": "address",
          "name": "owner",
          "type": "address"
        }
      ],
      "name": "balanceOf",
      "outputs": [
        {
          "internalType": "uint256",
          "name": "",
          "type": "uint256"
        }
      ],
      "stateMutability": "view",
      "type": "function"
    },
    {
      "inputs": [],
      "name": "baseURI",
      "outputs": [
        {
          "internalType": "string",
          "name": "",
          "type": "string"
        }
      ],
      "stateMutability": "view",
      "type": "function"
    },
    {
      "inputs": [],
      "name": "collectETH",
      "outputs": [],
      "stateMutability": "nonpayable",
      "type": "function"
    },
    {
      "inputs": [
        {
          "internalType": "uint256",
          "name": "tokenId",
          "type": "uint256"
        }
      ],
      "name": "getApproved",
      "outputs": [
        {
          "internalType": "address",
          "name": "",
          "type": "address"
        }
      ],
      "stateMutability": "view",
      "type": "function"
    },
    {
      "inputs": [],
      "name": "initialURI",
      "outputs": [
        {
          "internalType": "string",
          "name": "",
          "type": "string"
        }
      ],
      "stateMutability": "view",
      "type": "function"
    },
    {
      "inputs": [
        {
          "internalType": "address",
          "name": "",
          "type": "address"
        }
      ],
      "name": "isAdmin",
      "outputs": [
        {
          "internalType": "bool",
          "name": "",
          "type": "bool"
        }
      ],
      "stateMutability": "view",
      "type": "function"
    },
    {
      "inputs": [
        {
          "internalType": "address",
          "name": "owner",
          "type": "address"
        },
        {
          "internalType": "address",
          "name": "operator",
          "type": "address"
        }
      ],
      "name": "isApprovedForAll",
      "outputs": [
        {
          "internalType": "bool",
          "name": "",
          "type": "bool"
        }
      ],
      "stateMutability": "view",
      "type": "function"
    },
    {
      "inputs": [],
      "name": "isRevealed",
      "outputs": [
        {
          "internalType": "bool",
          "name": "",
          "type": "bool"
        }
      ],
      "stateMutability": "view",
      "type": "function"
    },
    {
      "inputs": [],
      "name": "maxPerWallet",
      "outputs": [
        {
          "internalType": "uint16",
          "name": "",
          "type": "uint16"
        }
      ],
      "stateMutability": "view",
      "type": "function"
    },
    {
      "inputs": [],
      "name": "maxSupply",
      "outputs": [
        {
          "internalType": "uint256",
          "name": "",
          "type": "uint256"
        }
      ],
      "stateMutability": "view",
      "type": "function"
    },
    {
      "inputs": [
        {
          "internalType": "uint256",
          "name": "_amount",
          "type": "uint256"
        }
      ],
      "name": "mint",
      "outputs": [],
      "stateMutability": "payable",
      "type": "function"
    },
    {
      "inputs": [
        {
          "internalType": "address",
          "name": "recipient",
          "type": "address"
        },
        {
          "internalType": "uint256",
          "name": "quantity",
          "type": "uint256"
        }
      ],
      "name": "mintByAdmin",
      "outputs": [],
      "stateMutability": "nonpayable",
      "type": "function"
    },
    {
      "inputs": [],
      "name": "mintOpen",
      "outputs": [
        {
          "internalType": "bool",
          "name": "",
          "type": "bool"
        }
      ],
      "stateMutability": "view",
      "type": "function"
    },
    {
      "inputs": [],
      "name": "mintPrice",
      "outputs": [
        {
          "internalType": "uint256",
          "name": "",
          "type": "uint256"
        }
      ],
      "stateMutability": "view",
      "type": "function"
    },
    {
      "inputs": [
        {
          "internalType": "address",
          "name": "",
          "type": "address"
        }
      ],
      "name": "minted",
      "outputs": [
        {
          "internalType": "bool",
          "name": "",
          "type": "bool"
        }
      ],
      "stateMutability": "view",
      "type": "function"
    },
    {
      "inputs": [],
      "name": "name",
      "outputs": [
        {
          "internalType": "string",
          "name": "",
          "type": "string"
        }
      ],
      "stateMutability": "view",
      "type": "function"
    },
    {
      "inputs": [],
      "name": "owner",
      "outputs": [
        {
          "internalType": "address",
          "name": "",
          "type": "address"
        }
      ],
      "stateMutability": "view",
      "type": "function"
    },
    {
      "inputs": [
        {
          "internalType": "uint256",
          "name": "tokenId",
          "type": "uint256"
        }
      ],
      "name": "ownerOf",
      "outputs": [
        {
          "internalType": "address",
          "name": "",
          "type": "address"
        }
      ],
      "stateMutability": "view",
      "type": "function"
    },
    {
      "inputs": [],
      "name": "renounceOwnership",
      "outputs": [],
      "stateMutability": "nonpayable",
      "type": "function"
    },
    {
      "inputs": [
        {
          "internalType": "string",
          "name": "baseURI_",
          "type": "string"
        },
        {
          "internalType": "bool",
          "name": "_isRevealed",
          "type": "bool"
        }
      ],
      "name": "reveal",
      "outputs": [],
      "stateMutability": "nonpayable",
      "type": "function"
    },
    {
      "inputs": [
        {
          "internalType": "address",
          "name": "from",
          "type": "address"
        },
        {
          "internalType": "address",
          "name": "to",
          "type": "address"
        },
        {
          "internalType": "uint256",
          "name": "tokenId",
          "type": "uint256"
        }
      ],
      "name": "safeTransferFrom",
      "outputs": [],
      "stateMutability": "nonpayable",
      "type": "function"
    },
    {
      "inputs": [
        {
          "internalType": "address",
          "name": "from",
          "type": "address"
        },
        {
          "internalType": "address",
          "name": "to",
          "type": "address"
        },
        {
          "internalType": "uint256",
          "name": "tokenId",
          "type": "uint256"
        },
        {
          "internalType": "bytes",
          "name": "_data",
          "type": "bytes"
        }
      ],
      "name": "safeTransferFrom",
      "outputs": [],
      "stateMutability": "nonpayable",
      "type": "function"
    },
    {
      "inputs": [
        {
          "internalType": "address",
          "name": "user",
          "type": "address"
        },
        {
          "internalType": "bool",
          "name": "isEnabled",
          "type": "bool"
        }
      ],
      "name": "setAdmin",
      "outputs": [],
      "stateMutability": "nonpayable",
      "type": "function"
    },
    {
      "inputs": [
        {
          "internalType": "address",
          "name": "operator",
          "type": "address"
        },
        {
          "internalType": "bool",
          "name": "approved",
          "type": "bool"
        }
      ],
      "name": "setApprovalForAll",
      "outputs": [],
      "stateMutability": "nonpayable",
      "type": "function"
    },
    {
      "inputs": [
        {
          "internalType": "string",
          "name": "baseURI_",
          "type": "string"
        }
      ],
      "name": "setBaseURI",
      "outputs": [],
      "stateMutability": "nonpayable",
      "type": "function"
    },
    {
      "inputs": [
        {
          "internalType": "string",
          "name": "_initialURI",
          "type": "string"
        }
      ],
      "name": "setInitialURI",
      "outputs": [],
      "stateMutability": "nonpayable",
      "type": "function"
    },
    {
      "inputs": [
        {
          "internalType": "bytes4",
          "name": "interfaceId",
          "type": "bytes4"
        }
      ],
      "name": "supportsInterface",
      "outputs": [
        {
          "internalType": "bool",
          "name": "",
          "type": "bool"
        }
      ],
      "stateMutability": "view",
      "type": "function"
    },
    {
      "inputs": [],
      "name": "symbol",
      "outputs": [
        {
          "internalType": "string",
          "name": "",
          "type": "string"
        }
      ],
      "stateMutability": "view",
      "type": "function"
    },
    {
      "inputs": [
        {
          "internalType": "uint256",
          "name": "tokenId",
          "type": "uint256"
        }
      ],
      "name": "tokenURI",
      "outputs": [
        {
          "internalType": "string",
          "name": "",
          "type": "string"
        }
      ],
      "stateMutability": "view",
      "type": "function"
    },
    {
      "inputs": [],
      "name": "totalSupply",
      "outputs": [
        {
          "internalType": "uint256",
          "name": "",
          "type": "uint256"
        }
      ],
      "stateMutability": "view",
      "type": "function"
    },
    {
      "inputs": [
        {
          "internalType": "address",
          "name": "from",
          "type": "address"
        },
        {
          "internalType": "address",
          "name": "to",
          "type": "address"
        },
        {
          "internalType": "uint256",
          "name": "tokenId",
          "type": "uint256"
        }
      ],
      "name": "transferFrom",
      "outputs": [],
      "stateMutability": "nonpayable",
      "type": "function"
    },
    {
      "inputs": [
        {
          "internalType": "address",
          "name": "newOwner",
          "type": "address"
        }
      ],
      "name": "transferOwnership",
      "outputs": [],
      "stateMutability": "nonpayable",
      "type": "function"
    },
    {
      "stateMutability": "payable",
      "type": "receive"
    }
  ],
  "bytecode": "0x6080604052346200055757620029f7803803806200001d8162000592565b92833981019060208082840312620005575781516001600160401b039283821162000557570192601f818186011215620005575784518481116200055c57601f1995620000708284018816860162000592565b938285528583830101116200055757849060005b83811062000542575050600091840101526200009f62000572565b91601483527f4475636b205261636520446572627920506f6e6400000000000000000000000084840152620000d362000572565b936004808652630445244560e41b8287015284518781116200045957600254956001968781811c9116801562000537575b858210146200043957908187849311620004e0575b5084908783116001146200047a576000926200046e575b5050600019600383901b1c191690861b176002555b8551878111620004595760039687548781811c911680156200044e575b858210146200043957908187849311620003e3575b508490878311600114620003805760009262000374575b505060001982891b1c191690861b1786555b600085815560088054336001600160a01b03198216811790925590916001600160a01b03909116907f8be0079c531659141344cd1fd0a4f28419497f9722a3daafe3b4186f6b6457e09080a36103e8600d556703311fc80a570000600e558461ffff19600f541617600f5582519687116200035f57600c54908582811c9216801562000354575b838310146200033f5750838111620002f3575b50809286116001146200028557508495509084929160009562000279575b50501b92600019911b1c191617600c555b60405161243e9081620005b98239f35b01519350388062000258565b93929585908116600c60005285600020956000905b89838310620002d85750505010620002bd575b50505050811b01600c5562000269565b01519060f884600019921b161c1916905538808080620002ad565b8587015189559097019694850194889350908101906200029a565b600c600052816000208480890160051c820192848a1062000335575b0160051c019085905b828110620003285750506200023a565b6000815501859062000318565b925081926200030f565b602290634e487b7160e01b6000525260246000fd5b91607f169162000227565b604190634e487b7160e01b6000525260246000fd5b0151905038806200018e565b908b899416918a600052866000209260005b88828210620003cc5750508411620003b3575b505050811b018655620001a0565b0151600019838b1b60f8161c19169055388080620003a5565b8385015186558c9790950194938401930162000392565b90915088600052846000208780850160051c8201928786106200042f575b918a91869594930160051c01915b8281106200041f57505062000177565b600081558594508a91016200040f565b9250819262000401565b602284634e487b7160e01b6000525260246000fd5b90607f169062000162565b604182634e487b7160e01b6000525260246000fd5b01519050388062000130565b908b899416916002600052866000209260005b88828210620004c95750508411620004af575b505050811b0160025562000145565b015160001960f88460031b161c19169055388080620004a0565b8385015186558c979095019493840193016200048d565b9091506002600052846000208780850160051c8201928786106200052d575b918a91869594930160051c01915b8281106200051d57505062000119565b600081558594508a91016200050d565b92508192620004ff565b90607f169062000104565b81810183015186820184015286920162000084565b600080fd5b634e487b7160e01b600052604160045260246000fd5b60408051919082016001600160401b038111838210176200055c57604052565b6040519190601f01601f191682016001600160401b038111838210176200055c5760405256fe6080604052600436101561001b575b361561001957600080fd5b005b60003560e01c806301ffc9a71461025b57806306fdde0314610256578063081812fc14610251578063095ea7b31461024c57806318160ddd146102475780631c9641fb146102425780631e7269c51461023d57806323b872dd1461023857806324bbd0491461023357806324d7806c1461022e57806335dc3c681461022957806342842e0e14610224578063453c23101461021f5780634b0bddd21461021a57806354214f691461021557806355f804b3146102105780636352211e1461020b5780636817c76c146102065780636c0360eb146102015780636d818560146101fc57806370a08231146101f7578063715018a6146101f25780638da5cb5b146101ed57806395d89b41146101e8578063a0712d68146101e3578063a22cb465146101de578063a32a7b65146101d9578063af3da2f4146101d4578063b88d4fde146101cf578063c87b56dd146101ca578063c9a23077146101c5578063d5abeb01146101c0578063e837ead9146101bb578063e985e9c5146101b6578063f2fde38b146101b15763fdff9b810361000e576114ca565b611407565b6113aa565b611330565b611312565b6112f6565b6112c3565b611264565b6111b9565b611091565b610fde565b610e74565b610dd0565b610da7565b610d49565b610d1e565b610bc3565b610b31565b610a1c565b6109ec565b6108d1565b6107a5565b610727565b6106f6565b6106ce565b610655565b610616565b6105f0565b6105d9565b610565565b610544565b61051d565b61047d565b610421565b610341565b610277565b6001600160e01b031981160361027257565b600080fd5b3461027257602036600319011261027257602060043561029681610260565b63ffffffff60e01b166380ac58cd60e01b81149081156102d4575b81156102c3575b506040519015158152f35b6301ffc9a760e01b149050386102b8565b635b5e139f60e01b811491506102b1565b60005b8381106102f85750506000910152565b81810151838201526020016102e8565b90602091610321815180928185528580860191016102e5565b601f01601f1916010190565b90602061033e928181520190610308565b90565b346102725760008060031936011261041e576040518160025461036381610a3a565b808452906001908181169081156103f6575060011461039d575b6103998461038d81880382610819565b6040519182918261032d565b0390f35b60028352602094507f405787fa12a823e0f2b7631cc41b3ba8828b3321ca811111fa75cd3aa3bb5ace5b8284106103e357505050816103999361038d928201019361037d565b80548585018701529285019281016103c7565b610399965061038d9450602092508593915060ff191682840152151560051b8201019361037d565b80fd5b3461027257602036600319011261027257602061043f6004356116bd565b6040516001600160a01b039091168152f35b600435906001600160a01b038216820361027257565b602435906001600160a01b038216820361027257565b3461027257604036600319011261027257610496610451565b6001600160a01b03602435816104ab826115f4565b5116809284161461050b578133036104c7575b61001992611a3b565b600082815260076020908152604080832033845290915290206104f4906104f0905b5460ff1690565b1590565b156104be576040516367d9dca160e11b8152600490fd5b60405163250fdee360e21b8152600490fd5b34610272576000366003190112610272576000546001546040519103600019018152602090f35b346102725760203660031901126102725761055d611505565b600435600e55005b34610272576020366003190112610272576001600160a01b03610586610451565b166000526010602052602060ff604060002054166040519015158152f35b6060906003190112610272576001600160a01b0390600435828116810361027257916024359081168103610272579060443590565b34610272576100196105ea366105a4565b91611796565b3461027257600036600319011261027257602060ff600b5460081c166040519015158152f35b34610272576020366003190112610272576001600160a01b03610637610451565b166000526009602052602060ff604060002054166040519015158152f35b346102725760203660031901126102725760043561ffff81168091036102725761067d611505565b80156106945761ffff19600f541617600f55600080f35b60405162461bcd60e51b815260206004820152601260248201527143616e6e6f742073657420746f207a65726f60701b6044820152606490fd5b34610272576100196106df366105a4565b90604051926106ed846107fe565b60008452611727565b3461027257600036600319011261027257602061ffff600f5416604051908152f35b60243590811515820361027257565b3461027257604036600319011261027257610740610451565b7fe68d2c359a771606c400cf8b87000cf5864010363d6a736e98f5047b7bbe18e9602061076b610718565b92610774611505565b6001600160a01b031660008181526009835260409020805460ff191660ff86151516179055926040519015158152a2005b3461027257600036600319011261027257602060ff600b54166040519015158152f35b634e487b7160e01b600052604160045260246000fd5b606081019081106001600160401b038211176107f957604052565b6107c8565b602081019081106001600160401b038211176107f957604052565b90601f801991011681019081106001600160401b038211176107f957604052565b6001600160401b0381116107f957601f01601f191660200190565b9291926108618261083a565b9161086f6040519384610819565b829481845281830111610272578281602093846000960137010152565b9080601f830112156102725781602061033e93359101610855565b602060031982011261027257600435906001600160401b0382116102725761033e9160040161088c565b34610272576108df366108a7565b6108e7611505565b80516001600160401b0381116107f95761090b81610906600a54610a3a565b611fd3565b80602080601f8311600114610978575060009161096d575b508160011b916000199060031b1c191617600a555b7ff765b68b6ff897de964353a0eb194e46ecea8772879eb880b4b0fd277124922c6040518061096833948261032d565b0390a2005b905082015138610923565b600a6000529150601f1983166000805160206123c9833981519152926000905b8282106109d457505090836001949392106109bb575b5050811b01600a55610938565b84015160001960f88460031b161c1916905538806109ae565b80600185968294968a01518155019501930190610998565b346102725760203660031901126102725760206001600160a01b03610a126004356115f4565b5116604051908152f35b34610272576000366003190112610272576020600e54604051908152f35b90600182811c92168015610a6a575b6020831014610a5457565b634e487b7160e01b600052602260045260246000fd5b91607f1691610a49565b60405190600082600c5491610a8883610a3a565b808352600193808516908115610b105750600114610ab0575b50610aae92500383610819565b565b600c60009081527fdf6966c971051c3d54ec59162606531493a51404a002842f56009d7e5cf4a8c794602093509091905b818310610af8575050610aae935082010138610aa1565b85548884018501529485019487945091830191610ae1565b9050610aae94506020925060ff191682840152151560051b82010138610aa1565b346102725760008060031936011261041e5760405181600a54610b5381610a3a565b808452906001908181169081156103f65750600114610b7c576103998461038d81880382610819565b600a8352602094506000805160206123c98339815191525b828410610bb057505050816103999361038d928201019361037d565b8054858501870152928501928101610b94565b34610272576040366003190112610272576001600160401b0360043581811161027257610bf490369060040161088c565b90610bfd610718565b610c05611505565b60ff8019600b54169115151617600b556040517fffcd326b78e78031a693e986f76bfa19d1b13f1fe4b2ec67c23f46456ee100de339180610c46868261032d565b0390a2610c51611505565b81519081116107f957610c6981610906600a54610a3a565b80602080601f8311600114610cc4575060009161096d57508160011b916000199060031b1c191617600a557ff765b68b6ff897de964353a0eb194e46ecea8772879eb880b4b0fd277124922c6040518061096833948261032d565b600a6000529150601f1983166000805160206123c9833981519152926000905b828210610d0657505090836001949392106109bb575050811b01600a55610938565b80600185968294968a01518155019501930190610ce4565b34610272576020366003190112610272576020610d41610d3c610451565b61155d565b604051908152f35b346102725760008060031936011261041e57610d63611505565b600880546001600160a01b0319811690915581906001600160a01b03167f8be0079c531659141344cd1fd0a4f28419497f9722a3daafe3b4186f6b6457e08280a380f35b34610272576000366003190112610272576008546040516001600160a01b039091168152602090f35b346102725760008060031936011261041e5760405181600354610df281610a3a565b808452906001908181169081156103f65750600114610e1b576103998461038d81880382610819565b60038352602094507fc2575a0e9e593c00f959f8c92f12db2869c3395a3b0502d05e2516446f71f85b5b828410610e6157505050816103999361038d928201019361037d565b8054858501870152928501928101610e45565b60203660031901126102725760043560ff600b5460081c1615610f8d57600054600154610eba91610eb09184910360001901611c2e565b611c2e565b600d541015611c3b565b610ec781610eab3361155d565b610ee9610ee1610eda600f5461ffff1690565b61ffff1690565b809210611c82565b336000908152601060205260409020610f0e90610f09906104f0906104e9565b611ce7565b610f24610f1d83600e54611d65565b3414611d78565b610f3182610eab3361155d565b14610f68575b60003415610f5f575b60008080809334903090f115610f5a576100199033611db9565b611b0a565b506108fc610f40565b336000908152601060205260409020610f8890805460ff19166001179055565b610f37565b60405162461bcd60e51b815260206004820152602360248201527f4d696e74696e67206973206e6f7420796574206f70656e20666f72207075626c60448201526269632160e81b6064820152608490fd5b3461027257604036600319011261027257610ff7610451565b610fff610718565b6001600160a01b0382169133831461107f578161103e61104f9233600052600760205260406000209060018060a01b0316600052602052604060002090565b9060ff801983541691151516179055565b60405190151581527f17307eab39ab6107e8899845ad3d59bd9653f200f220920489ca2b5937696c3160203392a3005b60405163b06307db60e01b8152600490fd5b346102725761109f366108a7565b6110a7611505565b80516001600160401b0381116107f9576110cb816110c6600c54610a3a565b612027565b80602080601f83116001146111335750600091611128575b508160011b916000199060031b1c191617600c555b7f998cc6c827a95d954dd9f7f353dbbb9e4959d633c6639bca42129fa1089c36486040518061096833948261032d565b9050820151386110e3565b600c6000529150601f1983167fdf6966c971051c3d54ec59162606531493a51404a002842f56009d7e5cf4a8c7926000905b8282106111a15750509083600194939210611188575b5050811b01600c556110f8565b84015160001960f88460031b161c19169055388061117b565b80600185968294968a01518155019501930190611165565b34610272576040366003190112610272576111d2610451565b6024356111dd611505565b6001600160a01b0382161561121f5760005460015460001991038281018201939101831061121a5761121561001993600d5411611c3b565b611db9565b611c18565b60405162461bcd60e51b815260206004820152601d60248201527f4572726f723a207265636970656e74203d3d20616464726573732830290000006044820152606490fd5b346102725760803660031901126102725761127d610451565b611285610467565b606435916001600160401b0383116102725736602384011215610272576112b9610019933690602481600401359101610855565b9160443591611727565b34610272576020366003190112610272576103996112e26004356121a5565b604051918291602083526020830190610308565b34610272576000366003190112610272576103996112e2610a74565b34610272576000366003190112610272576020600d54604051908152f35b3461027257600036600319011261027257611349611505565b600b5460ff8160081c166113655761ff00191661010017600b55005b60405162461bcd60e51b815260206004820152601e60248201527f4572726f723a204d696e7420697320616c726561647920656e61626c656400006044820152606490fd5b3461027257604036600319011261027257602060ff6113fb6113ca610451565b6113d2610467565b6001600160a01b0391821660009081526007865260408082209290931681526020919091522090565b54166040519015158152f35b3461027257602036600319011261027257611420610451565b611428611505565b6001600160a01b0390811690811561147657600880546001600160a01b031981168417909155167f8be0079c531659141344cd1fd0a4f28419497f9722a3daafe3b4186f6b6457e0600080a3005b60405162461bcd60e51b815260206004820152602660248201527f4f776e61626c653a206e6577206f776e657220697320746865207a65726f206160448201526564647265737360d01b6064820152608490fd5b346102725760008060031936011261041e576114e4611505565b80808080478181156114fc575b3390f115610f5a5780f35b506108fc6114f1565b6008546001600160a01b0316330361151957565b606460405162461bcd60e51b815260206004820152602060248201527f4f776e61626c653a2063616c6c6572206973206e6f7420746865206f776e65726044820152fd5b6001600160a01b031680156115865760005260056020526001600160401b036040600020541690565b6040516323d3ad8160e21b8152600490fd5b604051906115a5826107de565b60006040838281528260208201520152565b906040516115c4816107de565b91546001600160a01b038116835260a081901c6001600160401b0316602084015260e01c60ff1615156040830152565b6115fc611598565b506001818082111561161b575b604051636f96cda160e11b8152600490fd5b6000548110156116095761163c611641916000526004602052604060002090565b6115b7565b6116516104f06040830151151590565b156116095780516001600160a01b03166116b7575090815b6116735780611609565b600019019061168f61163c836000526004602052604060002090565b80516116ab906001600160a01b03165b6001600160a01b031690565b6116b757509081611669565b91505090565b80600111158061171c575b80611700575b156116ee576000908152600660205260409020546001600160a01b031690565b6040516333d1c03960e21b8152600490fd5b5080600052600460205260ff60406000205460e01c16156116ce565b5060005481106116c8565b929190611735828286611796565b803b611742575b50505050565b61174b93611bef565b15611759573880808061173c565b6040516368d2bf6b60e11b8152600490fd5b805467ffffffffffffffff60a01b191660a09290921b67ffffffffffffffff60a01b16919091179055565b61179f836115f4565b80516001600160a01b0380841693929181168490036119dd57833314801561199d575b8015611989575b15611977578416938415611965576118c4906117e584886119ee565b6001600160a01b038416600090815260056020526040902061183f9061182561181582546001600160401b031690565b600019016001600160401b031690565b6001600160401b03166001600160401b0319825416179055565b6001600160a01b038116600090815260056020526040902061187e9061182561186f82546001600160401b031690565b6001016001600160401b031690565b6118b4611895886000526004602052604060002090565b80546001600160a01b0319166001600160a01b03909316929092178255565b6001600160401b0342169061176b565b60018501906118dd826000526004602052604060002090565b80549092906118f4906001600160a01b031661169f565b15611913575b505050506000805160206123e9833981519152600080a4565b60005403611922575b806118fa565b81546001600160a01b0319166001600160a01b0390931692909217815561195d9161195790602001516001600160401b031690565b9061176b565b38808061191c565b604051633a954ecd60e21b8152600490fd5b604051632ce44b5f60e11b8152600490fd5b503361199761169f886116bd565b146117c9565b506119d86104e9336119c18660018060a01b03166000526007602052604060002090565b9060018060a01b0316600052602052604060002090565b6117c2565b60405162a1148160e81b8152600490fd5b600081815260066020526040812080546001600160a01b031916905590916001600160a01b03167f8c5be1e5ebec7d5bd14f71427d1e84f3dd0314c0f7b2291e5b200ac8c7c3b9258280a4565b600082815260066020526040902080546001600160a01b0319166001600160a01b0383161790559091906001600160a01b0390811691167f8c5be1e5ebec7d5bd14f71427d1e84f3dd0314c0f7b2291e5b200ac8c7c3b925600080a4565b90816020910312610272575161033e81610260565b61033e939260809260018060a01b031682526000602083015260408201528160608201520190610308565b6001600160a01b03918216815291166020820152604081019190915260806060820181905261033e92910190610308565b6040513d6000823e3d90fd5b3d15611b41573d90611b278261083a565b91611b356040519384610819565b82523d6000602084013e565b606090565b611b6f60209160009394604051948580948193630a85bd0160e11b998a84523360048501611aae565b03926001600160a01b03165af160009181611bbf575b50611bb157611b92611b16565b80519081611bac576040516368d2bf6b60e11b8152600490fd5b602001fd5b6001600160e01b0319161490565b611be191925060203d8111611be8575b611bd98183610819565b810190611a99565b9038611b85565b503d611bcf565b92602091611b6f936000604051809681958294630a85bd0160e11b9a8b85523360048601611ad9565b634e487b7160e01b600052601160045260246000fd5b9190820180921161121a57565b15611c4257565b60405162461bcd60e51b815260206004820152601860248201527743616e277420657863656564206d617820737570706c792160401b6044820152606490fd5b15611c8957565b60405162461bcd60e51b815260206004820152603060248201527f4f6e652077616c6c65742063616e2774206d696e74206d6f7265207468616e2060448201526f6d617820616c6c6f776564204e46547360801b6064820152608490fd5b15611cee57565b60a460405162461bcd60e51b815260206004820152604460248201527f4572726f723a20546869732077616c6c65742068617320616c7265616479206d60448201527f696e746564206974732071756f7461206f66206d617820616c6c6f776564204e606482015263232a399760e11b6084820152fd5b8181029291811591840414171561121a57565b15611d7f57565b60405162461bcd60e51b81526020600482015260126024820152714d75737420706179206d696e74206665652160701b6044820152606490fd5b604090815191611dc8836107fe565b60008084528054909390926001600160a01b0381168015611fc3578615611fb257611ee76001600160401b03611e95818a16611e3b611e198760018060a01b03166000526005602052604060002090565b61182583611e2e83546001600160401b031690565b016001600160401b031690565b6001600160a01b0386166000908152600560205260409020611e6d9091611e2e83546001600160401b039060401c1690565b815467ffffffffffffffff60401b191660409190911b67ffffffffffffffff60401b16179055565b611ecc84611ead896000526004602052604060002090565b80546001600160a01b0319166001600160a01b03909216919091179055565b4216611ee2876000526004602052604060002090565b61176b565b8496850190823b1515600014611f685760019182805b611f13575b5050505050505081540361041e5755565b15611f5b575b8789838a6000805160206123e98339815191528180a4611f406104f087868d019c88611b46565b611f4a5783611efd565b86516368d2bf6b60e11b8152600490fd5b808910611f195780611f02565b94509250505060019081805b611f80575b5050505055565b15611fa5575b83828087019685876000805160206123e98339815191528180a4611f74565b808510611f865780611f79565b835163b562e8dd60e01b8152600490fd5b8351622e076360e81b8152600490fd5b601f8111611fdf575050565b600090600a825260208220906020601f850160051c8301941061201d575b601f0160051c01915b82811061201257505050565b818155600101612006565b9092508290611ffd565b601f8111612033575050565b600090600c825260208220906020601f850160051c83019410612071575b601f0160051c01915b82811061206657505050565b81815560010161205a565b9092508290612051565b600a546000929161208b82610a3a565b916001908181169081156120dc57506001146120a657505050565b9091929350600a60005260209081600020906000915b8583106120cb57505050500190565b8054858401529183019181016120bc565b60ff191683525050811515909102019150565b600c54600092916120ff82610a3a565b916001908181169081156120dc575060011461211a57505050565b9091929350600c60005260209081600020906000915b85831061213f57505050500190565b805485840152918301918101612130565b90612163602092828151948592016102e5565b0190565b60405190604082018281106001600160401b038211176107f9576040526012825271139bc81a5b9a5d1a585b08155492481cd95d60721b6020830152565b6121b46104f0600b5460ff1690565b1561221b576121c4600c54610a3a565b156122125761033e6121d86121f39261228a565b6122046040519384926121ed602085016120ef565b90612150565b64173539b7b760d91b815260050190565b03601f198101835282610819565b5061033e612167565b612226600a54610a3a565b1561224f5761033e61223a6121f39261228a565b6122046040519384926121ed6020850161207b565b5061033e610a74565b906122628261083a565b61226f6040519182610819565b8281528092612280601f199161083a565b0190602036910137565b6000908072184f03e93ff9f4daa797ed6e38ed64bf6a1f0160401b808210156123ba575b506d04ee2d6d415b85acef8100000000808310156123ab575b50662386f26fc100008083101561239c575b506305f5e1008083101561238d575b506127108083101561237e575b50606482101561236e575b600a80921015612364575b60019081602161231c828701612258565b95860101905b61232e575b5050505090565b600019019083906f181899199a1a9b1b9c1cb0b131b232b360811b8282061a83530491821561235f57919082612322565b612327565b916001019161230b565b9190606460029104910191612300565b600491939204910191386122f5565b600891939204910191386122e8565b601091939204910191386122d9565b602091939204910191386122c7565b6040935081049150386122ae56fec65a7bb8d6351c1cf70c95a316cc6a92839c986682d98bc35f958f4883f9d2a8ddf252ad1be2c89b69c2b068fc378daa952ba7f163c4a11628f55a4df523b3efa26469706673582212205c6c3065dbed4cb1ef52e588a40a3314d84dd4ffc55c1f94fd64a404e4acc06264736f6c63430008130033",
  "linkReferences": {},
  "deployedLinkReferences": {}
}