{
  "_format": "hh-sol-artifact-1",
  "contractName": "LeavesBackground",
  "sourceName": "contracts/SockBackground/AdditionalBackgrounds/LeavesBackground.sol",
  "abi": [
    {
      "inputs": [
        {
          "internalType": "string",
          "name": "backgroundColor",
          "type": "string"
        }
      ],
      "name": "background",
      "outputs": [
        {
          "internalType": "string",
          "name": "",
          "type": "string"
        }
      ],
      "stateMutability": "pure",
      "type": "function"
    }
  ],
  "bytecode": "0x6080806040523461001a57610c049081610020823930815050f35b600080fdfe60806040818152600436101561001457600080fd5b6000803560e01c63c8e70eab1461002a57600080fd5b60209081600319360112610b21576004359167ffffffffffffffff91828411610b215736602385011215610b21578360040135928311610b0d57601f1992610079601f82018516840188610b24565b808752828701943660248383010111610b09579080602485930187378701015283518093828201967f3c726563742077696474683d223130383022206865696768743d22313038302288526710103334b6361e9160c11b87840152519081604884016100e492610b5c565b601160f91b6048918301918201526210179f60e91b60498201527f20202020203c67207472616e73666f726d3d227472616e736c617465282d3134604c82015268181616991b1814911f60b91b606c8201526d040404040404040404078e0c2e8d60931b607582018190527f20202020202020202020202020643d224d3336312e363039203833342e34433160838301527f31332e363039203738382e382036392e39343231203635372e3733332037392e60a38301527f31303838203539372e39563533372e394337392e31303838203530382e30363760c38301527f203131312e323039203436312e34203233392e363039203531332e344333363860e38301527f2e303039203536352e34203337342e343432203734392e303637203336312e3661010383015269181c901c199a171a2d1160b11b610123830152906102309061012d01610b7f565b7f2020202020202020203c7061746820643d224d3336322e35203833332e35433381527f33342e35203736302e313637203233392e32203630352e322038322035373222848201527f207374726f6b653d22776869746522207374726f6b652d77696474683d2232228782015273103334b63616b7b830b1b4ba3c9e91181110179f60611b606080830191909152607482018390527f20202020202020202020202020643d224d3336312e353334203534372e33343960828301527f433131302e303637203536352e3939352033342e36353235203435302e32343560a28301527f2032382e33373838203339302e30344c31332e31393437203333312e3939334360c28301527f352e36343438203330332e3133312032342e3839203234392e3835392031363260e28301527f2e3237203236372e363733433239392e3635203238352e343836203335322e336101028301527f3534203436312e353436203336312e353334203534372e3334395a220000000061012283015291906103ba9061013e01610b7f565b7f2020202020202020203c7061746820643d224d3336322e313638203534362e3281528481017f3533433331362e353231203438322e333933203138352e313036203335362e3590528781017f38382032342e36323136203336342e32353122207374726f6b653d227768697490527232911039ba3937b5b296bbb4b23a341e91191160691b838201527f2020202020202020202020202066696c6c2d6f7061636974793d223022202f3e80607383015282609383015260a182017f20202020202020202020202020643d224d3331362e383434203431342e393637905260c182017f4339342e39313338203239352e3235372039332e37303238203135372e313133905260e182017f203132302e383339203130332e3030344c3133392e3330342034352e393136349052610101908183017f433134382e3438352031372e353331203139332e333839202d31362e3939313890526101218084017f203239392e3535342037322e30303031433430352e373139203136302e39393290528a610141928386017f203335352e333136203333372e373234203331362e383434203431342e3936379052612d1160f11b906101619682888201526101630161058190610b7f565b907f2020202020202020203c7061746820643d224d3331372e393638203431342e3382528b82017f3834433331332e383936203333352e393933203237302e393133203135392e3290528382017f3139203133312e35362037392e32353122207374726f6b653d227768697465229052701039ba3937b5b296bbb4b23a341e91191160791b808b840152816071840152896091840152609f83017f20202020202020202020202020643d224d3432312e393331203436332e383437905260bf83017f433239322e323938203234372e353633203336312e383238203132382e313836905260df83017f203431322e3739372039352e353333324c3435372e3833342035352e38383934905260ff83017f433438302e3232382033362e31373736203533362e3436372032392e3433383690528861011f938481017f203538322e323732203136302e313737433632382e303737203239302e393135905261013f958682017f203439342e343633203431372e303938203432312e393331203436332e383437905261015f8201520161071890610b7f565b7f2020202020202020203c7061746820643d224d3432332e313935203436332e3981527f3231433435392e3734203339342e3435203531332e303934203232302e3532358e8201527f203433342e3134382038302e3539303322207374726f6b653d22776869746522958101959095528a8501526071840152609183018890527f20202020202020202020202020643d224d313039372e3435203933392e373633609f8401527f43313333372e383720313031352e3820313336342e393320313135312e32372060bf8401527f313334382e3420313230392e354c313334302e393520313236392e303443313360df8401527f33372e323520313239382e363420313239392e363120313334302e393620313160ff8401527f37382e363520313237332e343343313035372e3720313230352e383920313037908301527f342e313220313032322e383420313039372e3435203933392e3736335a220000908201526108879061015d01610b7f565b7f2020202020202020203c7061746820643d224d313039362e3435203934302e3581527f343543313131352e313320313031362e373920313139302e343620313138322e898201527f333920313334322e333220313233342e383422207374726f6b653d22776869748c820152723291103334b63616b7b830b1b4ba3c9e91181160691b878201527f202020202020202020202020207374726f6b652d77696474683d223222202f3e6073820181905260938201969096527f20202020202020202020202020643d224d3935312e33373920313131372e303560a18201527f43313230332e313720313130332e353220313237362e323220313232302e373860c18201527f20313238312e323720313238312e314c313239352e323720313333392e34354360e18201527f313330322e323320313336382e343620313238312e3920313432312e33322031938101939093527f3134342e393120313430302e373243313030372e393220313338302e31322039908301527f35382e38313120313230332e3032203935312e33373920313131372e30355a2290820152610a2d9101610b7f565b917f2020202020202020203c7061746820643d224d3935302e37323220313131382e83528483017f3133433939352e30363120313138322e393120313132332e383920313331312e90528783017f333620313238342e3520313330362e393622207374726f6b653d22776869746590527111103334b63616b7b830b1b4ba3c9e91181160711b908301526072820152609281016810101010101e17b39f60b91b905203607b81018452609b01610ae39084610b24565b835194859382855251809285015281858501610afe92610b5c565b601f01168101030190f35b8280fd5b634e487b7160e01b81526041600452602490fd5b80fd5b90601f8019910116810190811067ffffffffffffffff821117610b4657604052565b634e487b7160e01b600052604160045260246000fd5b60005b838110610b6f5750506000910152565b8181015183820152602001610b5f565b7f2020202020202020202020202066696c6c3d222341354637433622207374726f81527f6b653d22776869746522207374726f6b652d77696474683d223222202f3e00006020820152603e019056fea26469706673582212203e5f7554781c314a9c6d5b20ef7683fbc562e6452f24576c054a5020404255bf64736f6c63430008130033",
  "linkReferences": {},
  "deployedLinkReferences": {}
}