{
  "_format": "hh-sol-artifact-1",
  "contractName": "ThisSocks",
  "sourceName": "contracts/ThisSocks.sol",
  "abi": [
    {
      "inputs": [],
      "stateMutability": "nonpayable",
      "type": "constructor"
    },
    {
      "anonymous": false,
      "inputs": [
        {
          "indexed": true,
          "internalType": "address",
          "name": "owner",
          "type": "address"
        },
        {
          "indexed": true,
          "internalType": "address",
          "name": "approved",
          "type": "address"
        },
        {
          "indexed": true,
          "internalType": "uint256",
          "name": "tokenId",
          "type": "uint256"
        }
      ],
      "name": "Approval",
      "type": "event"
    },
    {
      "anonymous": false,
      "inputs": [
        {
          "indexed": true,
          "internalType": "address",
          "name": "owner",
          "type": "address"
        },
        {
          "indexed": true,
          "internalType": "address",
          "name": "operator",
          "type": "address"
        },
        {
          "indexed": false,
          "internalType": "bool",
          "name": "approved",
          "type": "bool"
        }
      ],
      "name": "ApprovalForAll",
      "type": "event"
    },
    {
      "anonymous": false,
      "inputs": [
        {
          "indexed": true,
          "internalType": "address",
          "name": "previousOwner",
          "type": "address"
        },
        {
          "indexed": true,
          "internalType": "address",
          "name": "newOwner",
          "type": "address"
        }
      ],
      "name": "OwnershipTransferred",
      "type": "event"
    },
    {
      "anonymous": false,
      "inputs": [
        {
          "indexed": true,
          "internalType": "address",
          "name": "from",
          "type": "address"
        },
        {
          "indexed": true,
          "internalType": "address",
          "name": "to",
          "type": "address"
        },
        {
          "indexed": true,
          "internalType": "uint256",
          "name": "tokenId",
          "type": "uint256"
        }
      ],
      "name": "Transfer",
      "type": "event"
    },
    {
      "inputs": [
        {
          "internalType": "address",
          "name": "to",
          "type": "address"
        },
        {
          "internalType": "uint256",
          "name": "tokenId",
          "type": "uint256"
        }
      ],
      "name": "approve",
      "outputs": [],
      "stateMutability": "nonpayable",
      "type": "function"
    },
    {
      "inputs": [
        {
          "internalType": "address",
          "name": "owner",
          "type": "address"
        }
      ],
      "name": "balanceOf",
      "outputs": [
        {
          "internalType": "uint256",
          "name": "",
          "type": "uint256"
        }
      ],
      "stateMutability": "view",
      "type": "function"
    },
    {
      "inputs": [],
      "name": "curve",
      "outputs": [
        {
          "internalType": "uint256",
          "name": "",
          "type": "uint256"
        }
      ],
      "stateMutability": "view",
      "type": "function"
    },
    {
      "inputs": [
        {
          "internalType": "uint256",
          "name": "tokenId",
          "type": "uint256"
        }
      ],
      "name": "getApproved",
      "outputs": [
        {
          "internalType": "address",
          "name": "",
          "type": "address"
        }
      ],
      "stateMutability": "view",
      "type": "function"
    },
    {
      "inputs": [
        {
          "internalType": "address",
          "name": "owner",
          "type": "address"
        },
        {
          "internalType": "address",
          "name": "operator",
          "type": "address"
        }
      ],
      "name": "isApprovedForAll",
      "outputs": [
        {
          "internalType": "bool",
          "name": "",
          "type": "bool"
        }
      ],
      "stateMutability": "view",
      "type": "function"
    },
    {
      "inputs": [],
      "name": "limit",
      "outputs": [
        {
          "internalType": "uint256",
          "name": "",
          "type": "uint256"
        }
      ],
      "stateMutability": "view",
      "type": "function"
    },
    {
      "inputs": [],
      "name": "mintItem",
      "outputs": [
        {
          "internalType": "uint256",
          "name": "",
          "type": "uint256"
        }
      ],
      "stateMutability": "payable",
      "type": "function"
    },
    {
      "inputs": [],
      "name": "name",
      "outputs": [
        {
          "internalType": "string",
          "name": "",
          "type": "string"
        }
      ],
      "stateMutability": "view",
      "type": "function"
    },
    {
      "inputs": [],
      "name": "owner",
      "outputs": [
        {
          "internalType": "address",
          "name": "",
          "type": "address"
        }
      ],
      "stateMutability": "view",
      "type": "function"
    },
    {
      "inputs": [
        {
          "internalType": "uint256",
          "name": "tokenId",
          "type": "uint256"
        }
      ],
      "name": "ownerOf",
      "outputs": [
        {
          "internalType": "address",
          "name": "",
          "type": "address"
        }
      ],
      "stateMutability": "view",
      "type": "function"
    },
    {
      "inputs": [],
      "name": "price",
      "outputs": [
        {
          "internalType": "uint256",
          "name": "",
          "type": "uint256"
        }
      ],
      "stateMutability": "view",
      "type": "function"
    },
    {
      "inputs": [],
      "name": "recipient",
      "outputs": [
        {
          "internalType": "address payable",
          "name": "",
          "type": "address"
        }
      ],
      "stateMutability": "view",
      "type": "function"
    },
    {
      "inputs": [
        {
          "internalType": "uint256",
          "name": "id",
          "type": "uint256"
        }
      ],
      "name": "renderTokenById",
      "outputs": [
        {
          "internalType": "string",
          "name": "",
          "type": "string"
        }
      ],
      "stateMutability": "view",
      "type": "function"
    },
    {
      "inputs": [],
      "name": "renounceOwnership",
      "outputs": [],
      "stateMutability": "nonpayable",
      "type": "function"
    },
    {
      "inputs": [
        {
          "internalType": "address",
          "name": "from",
          "type": "address"
        },
        {
          "internalType": "address",
          "name": "to",
          "type": "address"
        },
        {
          "internalType": "uint256",
          "name": "tokenId",
          "type": "uint256"
        }
      ],
      "name": "safeTransferFrom",
      "outputs": [],
      "stateMutability": "nonpayable",
      "type": "function"
    },
    {
      "inputs": [
        {
          "internalType": "address",
          "name": "from",
          "type": "address"
        },
        {
          "internalType": "address",
          "name": "to",
          "type": "address"
        },
        {
          "internalType": "uint256",
          "name": "tokenId",
          "type": "uint256"
        },
        {
          "internalType": "bytes",
          "name": "_data",
          "type": "bytes"
        }
      ],
      "name": "safeTransferFrom",
      "outputs": [],
      "stateMutability": "nonpayable",
      "type": "function"
    },
    {
      "inputs": [
        {
          "internalType": "address",
          "name": "operator",
          "type": "address"
        },
        {
          "internalType": "bool",
          "name": "approved",
          "type": "bool"
        }
      ],
      "name": "setApprovalForAll",
      "outputs": [],
      "stateMutability": "nonpayable",
      "type": "function"
    },
    {
      "inputs": [
        {
          "internalType": "bytes4",
          "name": "interfaceId",
          "type": "bytes4"
        }
      ],
      "name": "supportsInterface",
      "outputs": [
        {
          "internalType": "bool",
          "name": "",
          "type": "bool"
        }
      ],
      "stateMutability": "view",
      "type": "function"
    },
    {
      "inputs": [],
      "name": "symbol",
      "outputs": [
        {
          "internalType": "string",
          "name": "",
          "type": "string"
        }
      ],
      "stateMutability": "view",
      "type": "function"
    },
    {
      "inputs": [
        {
          "internalType": "uint256",
          "name": "index",
          "type": "uint256"
        }
      ],
      "name": "tokenByIndex",
      "outputs": [
        {
          "internalType": "uint256",
          "name": "",
          "type": "uint256"
        }
      ],
      "stateMutability": "view",
      "type": "function"
    },
    {
      "inputs": [
        {
          "internalType": "address",
          "name": "owner",
          "type": "address"
        },
        {
          "internalType": "uint256",
          "name": "index",
          "type": "uint256"
        }
      ],
      "name": "tokenOfOwnerByIndex",
      "outputs": [
        {
          "internalType": "uint256",
          "name": "",
          "type": "uint256"
        }
      ],
      "stateMutability": "view",
      "type": "function"
    },
    {
      "inputs": [
        {
          "internalType": "uint256",
          "name": "id",
          "type": "uint256"
        }
      ],
      "name": "tokenURI",
      "outputs": [
        {
          "internalType": "string",
          "name": "",
          "type": "string"
        }
      ],
      "stateMutability": "view",
      "type": "function"
    },
    {
      "inputs": [],
      "name": "totalSupply",
      "outputs": [
        {
          "internalType": "uint256",
          "name": "",
          "type": "uint256"
        }
      ],
      "stateMutability": "view",
      "type": "function"
    },
    {
      "inputs": [
        {
          "internalType": "address",
          "name": "from",
          "type": "address"
        },
        {
          "internalType": "address",
          "name": "to",
          "type": "address"
        },
        {
          "internalType": "uint256",
          "name": "tokenId",
          "type": "uint256"
        }
      ],
      "name": "transferFrom",
      "outputs": [],
      "stateMutability": "nonpayable",
      "type": "function"
    },
    {
      "inputs": [
        {
          "internalType": "address",
          "name": "newOwner",
          "type": "address"
        }
      ],
      "name": "transferOwnership",
      "outputs": [],
      "stateMutability": "nonpayable",
      "type": "function"
    }
  ],
  "bytecode": "0x60803462000386576001600160401b03906040908082018381118282101762000370578252600881526020906754686973536f636b60c01b828201528251938385018581108282111762000370578452600385526254485360e81b83860152815181811162000370576000938454916001948584811c9416801562000365575b8385101462000351578190601f94858111620002fe575b5083908583116001146200029a5788926200028e575b5050600019600383901b1c191690851b1785555b86519283116200027a5783548481811c911680156200026f575b828210146200025b5782811162000213575b5080918311600114620001ac575083949582939492620001a0575b5050600019600383901b1c191690821b1790555b600a8054336001600160a01b0319821681179092559251926001600160a01b03167f8be0079c531659141344cd1fd0a4f28419497f9722a3daafe3b4186f6b6457e08380a36312cc03004201908142116200018c5750600c5566038d7ea4c68000600d55612f0e90816200038c8239f35b634e487b7160e01b81526011600452602490fd5b01519050388062000107565b90601f198316968486528286209286905b898210620001fb575050838596979810620001e1575b505050811b0190556200011b565b015160001960f88460031b161c19169055388080620001d3565b808785968294968601518155019501930190620001bd565b8486528186208380860160051c82019284871062000251575b0160051c019085905b82811062000245575050620000ec565b87815501859062000235565b925081926200022c565b634e487b7160e01b86526022600452602486fd5b90607f1690620000da565b634e487b7160e01b85526041600452602485fd5b015190503880620000ac565b8880528489208894509190601f1984168a5b87828210620002e75750508411620002cd575b505050811b018555620000c0565b015160001960f88460031b161c19169055388080620002bf565b8385015186558b97909501949384019301620002ac565b9091508780528388208580850160051c82019286861062000347575b918991869594930160051c01915b8281106200033857505062000096565b8a815585945089910162000328565b925081926200031a565b634e487b7160e01b87526022600452602487fd5b93607f16936200007f565b634e487b7160e01b600052604160045260246000fd5b600080fdfe6080604052600436101561001257600080fd5b60003560e01c806301ffc9a7146101a757806306fdde03146101a2578063081812fc1461019d578063095ea7b31461019857806318160ddd1461019357806323b872dd1461018e5780632f745c591461018957806342842e0e146101845780634f6ccce71461017f5780636352211e1461017a57806366d003ac1461017557806370a0823114610170578063715018a61461016b5780637165485d146101665780638da5cb5b1461016157806395d89b411461015c578063a035b1fe14610157578063a22cb46514610152578063a2d6c6da1461014d578063a4d66daf14610148578063b88d4fde14610143578063c87b56dd1461013e578063e985e9c514610139578063eb93406b146101345763f2fde38b1461012f57600080fd5b6116b0565b6114c1565b611464565b610b68565b610ae0565b610a17565b6109e4565b6108fc565b6108de565b61081d565b6107f4565b6107d7565b610776565b61074b565b61071c565b6106fe565b610653565b61062b565b610578565b61054f565b6104fc565b61040d565b6103b1565b6102a7565b6101c3565b6001600160e01b03198116036101be57565b600080fd5b346101be5760203660031901126101be5760206004356101e2816101ac565b63ffffffff60e01b1663780e9d6360e01b8114908115610208575b506040519015158152f35b6380ac58cd60e01b81149150811561023a575b8115610229575b50386101fd565b6301ffc9a760e01b14905038610222565b635b5e139f60e01b8114915061021b565b60005b83811061025e5750506000910152565b818101518382015260200161024e565b906020916102878151809281855285808601910161024b565b601f01601f1916010190565b9060206102a492818152019061026e565b90565b346101be576000806003193601126103ae57604051908080549060019180831c928082169283156103a4575b602092838610851461039057858852602088019490811561036f5750600114610317575b6103138761030781890382610a85565b60405191829182610293565b0390f35b6000805294509192917f290decd9548b62a8d60345a988386fc84ba6bc95484008f6362f93160ef3e5635b83861061035e57505050910190506103078261031338806102f7565b805485870152948201948101610342565b60ff191685525050505090151560051b0190506103078261031338806102f7565b634e487b7160e01b82526022600452602482fd5b93607f16936102d3565b80fd5b346101be5760203660031901126101be5760206103cf600435611937565b6040516001600160a01b039091168152f35b600435906001600160a01b03821682036101be57565b602435906001600160a01b03821682036101be57565b346101be5760403660031901126101be576104266103e1565b60243561043281611852565b916001600160a01b0380841690821681146104ad576104649361045f913314908115610466575b506118ca565b611e0c565b005b6001600160a01b031660009081526005602052604090206104a791506104a09033905b9060018060a01b0316600052602052604060002090565b5460ff1690565b38610459565b60405162461bcd60e51b815260206004820152602160248201527f4552433732313a20617070726f76616c20746f2063757272656e74206f776e656044820152603960f91b6064820152608490fd5b346101be5760003660031901126101be576020600854604051908152f35b60609060031901126101be576001600160a01b039060043582811681036101be579160243590811681036101be579060443590565b346101be576104646105603661051a565b9161057361056e8433611aeb565b6119ba565b611c73565b346101be5760403660031901126101be576105916103e1565b6024359061059e816117da565b8210156105d2576001600160a01b031660009081526006602090815260408083209383529281529082902054915191825290f35b60405162461bcd60e51b815260206004820152602b60248201527f455243373231456e756d657261626c653a206f776e657220696e646578206f7560448201526a74206f6620626f756e647360a81b6064820152608490fd5b346101be5761046461063c3661051a565b906040519261064a84610a4a565b60008452611a33565b346101be5760203660031901126101be576004356008548110156106a45760086000527ff3f7a9fe364faab93b216da50a3214154f22a0a2b415b23a84c8169e8b636ee30154604051908152602090f35b60405162461bcd60e51b815260206004820152602c60248201527f455243373231456e756d657261626c653a20676c6f62616c20696e646578206f60448201526b7574206f6620626f756e647360a01b6064820152608490fd5b346101be5760203660031901126101be5760206103cf600435611852565b346101be5760003660031901126101be5760206040517354179e1770a780f2f541f23cb21252de12977d3c8152f35b346101be5760203660031901126101be57602061076e6107696103e1565b6117da565b604051908152f35b346101be576000806003193601126103ae57600a5481906001600160a01b038116906107a3338314611746565b6001600160a01b031916600a557f8be0079c531659141344cd1fd0a4f28419497f9722a3daafe3b4186f6b6457e08280a380f35b346101be5760003660031901126101be5760206040516103ea8152f35b346101be5760003660031901126101be57600a546040516001600160a01b039091168152602090f35b346101be576000806003193601126103ae576040519080600190815480831c928082169283156108d4575b602092838610851461039057858852602088019490811561036f575060011461087b576103138761030781890382610a85565b600160005294509192917fb10e2d527612073b26eecdfd717e6a320cf44b4afac2b0732d9fcbe2b7fa0cf65b8386106108c357505050910190506103078261031338806102f7565b8054858701529482019481016108a7565b93607f1693610848565b346101be5760003660031901126101be576020600d54604051908152f35b346101be5760403660031901126101be576109156103e1565b60243580151581036101be576001600160a01b038216913383146109a357816109606109719233600052600560205260406000209060018060a01b0316600052602052604060002090565b9060ff801983541691151516179055565b604051901515815233907f17307eab39ab6107e8899845ad3d59bd9653f200f220920489ca2b5937696c3190602090a3005b60405162461bcd60e51b815260206004820152601960248201527822a9219b99189d1030b8383937bb32903a379031b0b63632b960391b6044820152606490fd5b346101be5760203660031901126101be57610313610a036004356129cf565b60405191829160208352602083019061026e565b346101be5760003660031901126101be576020604051610e908152f35b634e487b7160e01b600052604160045260246000fd5b602081019081106001600160401b03821117610a6557604052565b610a34565b604081019081106001600160401b03821117610a6557604052565b90601f801991011681019081106001600160401b03821117610a6557604052565b60405190606082018281106001600160401b03821117610a6557604052565b6001600160401b038111610a6557601f01601f191660200190565b346101be5760803660031901126101be57610af96103e1565b610b016103f7565b606435916001600160401b0383116101be57366023840112156101be57826004013591610b2d83610ac5565b92610b3b6040519485610a85565b80845236602482870101116101be5760208160009260246104649801838801378501015260443591611a33565b346101be5760203660031901126101be57610b8c610b87600435611ace565b6124af565b610c43610bbf610bcd610ba06004356125f5565b60405165536f636b202360d01b602082015292839160268301906124e4565b03601f198101835282610a85565b610bd56124fb565b50610be9610be46004356128c9565b6127e0565b610bf4600435612e46565b929173__$772a75894d036a7365d3d456d63c619b1e$__6000610c236004356000526011602052604060002090565b5460405180998192630353b07760e01b8352600483019190602083019252565b0381845af4801561131a57610c9397600091611449575b506000610c736004356000526011602052604060002090565b54604051809a8192631e5833e960e11b8352600483019190602083019252565b0381855af497881561131a5760009861142c575b50610ce36000610cc3600435600052600e602052604060002090565b5460405180938192636aabd94360e11b8352600483019190602083019252565b038173__$74f2c8579a45ff0cd4ba0b2f14fdf61d51$__5af4801561131a57610d4791600091611411575b506000610d27600435600052600e602052604060002090565b5460405180948192630c52312760e01b8352600483019190602083019252565b038173__$45d2f044cbc76663f5d423dd998b62c3f2$__5af491821561131a576000926113f4575b506040516357734f6b60e01b808252600482018790529260008260248173__$1a9ce43643d07b5d2d447f788b54f84bee$__5af491821561131a576000926113d7575b50604051848152600481018990529260008460248173__$1a9ce43643d07b5d2d447f788b54f84bee$__5af493841561131a57610e10958c916000966113b6575b509060009160405197889283928352600483019190602083019252565b038173__$1a9ce43643d07b5d2d447f788b54f84bee$__5af494851561131a57600095611399575b506040516e02a3434b99029b7b1b5b9903430b99608d1b60208201529c8d96602f8801610e64916124e4565b6c0103130b1b5b3b937bab732161609d1b8152600d01610e83916124e4565b720103130b1b5b3b937bab7321031b7b637b9161606d1b8152601301610ea8916124e4565b690103830ba3a32b93716160b51b8152600a01610ec4916124e4565b66010103834b717160cd1b815260070167020b732103430b9960c51b8152600801610eee916124e4565b610ef790612579565b610f00916124e4565b610f0990612579565b610f12916124e4565b6620636f6c6f727360c81b815260070103601f1981018852610f349088610a85565b610f3f6004356125f5565b93610f4b600435611852565b610f5d906001600160a01b03166126eb565b93600435610f75906000526010602052604060002090565b5460405163a81f66ed60e01b815260048101919091529383856024815a93600094f493841561131a57610fe69560009561137a575b50600090610fc46004356000526011602052604060002090565b5490604051808099819463e28b34df60e01b8352600483019190602083019252565b03915af494851561131a57600095611359575b5060405163357c470d60e21b815260048101919091526024810191909152604481019690965260008660648173__$1a9ce43643d07b5d2d447f788b54f84bee$__5af493841561131a576110889660009561133c575b506000611068600435600052600e602052604060002090565b54604051809981926326549a8f60e11b8352600483019190602083019252565b038173__$45d2f044cbc76663f5d423dd998b62c3f2$__5af495861561131a576110e19760009761131f575b5060006110c2600435612ebb565b604051809a8192635cb9c28560e01b8352600483019190602083019252565b038173__$74f2c8579a45ff0cd4ba0b2f14fdf61d51$__5af497881561131a576000986112f5575b50604051683d913730b6b2911d1160b91b6020820152998a9960298b0161112f916124e4565b701116113232b9b1b934b83a34b7b7111d1160791b8152601101611152916124e4565b7f222c2265787465726e616c5f75726c223a2268747470733a2f2f74686973736f81526d636b732e636f6d2f746f6b656e2f60901b6020820152602e01611198916124e4565b6b1116101137bbb732b9111d1160a11b8152600c016111b6916124e4565b6b11161134b6b0b3b2911d101160a11b8152600c017f646174613a696d6167652f7376672b786d6c3b6261736536342c0000000000008152601a016111fa916124e4565b61088b60f21b81526002016d2261747472696275746573223a5b60901b8152600e01611225916124e4565b61122e90612579565b611237916124e4565b61124090612579565b611249916124e4565b61125290612579565b61125b916124e4565b61126490612579565b61126d916124e4565b605d60f81b8152600101607d60f81b815260010103601f19810182526112939082610a85565b61129c906127e0565b6040517f646174613a6170706c69636174696f6e2f6a736f6e3b6261736536342c0000006020820152908190603d82016112d5916124e4565b03601f19810182526112e79082610a85565b604051610313819282610293565b6113139198503d806000833e61130b8183610a85565b81019061251b565b9638611109565b611eb6565b6113359197503d806000833e61130b8183610a85565b95386110b4565b6113529195503d806000833e61130b8183610a85565b933861104f565b600092919550611372903d8085833e61130b8183610a85565b949091610ff9565b6000919550611392903d8084833e61130b8183610a85565b9490610faa565b6113af9195503d806000833e61130b8183610a85565b9338610e38565b6000929196506113cf903d8085833e61130b8183610a85565b959091610df3565b6113ed9192503d806000833e61130b8183610a85565b9038610db2565b61140a9192503d806000833e61130b8183610a85565b9038610d6f565b61142691503d806000833e61130b8183610a85565b38610d0e565b6114429198503d806000833e61130b8183610a85565b9638610ca7565b61145e91503d806000833e61130b8183610a85565b38610c5a565b346101be5760403660031901126101be57602060ff6114b56114846103e1565b61148c6103f7565b6001600160a01b0391821660009081526005865260408082209290931681526020919091522090565b54166040519015158152f35b6000806003193601126103ae57610313906116a0600c916114e483544210612251565b61150e611509611501600d546114fc8134101561228c565b6122c5565b6103e8900490565b600d55565b61151c6001600b5401600b55565b600b549261152a843361239a565b601961153543611c35565b60408051602081018881529240918101919091526bffffffffffffffffffffffff1933606090811b82168184015230901b1660748201526115798160888101610bbf565b5190209160ff83816014819660061a828460051a831b161706166115a789600052600e602052604060002090565b5581601f6115b3610aa6565b9482818560021a828760011a831b16170616865282818560091a828760081a831b16170616602087015261161284601e1a96848660141a93898286831b16170616604082015261160d8d600052600f602052604060002090565b6122f4565b82600b8186168287601b1a831b161706166116378c6000526010602052604060002090565b55828460161a91831b16170616611658896000526011602052604060002090565b55600a1a831b16170616611676846000526012602052604060002090565b55808080347354179e1770a780f2f541f23cb21252de12977d3c5af161169a611ec2565b5061235d565b6040519081529081906020820190565b346101be5760203660031901126101be576116c96103e1565b600a546001600160a01b03906116e29082163314611746565b8116156116f25761046490611791565b60405162461bcd60e51b815260206004820152602660248201527f4f776e61626c653a206e6577206f776e657220697320746865207a65726f206160448201526564647265737360d01b6064820152608490fd5b1561174d57565b606460405162461bcd60e51b815260206004820152602060248201527f4f776e61626c653a2063616c6c6572206973206e6f7420746865206f776e65726044820152fd5b600a80546001600160a01b039283166001600160a01b0319821681179092559091167f8be0079c531659141344cd1fd0a4f28419497f9722a3daafe3b4186f6b6457e0600080a3565b6001600160a01b031680156117fa57600052600360205260406000205490565b60405162461bcd60e51b815260206004820152602a60248201527f4552433732313a2062616c616e636520717565727920666f7220746865207a65604482015269726f206164647265737360b01b6064820152608490fd5b6000908152600260205260409020546001600160a01b031680156118735790565b60405162461bcd60e51b815260206004820152602960248201527f4552433732313a206f776e657220717565727920666f72206e6f6e657869737460448201526832b73a103a37b5b2b760b91b6064820152608490fd5b156118d157565b60405162461bcd60e51b815260206004820152603860248201527f4552433732313a20617070726f76652063616c6c6572206973206e6f74206f776044820152771b995c881b9bdc88185c1c1c9bdd995908199bdc88185b1b60421b6064820152608490fd5b61194081611ace565b15611960576000908152600460205260409020546001600160a01b031690565b60405162461bcd60e51b815260206004820152602c60248201527f4552433732313a20617070726f76656420717565727920666f72206e6f6e657860448201526b34b9ba32b73a103a37b5b2b760a11b6064820152608490fd5b156119c157565b60405162461bcd60e51b815260206004820152603160248201527f4552433732313a207472616e736665722063616c6c6572206973206e6f74206f6044820152701ddb995c881b9bdc88185c1c1c9bdd9959607a1b6064820152608490fd5b60405190611a2d82610a4a565b60008252565b90611a57939291611a4761056e8433611aeb565b611a52838383611c73565b611ef2565b15611a5e57565b60405162461bcd60e51b815280611a7760048201611a7b565b0390fd5b60809060208152603260208201527f4552433732313a207472616e7366657220746f206e6f6e20455243373231526560408201527131b2b4bb32b91034b6b83632b6b2b73a32b960711b60608201520190565b6000908152600260205260409020546001600160a01b0316151590565b611af482611ace565b15611b6d57611b0282611852565b6001600160a01b038281168282168114949091908515611b55575b5050508215611b2b57505090565b6001600160a01b0316600090815260056020526040902060ff9250611b509190610489565b541690565b611b629192939550611937565b161491388080611b1d565b60405162461bcd60e51b815260206004820152602c60248201527f4552433732313a206f70657261746f7220717565727920666f72206e6f6e657860448201526b34b9ba32b73a103a37b5b2b760a11b6064820152608490fd5b15611bce57565b60405162461bcd60e51b8152602060048201526024808201527f4552433732313a207472616e7366657220746f20746865207a65726f206164646044820152637265737360e01b6064820152608490fd5b634e487b7160e01b600052601160045260246000fd5b600019810191908211611c4457565b611c1f565b9060018201809211611c4457565b9060028201809211611c4457565b9060208201809211611c4457565b90611c7d83611852565b6001600160a01b038381169290918216839003611d6157611cd7611d3a92821694611ca9861515611bc7565b611cb4878483611ff8565b611cbd87611db8565b6001600160a01b0316600090815260036020526040902090565b611ce18154611c35565b90556001600160a01b0381166000908152600360205260409020611d058154611c49565b9055611d1b856000526002602052604060002090565b80546001600160a01b0319166001600160a01b03909216919091179055565b7fddf252ad1be2c89b69c2b068fc378daa952ba7f163c4a11628f55a4df523b3ef600080a4565b60405162461bcd60e51b815260206004820152602960248201527f4552433732313a207472616e73666572206f6620746f6b656e2074686174206960448201526839903737ba1037bbb760b91b6064820152608490fd5b600081815260046020526040812080546001600160a01b03191690556001600160a01b03611de583611852565b167f8c5be1e5ebec7d5bd14f71427d1e84f3dd0314c0f7b2291e5b200ac8c7c3b9258280a4565b600082815260046020526040902080546001600160a01b0319166001600160a01b0383161790556001600160a01b0380611e4584611852565b169116907f8c5be1e5ebec7d5bd14f71427d1e84f3dd0314c0f7b2291e5b200ac8c7c3b925600080a4565b908160209103126101be57516102a4816101ac565b6001600160a01b0391821681529116602082015260408101919091526080606082018190526102a49291019061026e565b6040513d6000823e3d90fd5b3d15611eed573d90611ed382610ac5565b91611ee16040519384610a85565b82523d6000602084013e565b606090565b92909190823b15611fac57611f25926020926000604051809681958294630a85bd0160e11b9a8b85523360048601611e85565b03926001600160a01b03165af160009181611f7c575b50611f6e57611f48611ec2565b80519081611f695760405162461bcd60e51b815280611a7760048201611a7b565b602001fd5b6001600160e01b0319161490565b611f9e91925060203d8111611fa5575b611f968183610a85565b810190611e70565b9038611f3b565b503d611f8c565b50505050600190565b634e487b7160e01b600052603260045260246000fd5b90611fd581612148565b6001600160a01b038216611fef57611fed91506121a5565b565b611fed91612110565b9091906001600160a01b038082169182612032575061201683612148565b831680612029575050611fed91506121a5565b03611fef575050565b8185168303612042575b50612016565b61204b816117da565b6000198101908111611c44576120b6906120a7600093878552600760205260408520548381036120bd575b508461208c896000526007602052604060002090565b556001600160a01b0316600090815260066020526040902090565b90600052602052604060002090565b553861203c565b8786526006602052604086208487526020526121096040872054806120f8846120a78760018060a01b03166000526006602052604060002090565b556000526007602052604060002090565b5538612076565b60409061211c816117da565b9260009160018060a01b0316825260066020528282208483526020528083832055815260076020522055565b60085481600052600960205280604060002055600160401b811015610a655760018101806008558110156121a05760086000527ff3f7a9fe364faab93b216da50a3214154f22a0a2b415b23a84c8169e8b636ee30155565b611fb5565b60088054600019929083810190808211611c445760009280845260096020528160408520549310156121a057848452858260208620010154918310156121a057839261220961221a9387865280836020882001556000526009602052604060002090565b556000526009602052604060002090565b55815492831561223d5780840193808510156121a0578383526020832001015555565b634e487b7160e01b82526031600452602482fd5b1561225857565b60405162461bcd60e51b815260206004820152600c60248201526b444f4e45204d494e54494e4760a01b6044820152606490fd5b1561229357565b60405162461bcd60e51b815260206004820152600a60248201526909c9ea8408a9c9eaa8e960b31b6044820152606490fd5b906103ea91828102928184041490151715611c4457565b600281901b91906001600160fe1b03811603611c4457565b805491600392838355808410612334575b50906000526020806000209060005b848110612322575050505050565b83518382015592810192600101612314565b6000838152846020822092830192015b828110612352575050612305565b818155600101612344565b1561236457565b60405162461bcd60e51b815260206004820152600e60248201526d18dbdd5b19081b9bdd081cd95b9960921b6044820152606490fd5b6001600160a01b03811690811561246b576123b483611ace565b61242657806123c6846123fe93611fcb565b6001600160a01b03811660009081526003602052604090206123e88154611c49565b9055611d1b846000526002602052604060002090565b60007fddf252ad1be2c89b69c2b068fc378daa952ba7f163c4a11628f55a4df523b3ef8180a4565b60405162461bcd60e51b815260206004820152601c60248201527f4552433732313a20746f6b656e20616c7265616479206d696e746564000000006044820152606490fd5b606460405162461bcd60e51b815260206004820152602060248201527f4552433732313a206d696e7420746f20746865207a65726f20616464726573736044820152fd5b156124b657565b60405162461bcd60e51b815260206004820152600660248201526508595e1a5cdd60d21b6044820152606490fd5b906124f76020928281519485920161024b565b0190565b6040519061250882610a6a565b6004825263536f636b60e01b6020830152565b6020818303126101be578051906001600160401b0382116101be570181601f820112156101be57805161254d81610ac5565b9261255b6040519485610a85565b818452602082840101116101be576102a4916020808501910161024b565b600b60fa1b815260010190565b60405190606082018281106001600160401b03821117610a6557604052602a8252604082602036910137565b906125bc82610ac5565b6125c96040519182610a85565b82815280926125da601f1991610ac5565b0190602036910137565b9081518110156121a0570160200190565b8015612675576000818181805b6126595750612610816125b2565b935b61261c5750505090565b61262590611c35565b90600a9060308282068101809111611c445760f81b6001600160f81b031916841a61265084876125e4565b53049081612612565b91506000198114611c44576001600a9101910480849291612602565b5060405161268281610a6a565b60018152600360fc1b602082015290565b8015611c44576000190190565b156126a757565b606460405162461bcd60e51b815260206004820152602060248201527f537472696e67733a20686578206c656e67746820696e73756666696369656e746044820152fd5b6126f3612586565b908151156121a0576030602083015381516001908110156121a05790607860218401536029915b80831161272d57506102a49150156126a0565b90600f81169060108210156121a05761276a916f181899199a1a9b1b9c1cb0b131b232b360811b901a61276085876125e4565b5360041c92612693565b919061271a565b60405190606082018281106001600160401b03821117610a6557604052604082527f6768696a6b6c6d6e6f707172737475767778797a303132333435363738392b2f6040837f4142434445464748494a4b4c4d4e4f505152535455565758595a61626364656660208201520152565b8051156128c0576127ef612771565b61280b6128066127ff8451611c57565b6003900490565b6122dc565b9161281d61281884611c65565b6125b2565b92835280815182019060208501935b82821061286e5750505060039051068060011461285d5760021461284e575090565b603d60f81b6000199091015290565b50613d3d60f01b6001199091015290565b9091936004906003809401938451600190603f9082828260121c16880101518553828282600c1c16880101518386015382828260061c168801015160028601531685010151908201530193919061282c565b506102a4611a20565b6128d2906129cf565b6102a4608160405180937f3c73766720786d6c6e733d22687474703a2f2f7777772e77332e6f72672f323060208301527f30302f737667222077696474683d223130383022206865696768743d2231303860408301527f30222076696577426f783d2230203020313038302031303830223e00000000006060830152612962815180926020607b8601910161024b565b8101651e17b9bb339f60d11b607b820152036061810184520182610a85565b6040906102a493928152816020820152019061026e565b916129c1906129b36102a4959360608652606086019061026e565b90848203602086015261026e565b91604081840391015261026e565b6129d881612e46565b9091926129ef816000526011602052604060002090565b54906129fa81612ebb565b9173__$d8604f29f747a182d7154cbbe3703d0759$__91612a25816000526010602052604060002090565b546040805163749e421b60e01b81526004808201939093529760009792969192888a6024818a5af4998a1561131a57612a7b9a8a918291612e2c575b508551809c819263132ffe9960e31b83528a8d8401612981565b03818a5af4998a1561131a57899a612e10575b5083519a630f500e3b60e41b8c52898c80612ab08a8d83019190602083019252565b03818b5af49b8c1561131a578a9c612dee575b5084516313f89b4360e31b808252818b0192835290929173__$1a9ce43643d07b5d2d447f788b54f84bee$__91908c90859081906020015b0381855af493841561131a578c908195612dce575b508751828152808d019687529495939493849081906020015b0381855af492831561131a578c918c918395612db2575b50612b5989519687938493845283019190602083019252565b0381845af493841561131a578b938495612d96575b508a612b8d885196879586948594635a8289c960e01b86528501612998565b03915af493841561131a5788918295612d70575b5090612bba612bd892600052600e602052604060002090565b54845180938192630c0d0b6560e41b83528b83019190602083019252565b038173__$468c35549c0d3f0dce3a9aae9298ebcb6b$__5af494851561131a5788918296612d4e575b50835163c9e3104760e01b81528881019182529596949593948491829081906020015b03915af495861561131a5787928397612d2a575b508351630722ef8960e01b81529081019182529190829081906020015b038173__$b2b9e644a8ce45a89368405a64b815a752$__5af495861561131a578096612d0d575b50505195869560208701612c8f916124e4565b7f3c67207472616e73666f726d3d227472616e736c617465283138302c2031333081526214911f60e91b6020820152602301612cca916124e4565b612cd3916124e4565b612cdc916124e4565b631e17b39f60e11b8152600401612cf2916124e4565b612cfb916124e4565b03601f19810182526102a49082610a85565b612d229296503d8091833e61130b8183610a85565b933880612c7c565b612c559392919750612d45903d8085833e61130b8183610a85565b96909192612c38565b612c2494959650612d68903d8085833e61130b8183610a85565b959493612c01565b612bd892919550612d8d612bba913d8085833e61130b8183610a85565b95919250612ba1565b612dab9195503d8086833e61130b8183610a85565b9338612b6e565b612dc79195503d8085833e61130b8183610a85565b9338612b40565b612b29949550612de7903d8084833e61130b8183610a85565b9493612b10565b612afb92919c50612e08903d808d833e61130b8183610a85565b9b9091612ac3565b612e25919a503d808b833e61130b8183610a85565b9838612a8e565b612e4091503d8084833e61130b8183610a85565b38612a61565b612e52610b8782611ace565b600091818352600f602052604083208054156121a0578352602083205492828152600f602052604081208054600110156121a0578152612ea4600160208320015493600052600f602052604060002090565b8054600210156121a0578152602090206002015490565b612ec7610b8782611ace565b60005260126020526040600020549056fea2646970667358221220642dbcbb65f605e0edc54ab76eed4e51ad0f94e86c03511ccaa3a5b0d747f08964736f6c63430008130033",
  "linkReferences": {
    "contracts/SockBackground/BackgroundLibrary.sol": {
      "BackgroundLibrary": [
        {
          "length": 20,
          "start": 11657
        }
      ]
    },
    "contracts/SockBackground/BackgroundMetadataLibrary.sol": {
      "BackgroundMetadataLibrary": [
        {
          "length": 20,
          "start": 3972
        }
      ]
    },
    "contracts/SockLayoutLibrary.sol": {
      "SockLayoutLibrary": [
        {
          "length": 20,
          "start": 4378
        },
        {
          "length": 20,
          "start": 4437
        },
        {
          "length": 20,
          "start": 4512
        },
        {
          "length": 20,
          "start": 5043
        },
        {
          "length": 20,
          "start": 11880
        }
      ]
    },
    "contracts/SockPattern/PatternLibrary.sol": {
      "PatternLibrary": [
        {
          "length": 20,
          "start": 12261
        }
      ]
    },
    "contracts/SockPattern/PatternMetadataLibrary.sol": {
      "PatternMetadataLibrary": [
        {
          "length": 20,
          "start": 4211
        },
        {
          "length": 20,
          "start": 5233
        }
      ]
    },
    "contracts/SockPin/PinLibrary.sol": {
      "PinLibrary": [
        {
          "length": 20,
          "start": 12136
        }
      ]
    },
    "contracts/SockPin/PinLibraryMetadata.sol": {
      "PinMetadataLibrary": [
        {
          "length": 20,
          "start": 4311
        },
        {
          "length": 20,
          "start": 5144
        }
      ]
    }
  },
  "deployedLinkReferences": {
    "contracts/SockBackground/BackgroundLibrary.sol": {
      "BackgroundLibrary": [
        {
          "length": 20,
          "start": 10749
        }
      ]
    },
    "contracts/SockBackground/BackgroundMetadataLibrary.sol": {
      "BackgroundMetadataLibrary": [
        {
          "length": 20,
          "start": 3064
        }
      ]
    },
    "contracts/SockLayoutLibrary.sol": {
      "SockLayoutLibrary": [
        {
          "length": 20,
          "start": 3470
        },
        {
          "length": 20,
          "start": 3529
        },
        {
          "length": 20,
          "start": 3604
        },
        {
          "length": 20,
          "start": 4135
        },
        {
          "length": 20,
          "start": 10972
        }
      ]
    },
    "contracts/SockPattern/PatternLibrary.sol": {
      "PatternLibrary": [
        {
          "length": 20,
          "start": 11353
        }
      ]
    },
    "contracts/SockPattern/PatternMetadataLibrary.sol": {
      "PatternMetadataLibrary": [
        {
          "length": 20,
          "start": 3303
        },
        {
          "length": 20,
          "start": 4325
        }
      ]
    },
    "contracts/SockPin/PinLibrary.sol": {
      "PinLibrary": [
        {
          "length": 20,
          "start": 11228
        }
      ]
    },
    "contracts/SockPin/PinLibraryMetadata.sol": {
      "PinMetadataLibrary": [
        {
          "length": 20,
          "start": 3403
        },
        {
          "length": 20,
          "start": 4236
        }
      ]
    }
  }
}