{
  "_format": "hh-sol-artifact-1",
  "contractName": "PinMetadataLibrary",
  "sourceName": "contracts/SockPin/PinLibraryMetadata.sol",
  "abi": [
    {
      "inputs": [
        {
          "internalType": "uint256",
          "name": "currentPin",
          "type": "uint256"
        }
      ],
      "name": "GetPinMetadata",
      "outputs": [
        {
          "internalType": "string",
          "name": "",
          "type": "string"
        }
      ],
      "stateMutability": "pure",
      "type": "function"
    },
    {
      "inputs": [
        {
          "internalType": "uint256",
          "name": "currentPin",
          "type": "uint256"
        }
      ],
      "name": "GetPinText",
      "outputs": [
        {
          "internalType": "string",
          "name": "",
          "type": "string"
        }
      ],
      "stateMutability": "pure",
      "type": "function"
    }
  ],
  "bytecode": "0x6080806040523461001a576107f19081610020823930815050f35b600080fdfe6080604052600436101561001257600080fd5b60003560e01c80630c5231271461006157634ca9351e1461003257600080fd5b602036600319011261005c5761005861004c60043561011e565b6040519182918261009e565b0390f35b600080fd5b602036600319011261005c5761005861004c60043561056a565b60005b83811061008e5750506000910152565b818101518382015260200161007e565b604091602082526100be815180928160208601526020868601910161007b565b601f01601f1916010190565b6040810190811067ffffffffffffffff8211176100e657604052565b634e487b7160e01b600052604160045260246000fd5b90601f8019910116810190811067ffffffffffffffff8211176100e657604052565b604080519161012c836100ca565b601e91828452602092838501927f7b2274726169745f74797065223a2250696e222c202276616c7565223a220000845280156000146101a9575050926101a692602a9261018395519586935180928486019061007b565b820190694c69676874696e67227d60b01b9082015203600a8101845201826100fc565b90565b600181036101ef575050926101a6926027926101cf95519586935180928486019061007b565b82019066416c69656e227d60c81b908201520360078101845201826100fc565b60028103610215575050926101a6926027926101cf95519586935180928486019061007b565b6003810361025b575050926101a69260279261023b95519586935180928486019061007b565b82019066436c6f7564227d60c81b908201520360078101845201826100fc565b600481036102a1575050926101a69260279261028195519586935180928486019061007b565b820190664865617274227d60c81b908201520360078101845201826100fc565b600581036102e8575050926101a6926028926102c795519586935180928486019061007b565b82019067466c6f776572227d60c01b908201520360088101845201826100fc565b6006810361032d575050926101a69260269261030e95519586935180928486019061007b565b8201906553746172227d60d01b908201520360068101845201826100fc565b60078103610373575050926101a69260279261035395519586935180928486019061007b565b82019066536b756c6c227d60c81b908201520360078101845201826100fc565b600881036103b8575050926101a69260269261039995519586935180928486019061007b565b8201906546726f67227d60d01b908201520360068101845201826100fc565b600981036103fd575050926101a6926026926103de95519586935180928486019061007b565b8201906542656172227d60d01b908201520360068101845201826100fc565b600a8103610444575050926101a69260289261042395519586935180928486019061007b565b820190674368696c6c69227d60c01b908201520360088101845201826100fc565b600b810361048a575050926101a69260279261046a95519586935180928486019061007b565b82019066536861726b227d60c81b908201520360078101845201826100fc565b600c81036104d0575050926101a6926027926104b095519586935180928486019061007b565b82019066446576696c227d60c81b908201520360078101845201826100fc565b600d036105135750926101a6926026926104f495519586935180928486019061007b565b8201906546697265227d60d01b908201520360068101845201826100fc565b9080939250519360005b828110610557575050654e6f6e65227d60d01b603e850152505060248252606082019067ffffffffffffffff8211838310176100e6575290565b818101840151868201850152830161051d565b80610594575060405161057c816100ca565b60088152674c69676874696e6760c01b602082015290565b600181036105be57506040516105a9816100ca565b600581526420b634b2b760d91b602082015290565b600281036105d357506040516105a9816100ca565b600381036105fd57506040516105e8816100ca565b600581526410db1bdd5960da1b602082015290565b600481036106275750604051610612816100ca565b60058152641219585c9d60da1b602082015290565b60058103610652575060405161063c816100ca565b6006815265233637bbb2b960d11b602082015290565b6006810361067b5750604051610667816100ca565b600481526329ba30b960e11b602082015290565b600781036106a55750604051610690816100ca565b600581526414dadd5b1b60da1b602082015290565b600881036106ce57506040516106ba816100ca565b600481526346726f6760e01b602082015290565b600981036106f757506040516106e3816100ca565b60048152632132b0b960e11b602082015290565b600a8103610722575060405161070c816100ca565b60068152654368696c6c6960d01b602082015290565b600b810361074c5750604051610737816100ca565b6005815264536861726b60d81b602082015290565b600c81036107765750604051610761816100ca565b600581526411195d9a5b60da1b602082015290565b600d0361079d57604051610789816100ca565b60048152634669726560e01b602082015290565b6040516107a9816100ca565b60028152614e6f60f01b60208201529056fea2646970667358221220cc924b54c3c0cdc0a433701bfd8b4b4729bf20f41a00fa4171c78fa72f1a080b64736f6c63430008130033",
  "linkReferences": {},
  "deployedLinkReferences": {}
}