{
  "_format": "hh-sol-artifact-1",
  "contractName": "StyleLibrary",
  "sourceName": "contracts/StyleLibrary.sol",
  "abi": [
    {
      "inputs": [],
      "name": "GetStyle",
      "outputs": [
        {
          "internalType": "string",
          "name": "",
          "type": "string"
        }
      ],
      "stateMutability": "pure",
      "type": "function"
    },
    {
      "inputs": [],
      "name": "HideBackClipStyle",
      "outputs": [
        {
          "internalType": "string",
          "name": "",
          "type": "string"
        }
      ],
      "stateMutability": "pure",
      "type": "function"
    },
    {
      "inputs": [],
      "name": "ShowBackClipStyle",
      "outputs": [
        {
          "internalType": "string",
          "name": "",
          "type": "string"
        }
      ],
      "stateMutability": "pure",
      "type": "function"
    }
  ],
  "bytecode": "0x6080806040523461001a5761030f9081610020823930815050f35b600080fdfe60806040818152600436101561001457600080fd5b600091823560e01c908163160b1e2f14610206575080632051ceb91461012d5763b63e64511461004357600080fd5b816003193601126101295780516a10101010101e3232b3399f60a91b60208201526f1010101010101010101e39ba3cb6329f60811b602b82015277202020202020202020202020202e6261636b436c6970207b60401b603b8201527f20202020202020202020202020202020206f7061636974793a20303b0000000060538201526d202020202020202020202020207d60901b606f820152701010101010101010101e17b9ba3cb6329f60791b607d8201526b10101010101e17b232b3399f60a11b608e820152607a81526101259161011b826102a7565b519182918261025e565b0390f35b5080fd5b50816003193601126101295780516a10101010101e3232b3399f60a91b60208201526f1010101010101010101e39ba3cb6329f60811b602b82015277202020202020202020202020202e6261636b436c6970207b60401b603b8201527f20202020202020202020202020202020206f7061636974793a20313b0000000060538201526d202020202020202020202020207d60901b606f820152701010101010101010101e17b9ba3cb6329f60791b607d8201526b10101010101e17b232b3399f60a11b608e820152607a81526101259161011b826102a7565b9190508260031936011261025a57828252602082019282841067ffffffffffffffff8511176102465750829052601f1990610241818461025e565b030190f35b634e487b7160e01b81526041600452602490fd5b8280fd5b6020808252825181830181905290939260005b82811061029357505060409293506000838284010152601f8019910116010190565b818101860151848201604001528501610271565b60a0810190811067ffffffffffffffff8211176102c357604052565b634e487b7160e01b600052604160045260246000fdfea26469706673582212206e87b3e1fc412f9ac3432b5d3249dafb26ff5863bd8fc2a946edd686d6c74fce64736f6c63430008130033",
  "linkReferences": {},
  "deployedLinkReferences": {}
}