{
  "_format": "hh-sol-artifact-1",
  "contractName": "SockLayoutLibrary",
  "sourceName": "contracts/SockLayoutLibrary.sol",
  "abi": [
    {
      "inputs": [
        {
          "internalType": "uint256",
          "name": "colorInt",
          "type": "uint256"
        }
      ],
      "name": "GetColor",
      "outputs": [
        {
          "internalType": "string",
          "name": "",
          "type": "string"
        }
      ],
      "stateMutability": "pure",
      "type": "function"
    },
    {
      "inputs": [
        {
          "internalType": "uint256",
          "name": "colorInt",
          "type": "uint256"
        }
      ],
      "name": "GetColorName",
      "outputs": [
        {
          "internalType": "string",
          "name": "",
          "type": "string"
        }
      ],
      "stateMutability": "pure",
      "type": "function"
    },
    {
      "inputs": [
        {
          "internalType": "string",
          "name": "towAndHeelColor",
          "type": "string"
        },
        {
          "internalType": "string",
          "name": "cuffColor",
          "type": "string"
        },
        {
          "internalType": "string",
          "name": "color",
          "type": "string"
        }
      ],
      "name": "GetLayout",
      "outputs": [
        {
          "internalType": "string",
          "name": "",
          "type": "string"
        }
      ],
      "stateMutability": "pure",
      "type": "function"
    },
    {
      "inputs": [
        {
          "internalType": "uint256",
          "name": "towAndHeelColor",
          "type": "uint256"
        },
        {
          "internalType": "uint256",
          "name": "cuffColor",
          "type": "uint256"
        },
        {
          "internalType": "uint256",
          "name": "color",
          "type": "uint256"
        }
      ],
      "name": "GetLayoutMetadata",
      "outputs": [
        {
          "internalType": "string",
          "name": "",
          "type": "string"
        }
      ],
      "stateMutability": "pure",
      "type": "function"
    }
  ],
  "bytecode": "0x6080806040523461001a57610e909081610020823930815050f35b600080fdfe6040608081526004908136101561001557600080fd5b6000803560e01c806357734f6b14610b0e5780635a8289c9146103615780639fc4da181461019f5763d5f11c341461004c57600080fd5b606036600319011261019c57506100666101989235610c33565b9061018e6094610077602435610c33565b93610083604435610c33565b84519586927f7b2274726169745f74797065223a2022546f7720436f6c6f72222c202276616c6020850152643ab2911d1160d91b878501526100cf815180926020604588019101610b34565b83019062089f4b60ea1b918260458201527f7b2274726169745f74797065223a20224375666620436f6c6f72222c20227661604882015265363ab2911d1160d11b6068820152610129825180936020606e85019101610b34565b0190606e8201527f7b2274726169745f74797065223a2022436f6c6f72222c202276616c7565223a6071820152601160f91b6091820152610174825180936020609285019101610b34565b0161227d60f01b6092820152036074810185520183610bb5565b5191829182610b57565b0390f35b80fd5b50916020908160031936011261035d576101989350803590816101e7575050662345423435343560c81b8251916101d583610b83565b60078352820152905191829182610b57565b600182036102155750506608d191104c918d60ca1b82519161020883610b83565b600783528201529061018e565b60028203610236575050662346463841303160c81b82519161020883610b83565b60038203610257575050662346444544354560c81b82519161020883610b83565b81036102755750662342344538343760c81b82519161020883610b83565b60058103610295575066119b9820a299a360c91b82519161020883610b83565b600681036102b5575066119c9c2198a32360c91b82519161020883610b83565b600791908281036102e45750662333453342443360c81b908351926102d984610b83565b83528201529061018e565b6008810361030557506611a1a31c18a32360c91b908351926102d984610b83565b600981036103265750662344394439443960c81b908351926102d984610b83565b600a03610345576611a3232323232360c91b908351926102d984610b83565b660233030303030360cc1b908351926102d984610b83565b8380fd5b50606036600319011261019c5767ffffffffffffffff928035848111610b0a5761038e9036908301610bd7565b9360243581811161035d576103a69036908401610bd7565b9260443591821161019c57506103be91369101610bd7565b82517f3c67207472616e73666f726d3d227472616e736c617465282d313430202d31306020808301918252631814911f60e11b8387015267040404078e0c2e8d60c31b60448401527f2020202020202020643d224d3738352e39203237352e363236433732352e3039604c8401527f37203234372e383938203636392e323132203233392e383832203636312e3037606c8401527f37203235372e3732314c3631312e343935203336362e343439433633352e3234608c8401527f31203430342e373535203731322e353234203437382e343635203833312e363860ac8401527f31203436362e3835394c3838312e323633203335382e3133433838392e33393860cc8401527f203334302e323932203834362e373032203330332e333533203738352e39203260ec840152671b9a971b191b2d1160c11b61010c84015264010101010160dd1b6101148401819052681010103334b6361e9160b91b610119850181905286519398949692959490939092879161012291610546908290848601908b01610b34565b82010161055290610e24565b03601f19810187526105649087610bb5565b86519585870198899151809261057992610b34565b630101010160e51b90870186810191909152660404078e0c2e8d60cb1b602482018190527f202020202020643d224d3838312e343937203335382e323337433837332e3336602b8301527f32203337362e303736203831372e343737203336382e3036203735362e363734604b8301527f203334302e333332433639352e383731203331322e363035203635332e313736606b8301527f203237352e363636203636312e333131203235372e383237433636392e343435608b8301527f203233392e393839203732352e3333203234382e303035203738362e3133332060ab8301527f3237352e373332433834362e393336203330332e3436203838392e363332203360cb830152771a1817199c9c101c1c18971a1c9b90199a9c1719199bad1160411b60eb8301527f20202020202020202020202066696c6c3d22626c61636b22202f3e000000000061010383015261011e8201527f202020202020643d224d3136382e353039203636372e323633433137352e38336101258201527f32203630362e383537203233302e343231203538322e313039203235362e38206101458201527f3537372e323836433239302e323036203631322e343836203333342e343436206101658201527f3639392e3835203234342e313533203736372e373033433233322e30333820376101858201527f36302e353239203135392e333534203734322e373731203136382e35303920366101a5820152671b1b97191b19ad1160c11b6101c58201526101cd81019190915266103334b6361e9160c91b6101d282018190528251909280870192909188916101d991906107de8284830188610b34565b019081017f2220207374726f6b653d22626c61636b22207374726f6b652d77696474683d2290526901c1110179f10101010160b51b6101f9820152036101e3810188526102030161082f9088610bb5565b8751988997519081888a0161084392610b34565b8701906504078e0c2e8d60d31b948588840152602683017f202020643d224d3630342e3334203739312e323735433733372e3038312037399052604683017f372e303337203733362e303639203637372e313433203733362e3036392036379052606683017f372e313433433639382e333338203637312e313131203631392e3136382036389052751a971a1c99101b181a17199a101b9c9897191b9aad1160511b6086840152609c83015251918260a583016108ff92610b34565b0160a50161090c90610e24565b9182527f20202020643d224d3235362e353932203537372e37344c3437342e373038203560068301527f36342e363131433530342e323536203536322e383332203533302e343037203560268301527f34342e383832203534322e363839203531372e3934394c3631312e373238203360468301527f36362e353535433633352e343735203430342e383631203731322e373537203460668301527f37382e353731203833312e393134203436362e3936354c3733352e383631203660868301527f37372e353937433639382e3133203637312e353635203631382e39362036383560a68301527f2e393436203630342e313333203739312e373239433437312e3339322037383560c68301527f2e393637203235332e363338203737332e383936203234332e3934362037363860e68301527f2e313537433333342e323338203730302e333035203238392e3939392036313261010683015274171c9a1890191a9b171a9c99101a9b9b971b9a2d1160591b61012683015261013b8201528151610142939092610aa39184918685019101610b34565b019081017f22207374726f6b653d22626c61636b22207374726f6b652d77696474683d223890526401110179f160dd1b6101628201526101678101631e17b39f60e11b90520361014b8101835261016b01610afe9083610bb5565b51610198819282610b57565b8280fd5b50602036600319011261019c5750610b296101989235610c33565b905191829182610b57565b60005b838110610b475750506000910152565b8181015183820152602001610b37565b60409160208252610b778151809281602086015260208686019101610b34565b601f01601f1916010190565b6040810190811067ffffffffffffffff821117610b9f57604052565b634e487b7160e01b600052604160045260246000fd5b90601f8019910116810190811067ffffffffffffffff821117610b9f57604052565b81601f82011215610c2e5780359067ffffffffffffffff8211610b9f5760405192610c0c601f8401601f191660200185610bb5565b82845260208383010111610c2e57816000926020809301838601378301015290565b600080fd5b80610c585750604051610c4581610b83565b600381526214995960ea1b602082015290565b60018103610c815750604051610c6d81610b83565b600481526350696e6b60e01b602082015290565b60028103610cac5750604051610c9681610b83565b60068152654f72616e676560d01b602082015290565b60038103610cd75750604051610cc181610b83565b600681526559656c6c6f7760d01b602082015290565b60048103610d015750604051610cec81610b83565b600581526423b932b2b760d91b602082015290565b60058103610d305750604051610d1681610b83565b600a8152692230b9359023b932b2b760b11b602082015290565b60068103610d595750604051610d4581610b83565b6004815263426c756560e01b602082015290565b60078103610d875750604051610d6e81610b83565b60098152684461726b20426c756560b81b602082015290565b60088103610db25750604051610d9c81610b83565b6006815265507572706c6560d01b602082015290565b60098103610ddb5750604051610dc781610b83565b60048152634772617960e01b602082015290565b600a03610e0357604051610dee81610b83565b6005815264576869746560d81b602082015290565b604051610e0f81610b83565b6005815264426c61636b60d81b602082015290565b7f22207374726f6b653d22626c61636b22207374726f6b652d77696474683d22388152631110179f60e11b60208201526024019056fea2646970667358221220269f6b95b6b181b06da9716db2612c2cb2d1a49d3ce645a1a32a6ec2a0ff0e4464736f6c63430008130033",
  "linkReferences": {},
  "deployedLinkReferences": {}
}