{
  "_format": "hh-sol-artifact-1",
  "contractName": "HeartPattern",
  "sourceName": "contracts/SockPattern/Patterns/HeartPattern.sol",
  "abi": [
    {
      "inputs": [],
      "name": "pattern",
      "outputs": [
        {
          "internalType": "string",
          "name": "",
          "type": "string"
        }
      ],
      "stateMutability": "pure",
      "type": "function"
    }
  ],
  "bytecode": "0x6080806040523461001a57610f929081610020823930815050f35b600080fdfe60806040818152600436101561001457600080fd5b600091823560e01c63a96f1c691461002b57600080fd5b82600319360112610efe576035906020937f20202020203c67207472616e73666f726d3d227472616e736c617465283233308583015267161019989814911f60c11b848301527f2020202020202020203c6d61736b2069643d226d61736b305f3130395f35382260488301527f207374796c653d226d61736b2d747970653a616c70686122206d61736b556e6960688301527f74733d227573657253706163654f6e5573652220783d2236302220793d22393560888301527f222077696474683d2235373622206865696768743d22343137223e000000000060a883015281610e546101737104040404040404040404040404078e0c2e8d60731b8060c38501527f2020202020202020202020202020202020643d224d3431322e3539392035313160d58501527f2e313233433432372e303834203430372e373839203530342e3432203339332e60f58501527f373431203534312e323738203339392e3633344c3539382e313138203237342e6101158501527f39394c3633352e313037203139332e383738433531382e373039203230352e326101358501527f3136203434332e323135203133332e323132203432302e3031382039352e37396101558501526101757f33314c3430372e373933203132322e3630324c3335332e313036203234322e35818601527f3234433334302e373839203236392e353333203331342e353239203238372e356101958601527f3032203238342e383932203238392e324c3135372e353133203239362e3439376101b58601527f4c3131352e3032203239382e3933314c37342e36373838203330312e323432436101d58601527f37332e38323839203330312e32392037332e34303032203330322e32393120376101f58601527f332e39373537203330322e393138433130362e343231203333382e32383220316102158601527f34372e363534203432322e3739312036302e37353135203438382e30393743366102358601527f352e35323035203439302e3932203132312e383534203439352e3331332031396102558601527f332e313637203439392e363938433236332e343334203530342e3031382033346102758601527f382e323435203530382e333239203431322e353939203531312e3132335a22006102958601527f202020202020202020202020202020202066696c6c3d22626c61636b22202f3e6102b48601526f1010101010101010101e17b6b0b9b59f60811b6102d48601527f2020202020202020203c67206d61736b3d2275726c28236d61736b305f3130396102e4860152652f9a9c14911f60d11b6103048601528161030a8601527f2020202020202020202020202020202020643d224d3238372e3337382032383761031c8601527f2e353133433238302e313839203238312e363239203236392e3838312032383261033c8601527f2e363834203236342e313439203238392e363837433235392e3532312032393561035c8601527f2e333433203235392e343931203330332e333036203236332e3339392033303961037c8601527f2e323431433235362e383038203330362e353836203234392e3134332033303861039c8601527f2e333031203234342e353135203331332e393536433233382e373832203332306103bc8601527f2e393632203233392e363331203333312e313337203234362e383233203333376103dc8601527f2e303233433235302e343532203333392e393933203235342e323033203334306103fc8601527f2e363431203235382e383537203334302e3535324c3239372e3631332033333761041c8601527f2e32324c3239332e313932203239382e353934433239322e3336203239342e3061043c8601527f3133203239312e303035203239302e3438203238372e333738203238372e353161045c8601526219ad1160e91b61047c8601527f3434322e313631203136352e353831203434342e393537203136312e3832315a6105db61047f8701610f02565b918383527f2020202020202020202020202020202020643d224d3139332e3634342034313460128401527f2e343535433139302e323534203430352e383036203138302e3734392034303160328401527f2e3638203137322e333233203430342e393832433136352e353139203430372e60528401527f363439203136312e353935203431342e353739203136322e303939203432312e60728401527f363637433135372e363531203431362e313236203135302e313237203431332e60928401527f383639203134332e333233203431362e353336433133342e383935203431392e60b28401527f383339203133302e363535203432392e313238203133342e303436203433372e60d28401527f373831433133352e373537203434322e313437203133382e373131203434342e60f28401527f3433342e313536203136382e313432433433382e363934203136372e303938206101127f353438203134322e383133203434362e3734384c3137382e3234203436322e38818601527f3339302e363535203133352e3738344c3339352e373737203137342e3334344c610132917f31314c3139332e3239203432362e393635433139342e383037203432322e353683880152610d0961099e6101746107ec610152987f32203139352e333534203431382e383138203139332e363434203431342e34358a8d01526101729b621aad1160e91b8d82015201610f02565b8b81527f2020202020202020202020202020202020643d224d3339342e3439322034323060128201527f2e353133433430312e363831203431342e363239203431312e3939203431352e60328201527f363834203431372e373231203432322e363837433432322e333439203432382e60528201527f333433203432322e333739203433362e333036203431382e343731203434322e60728201527f323431433432352e303632203433392e353836203433322e373237203434312e60928201527f333031203433372e333536203434362e393536433434332e303838203435332e60b28201527f393632203434322e323339203436342e313337203433352e303437203437302e60d28201527f303233433433312e343138203437322e393933203432372e363637203437332e60f28201527f363431203432332e303133203437332e3535324c3338342e323537203437302e858201527f32324c3338382e363738203433312e353934433338392e3531203432372e3031878201527f33203339302e383635203432332e3438203339342e343932203432302e35313389820152612d1160f11b8b82015201610f02565b8981527f2020202020202020202020202020202020643d224d3436372e3137342032363760128201527f2e353933433436322e373435203235392e343236203435322e3830352032353660328201527f2e353031203434342e383439203236302e383135433433382e3432352032363460528201527f2e323939203433352e333833203237312e363539203433362e3735352032373860728201527f2e363331433433312e363539203237332e363739203432332e3931352032373260928201527f2e333636203431372e343931203237352e383439433430392e3533332032383060b28201527f2e313634203430362e343638203238392e393034203431302e3839382032393860d28201527f2e303734433431332e313334203330322e313936203431362e3336203330342e60f28201527f323135203432302e373031203330352e3839344c3435372e383336203331372e838201527f3437364c3436382e333632203238302e303531433436392e333235203237352e858201527f343935203436392e343037203237312e373132203436372e313734203236372e87820152641a9c99ad1160d91b808a830152610b5c610177809301610f02565b908b82527f2020202020202020202020202020202020643d224d3631362e3137342032303160128301527f2e353933433631312e373435203139332e343236203630312e3830352031393060328301527f2e353031203539332e383439203139342e383135433538372e3432352031393860528301527f2e323939203538342e333833203230352e363539203538352e3735352032313260728301527f2e363331433538302e363539203230372e363739203537322e3931352032303660928301527f2e333636203536362e343931203230392e383439433535382e3533332032313460b28301527f2e313634203535352e343638203232332e393034203535392e3839382032333260d28301527f2e303734433536322e313334203233362e313936203536352e3336203233382e60f28301527f323135203536392e373031203233392e3839344c3630362e383336203235312e858301527f3437364c3631372e333632203231342e303531433631382e333235203230392e878301527f343935203631382e343037203230352e373132203631362e313734203230312e898301528a82015201610f02565b9788527f2020202020202020202020202020202020643d224d3434342e3935372031363160128901527f2e383231433435302e353032203135342e333637203434382e3937322031343460328901527f2e313139203434312e3731203133382e373137433433352e383437203133342e60528901527f333536203432372e3839203133342e363934203432322e313433203133382e3860728901527f3733433432342e3439203133322e313636203432322e343233203132342e353860928901527f38203431362e353539203132302e323236433430392e323936203131342e383260b28901527f34203339392e313731203131362e313433203339332e363234203132332e364360d28901527f3339302e383235203132372e333632203339302e333531203133312e3133392060f2890152870152850152830152601160f91b9082015201610f02565b6c1010101010101010101e17b39f60991b81526810101010101e17b39f60b91b600d8201520360091981018352601f19938491011682019482861067ffffffffffffffff871117610eea5785929391838652818452845191828186015281955b838710610ed25750508394508582601f949501015201168101030190f35b86810182015189880189015295810195889550610eb4565b634e487b7160e01b82526041600452602482fd5b8280fd5b7f202020202020202020202020202020202066696c6c3d2223464234413441222081527f7374726f6b653d22626c61636b22207374726f6b652d77696474683d22382220602082015261179f60f11b60408201526042019056fea2646970667358221220f2ac37d73f76e3da2074852cbc60f364245a5fcfdccc4f0cee1bbc66832ffc2364736f6c63430008130033",
  "linkReferences": {},
  "deployedLinkReferences": {}
}