{
  "_format": "hh-sol-artifact-1",
  "contractName": "PatternMetadataLibrary",
  "sourceName": "contracts/SockPattern/PatternMetadataLibrary.sol",
  "abi": [
    {
      "inputs": [
        {
          "internalType": "uint256",
          "name": "currentPattern",
          "type": "uint256"
        }
      ],
      "name": "GetPatternMetadata",
      "outputs": [
        {
          "internalType": "string",
          "name": "",
          "type": "string"
        }
      ],
      "stateMutability": "pure",
      "type": "function"
    },
    {
      "inputs": [
        {
          "internalType": "uint256",
          "name": "currentPattern",
          "type": "uint256"
        }
      ],
      "name": "GetPatternText",
      "outputs": [
        {
          "internalType": "string",
          "name": "",
          "type": "string"
        }
      ],
      "stateMutability": "pure",
      "type": "function"
    }
  ],
  "bytecode": "0x6080806040523461001a576107a89081610020823930815050f35b600080fdfe6080604052600436101561001257600080fd5b60003560e01c80635cb9c285146100615763d557b2861461003257600080fd5b602036600319011261005c5761005861004c600435610533565b6040519182918261007b565b0390f35b600080fd5b602036600319011261005c5761005861004c6004356101f2565b6020808252825181830181905290939260005b8281106100b057505060409293506000838284010152601f8019910116010190565b81810186015184820160400152850161008e565b60405190606082018281106001600160401b038211176100e75760405260288252565b634e487b7160e01b600052604160045260246000fd5b60405190606082018281106001600160401b038211176100e75760405260298252565b60405190606082018281106001600160401b038211176100e757604052602c8252565b60405190606082018281106001600160401b038211176100e757604052602a8252565b60405190604082018281106001600160401b038211176100e75760405260048252565b60405190604082018281106001600160401b038211176100e75760405260058252565b60405190604082018281106001600160401b038211176100e75760405260088252565b60405190604082018281106001600160401b038211176100e75760405260068252565b8061022957506102006100fd565b6000805160206107538339815191526020820152683a22426f6e6573227d60b81b604082015290565b600181036102825750604051606081018181106001600160401b038211176100e7576040526030815260008051602061075383398151915260208201526f3a224368696c6c69205061706572227d60801b604082015290565b600281036102bd5750610293610143565b6000805160206107538339815191526020820152693a22436c6f756473227d60b01b604082015290565b600381036102f657506102ce6100c4565b6000805160206107538339815191526020820152673a2246697265227d60c01b604082015290565b6004810361034e5750604051606081018181106001600160401b038211176100e757604052602f815260008051602061075383398151915260208201526e3a224865617274427265616b73227d60881b604082015290565b60058103610389575061035f610143565b6000805160206107538339815191526020820152693a22486561727473227d60b01b604082015290565b600681036103c4575061039a610143565b6000805160206107538339815191526020820152693a224c656d6f6e73227d60b01b604082015290565b6007810361040157506103d5610120565b60008051602061075383398151915260208201526b3a224c69676874696e67227d60a01b604082015290565b6008810361043e5750610412610120565b60008051602061075383398151915260208201526b3a225261696e626f7773227d60a01b604082015290565b60098103610478575061044f6100fd565b6000805160206107538339815191526020820152683a225374617273227d60b81b604082015290565b600a81036104cc5750604051606081018181106001600160401b038211176100e757604052602b815260008051602061075383398151915260208201526a3a2253747269706573227d60a81b604082015290565b600b03610503576104db6100c4565b6000805160206107538339815191526020820152673a2255666f73227d60c01b604082015290565b61050b6100c4565b6000805160206107538339815191526020820152673a224e6f6e65227d60c01b604082015290565b806105525750610541610189565b64426f6e657360d81b602082015290565b600181036105935750604051604081018181106001600160401b038211176100e757604052600c81526b21b434b63634902830b832b960a11b602082015290565b600281036105b657506105a46101cf565b65436c6f75647360d01b602082015290565b600381036105d757506105c7610166565b634669726560e01b602082015290565b600481036106175750604051604081018181106001600160401b038211176100e757604052600b81526a4865617274427265616b7360a81b602082015290565b6005810361063a57506106286101cf565b6548656172747360d01b602082015290565b6006810361065d575061064b6101cf565b654c656d6f6e7360d01b602082015290565b60078103610682575061066e6101ac565b674c69676874696e6760c01b602082015290565b600881036106a757506106936101ac565b675261696e626f777360c01b602082015290565b600981036106c957506106b8610189565b64537461727360d81b602082015290565b600a81036107055750604051604081018181106001600160401b038211176100e75760405260078152665374726970657360c81b602082015290565b600b0361072457610714610166565b6355666f7360e01b602082015290565b604051604081018181106001600160401b038211176100e75760405260028152614e6f60f01b60208201529056fe7b2274726169745f74797065223a225061747465726e222c202276616c756522a264697066735822122012e02331d775ccebf4d1b83d7133c9fa0835a525295f20c784e6eb6fd8ff858d64736f6c63430008130033",
  "linkReferences": {},
  "deployedLinkReferences": {}
}