{
  "_format": "hh-sol-artifact-1",
  "contractName": "PinLibrary",
  "sourceName": "contracts/SockPin/PinLibrary.sol",
  "abi": [
    {
      "inputs": [
        {
          "internalType": "uint256",
          "name": "currentPin",
          "type": "uint256"
        }
      ],
      "name": "GetPin",
      "outputs": [
        {
          "internalType": "string",
          "name": "",
          "type": "string"
        }
      ],
      "stateMutability": "pure",
      "type": "function"
    }
  ],
  "bytecode": "0x6080806040523461001b57615dd3908162000021823930815050f35b600080fdfe604060808152600436101561001357600080fd5b60003560e01c63c0d0b6501461002857600080fd5b6020908160031936011261008b57610041600435610b35565b918151928184928352815191828285015260005b838110610075575050600083830185015250601f01601f19168101030190f35b8181018301518782018701528694508201610055565b600080fd5b90601f801991011681019081106001600160401b038211176100b157604052565b634e487b7160e01b600052604160045260246000fd5b7f3c67207472616e73666f726d3d227472616e736c617465283537322c2032343081526214911f60e91b602082015260230190565b7f20202020203c7061746820643d224d37382e313332312033352e35333037433781527f362e393638372033352e313733382036302e343630312033302e31363620353960208201527f2e323931392032392e393138374c36302e3339392032322e3436344336302e3360408201527f39392031332e303735312035322e3738373920352e34363339392034332e333960608201527f3920352e34363339394333342e3031303220352e34363339392032362e33393960808201527f2031332e303735322032362e3339392032322e3436344332362e33393920323760a08201527f2e3036392032382e32332033312e323436332033312e323033372033342e333060c08201527f37374332322e363039382033392e313933352031352e37392034372e3234353960e08201527f2031322e363630352035372e3434373143382e343438372037312e31373634206101008201527f31312e393533382038352e343331332032302e363939352039352e35333834436101208201527f32362e30383633203130302e3638362034302e34303336203131312e323437206101408201527f35342e35373835203131322e3330384335362e35313234203131322e393031206101608201527f35382e34353637203131332e3334312036302e33393835203131332e363334436101808201527f37392e37323538203131362e3535332039382e37393834203130342e393531206101a08201527f3130342e3730392038352e36383534433130362e3937372037382e32393031206101c08201527f3130372e3030372037302e37343232203130352e3138352036332e37373233436101e08201527f3130352e3932332036332e38373033203130362e3637372036332e39323039206102008201527f3130372e3434332036332e39323039433131362e3833322036332e39323039206102208201527f3132342e3434332035362e33303937203132342e3434332034362e39323039436102408201527f3132342e3434332033372e35333231203131362e3833322032392e39323039206102608201527f3130372e3434332032392e393230394339392e363634332032392e39323039206102808201527f39332e313036312033352e313434392039312e303835312034322e32373538436102a08201527f38372e333234322033392e333331372038322e393730332033372e30313439206102c08201527f37382e313332312033352e353330375a222066696c6c3d2223464441324634226102e08201527f207374726f6b653d22626c61636b22207374726f6b652d77696474683d22382261030082015261179f60f11b6103208201526103220190565b7f20202020203c7061746820643d224d35362e383430362036362e39343238433581527f332e3334372037352e333835332035362e3232392038332e373332372036322e60208201527f303930352038362e313538324336372e3935322038382e353833382037352e3860408201527f3839372038342e373133382037392e333833342037362e323731324338322e3860608201527f37372036372e383238372037392e3939352035392e343831332037342e31333360808201527f352035372e303535384336382e3237322035342e363330322036302e3333343260a08201527f2035382e353030322035362e383430362036362e393432385a222066696c6c3d60c08201527f22776869746522207374726f6b653d22626c61636b22207374726f6b652d776960e082015268323a341e911a11179f60b91b6101008201526101090190565b7f20202020203c7061746820643d224d32372e373332322035342e38393739433281527f342e323338362036332e333430342032372e313230362037312e36383737203360208201527f322e393832312037342e313133334333382e383433362037362e35333839203460408201527f362e373831332037322e363638392035302e3237352036342e3232363343353360608201527f2e373638362035352e373833382035302e383836362034372e3433363420343560808201527f2e303235312034352e303130394333392e313633362034322e3538353320333160a08201527f2e323235382034362e343535332032372e373332322035342e383937395a222060c08201527f66696c6c3d22776869746522207374726f6b653d22626c61636b22207374726f60e08201526d35b296bbb4b23a341e911a11179f60911b61010082015261010e0190565b7f20202020203c7061746820643d224d38302e343031362037362e37373133433781527f372e313934322038342e3532322037302e37312038392e313937392036352e3960208201527f3138362038372e323135324336322e313231362038352e363433392036302e3560408201527f3237322038302e333632362036312e363235322037342e333830384c36382e3260608201527f3638312037352e303337374c36332e303530352036392e353931324336362e3260808201527f3537382036312e383430342037322e373432312035372e313634352037372e3560a08201527f3333342035392e313437334338322e333234382036312e31332038332e36303860c08201527f392036392e303230352038302e343031362037362e373731335a22202f3e000060e082015260fe0190565b7f20202020203c7061746820643d224d35312e303539382036332e35353435433481527f372e383532342037312e333035322034312e333638322037352e39383131203360208201527f362e353736382037332e393938344333322e373739382037322e34323731203360408201527f312e313835342036372e313435382033322e323833342036312e3136344c333860608201527f2e393236332036312e383230394c33332e373038372035362e3337343443333660808201527f2e3931362034382e363233372034332e343030332034332e393437372034382e60a08201527f313931372034352e393330354335322e3938332034372e393133322035342e3260c08201527f3637312035352e383033372035312e303539382036332e353534355a22202f3e60e08201526101000190565b7f20202020203c636972636c652063783d2233382e37303032222063793d22383681527f2e373834352220723d22312e393936363422207472616e73666f726d3d22726f60208201527f746174652831372e303534382033382e373030322038362e373834352922202f6040820152601f60f91b606082015260610190565b7f20202020203c636972636c652063783d2234352e30363335222063793d22383881527f2e373336362220723d22312e393936363422207472616e73666f726d3d22726f60208201527f746174652831372e303534382034352e303633352038382e373336362922202f6040820152601f60f91b606082015260610190565b7f3c67207472616e73666f726d3d227472616e736c617465283536302c2032343081526214911f60e91b602082015260230190565b7f3c67207472616e73666f726d3d227472616e736c617465283539302c2032353081526214911f60e91b602082015260230190565b80610c8357506040517f3c67207472616e73666f726d3d227472616e736c617465283539302c2032353460208201526214911f60e91b604082015264078e0c2e8d60db1b60438201527f20202020643d224d38382e383432362032302e323639334c35392e303739352060488201527f342e393431314c32312e303038362034302e393832394c33332e39313739203460688201527f372e363331324c332e31353133362038302e393432354c36382e30303431203460888201527f362e363336344c35342e373336332033392e383033334c38382e38343236203260a88201527f302e323639335a222066696c6c3d222346464630363622207374726f6b653d2260c88201527f626c61636b22207374726f6b652d77696474683d2238222f3e3c2f673e00000060e882015260e5815261012081018181106001600160401b038211176100b15760405290565b6001810361119c57506040516111996103db82610ca260208201610b00565b7f20202020203c7061746820643d224d32392e373038312039332e35333933433481527f302e323039362039382e363538382035322e373637362039352e32363333203660208201527f332e303830362038392e313736324337332e353236312038332e30313039203860408201527f322e393134342037332e333938332038372e353530382036332e38383737433960608201527f362e393839332034342e353236372038382e393435362032312e31383031203660808201527f392e353834362031312e373431364335302e3232333620322e3330333039203260a08201527f362e3837372031302e333436392031372e343338352032392e3730373943313260c08201527f2e383032312033392e323138352031312e303132322035322e3533353320313260e08201527f2e353839332036342e353631364331342e313436342037362e343335342031396101008201527f2e323036372038382e343139392032392e373038312039332e353339335a22206101208201527f66696c6c3d222342344538343722207374726f6b653d22626c61636b222073746101408201526f3937b5b296bbb4b23a341e911c11179f60811b6101608201527f20202020203c656c6c697073652063783d2233372e37383033222063793d22346101708201527f332e36383732222072783d2231322e35222072793d22392e3522207472616e736101908201527f666f726d3d22726f746174652837342e323532352033372e373830332034332e6101b0820152681b1c1b99149110179f60b91b6101d08201527f20202020203c656c6c697073652072783d2231322e35222072793d22392e35226101d98201527f207472616e73666f726d3d226d6174726978282d302e39323533383220302e336101f98201527f373930333620302e33373930333620302e3932353338322036342e37343635206102198201526b1a9b171c19991c149110179f60a11b6102398201527f20202020203c636972636c652063783d2233382e31313238222063793d2233396102458201527f2e373836352220723d223222207472616e73666f726d3d22726f7461746528326102658201527f352e393839332033382e313132382033392e3738363529222066696c6c3d222361028582015268221ca21ca21c91179f60b91b6102a58201527f20202020203c636972636c652063783d2236332e32383037222063793d2235326102ae8201527f2e3035362220723d223222207472616e73666f726d3d22726f746174652832356102ce8201527f2e393839332036332e323830372035322e30353629222066696c6c3d222344396102ee82015266221ca21c91179f60c91b61030e8201527f20202020203c636972636c652063783d2234312e31383535222063793d2236356103158201527f2e313835312220723d22312e373439303622207472616e73666f726d3d22726f6103358201527f746174652831372e303534382034312e313835352036352e313835312922202f610355820152601f60f91b61037582018190527f20202020203c636972636c652063783d2234362e37353938222063793d2236366103768301527f2e383935312220723d22312e373439303622207472616e73666f726d3d22726f6103968301527f746174652831372e303534382034362e373539382036362e383935312922202f6103b68301526103d6820152631e17b39f60e11b6103d7820152036103bb810184520182610090565b90565b6002810361168357506040516111996103c3826111bb60208201610b00565b6501e3830ba34160d51b81527f202020643d224d32392e373038312039332e353339334334302e32303936203960068201527f382e363538382035322e373637362039352e323633332036332e30383036203860268201527f392e313736324337332e353236312038332e303130392038322e39313434203760468201527f332e333938332038372e353530382036332e383837374339362e39383933203460668201527f342e353236372038382e393435362032312e313830312036392e35383436203160868201527f312e373431364335302e3232333620322e33303330392032362e38373720313060a68201527f2e333436392031372e343338352032392e373037394331322e3830323120333960c68201527f2e323138352031312e303132322035322e353335332031322e3538393320363460e68201527f2e353631364331342e313436342037362e343335342031392e323036372038386101068201527f2e343139392032392e373038312039332e353339335a2220202066696c6c3d226101268201527f2342344538343722207374726f6b653d22626c61636b22207374726f6b652d776101468201526734b23a341e911c1160c11b61016682015261179f60f11b61016e8201527f3c656c6c697073652063783d2233372e37383033222063793d2234332e3638376101708201527f32222072783d2231322e35222072793d22392e3522207472616e73666f726d3d6101908201527f22726f746174652837342e323532352033372e373830332034332e36383732296101b082015264111010179f60d91b6101d08201527f3c656c6c697073652072783d2231322e35222072793d22392e3522207472616e6101d58201527f73666f726d3d226d6174726978282d302e39323533383220302e3337393033366101f58201527f20302e33373930333620302e3932353338322036342e373436352035362e383361021582015267191c14911010179f60c11b6102358201527f3c636972636c652063783d2233382e31313238222063793d2233392e3738363561023d8201527f2220723d223222207472616e73666f726d3d22726f746174652832352e39383961025d8201527f332033382e313132382033392e3738363529222066696c6c3d2223443944394461027d820152641c9110179f60d91b61029d8201527f3c636972636c652063783d2236332e32383037222063793d2235322e303536226102a28201527f20723d223222207472616e73666f726d3d22726f746174652832352e393839336102c28201527f2036332e323830372035322e30353629222066696c6c3d2223443944394439226102e28201526210179f60e91b6103028201527f3c636972636c652063783d2234312e31383535222063793d2236352e313835316103058201527f2220723d22312e373439303622207472616e73666f726d3d22726f746174652861032582018190527f31372e303534382034312e313835352036352e31383531292220202f3e0000006103458301527f3c636972636c652063783d2234362e37353938222063793d2236362e383935316103628301526103828201527f31372e303534382034362e373539382036362e38393531292220202f3e0000006103a2820152631e17b39f60e11b6103bf820152036103a3810184520182610090565b600381036119f257506040517f3c67207472616e73666f726d3d227472616e736c617465283536302c2032363060208201526214911f60e91b60408201527f2020203c7061746820643d224d3130362e3732382033332e393132334c31303560438201527f2e3138312033372e373238324c3130392e30342033392e31363435433131382e60638201527f3932332034322e38343238203132342e3938372035332e34303435203132322e60838201527f3738362036342e32393235433132302e3335312037362e33343137203130382e60a38201527f37362038342e303738332039362e393738392038312e363937314c32322e343160c38201527f39372036362e363237314331302e363338352036342e3234353820322e39363260e38201527f322035322e3631343820352e33393736332034302e3536353643372e383333306101038201527f352032382e353136332031392e3432342032302e373739372033312e323035326101238201527f2032332e313630394c33312e323038312032332e313631354c33352e303639206101438201527f32332e393431394c33352e393038362032302e303933344333382e31383938206101638201527f392e36333639322034382e3331373520322e39363938392035382e35393939206101838201527f352e30343832324336332e3230383820352e39373937372036372e30393036206101a38201527f382e35303434332036392e383130382031312e393630334c37322e35333438206101c38201527f31352e343230394c37352e373138312031322e333737354338302e31343735206101e38201527f382e31343238322038362e3433303620362e30393539382039322e37383636206102038201527f372e3338303637433130332e31363920392e3437393136203130392e393433206102238201527f31392e37333235203130372e3739342033302e33363437433130372e353434206102438201527f33312e363034203130372e3138342033322e37383838203130362e37323820336102638201527f332e393132335a222066696c6c3d22776869746522207374726f6b653d22626c6102838201527730b1b5911039ba3937b5b296bbb4b23a341e911c1110179f60411b6102a3820152631e17b39f60e11b6102bb82015261029f81526102c081018181106001600160401b038211176100b15760405290565b600490808203611c1057505060405161119961019082611a1460208201610acb565b7f20203c7061746820643d224d39362e353839372035302e39373537433130302e81527f3836342033372e3735332039332e383037372032332e393830392038302e393660208201527f38352031392e383330384337302e363031312031362e343739362035392e353260408201527f31332032302e373839392035332e333936342032392e343733334335332e353160608201527f30312031382e383438322034362e3936393620392e313135352033362e36303260808201527f3120352e37363432394332332e3736303420312e36313333312031302e30383460a08201527f3120382e333536323420352e38303833322032312e3538333943332e3635303860c08201527f362032382e3235383420342e37383530332033332e3833333220372e3433323360e08201527f342034302e323632344c33332e3038342039322e333836334c38342e333437356101008201527f2036352e313234364339302e323630392036312e343632362039342e343333396101208201527f2035372e363435312039362e353839372035302e393735375a222066696c6c3d6101408201527f222346423441344122207374726f6b653d22626c61636b22207374726f6b652d6101608201526b3bb4b23a341e911c1110179f60a11b610180820152631e17b39f60e11b61018c82015203610170810184520182610090565b600581036124295750604080517f3c67207472616e73666f726d3d227472616e736c617465283536302c2032333060208201526214911f60e91b918101919091527f3c7061746820643d224d36322e32323437203130332e3532384336312e34383660438201527f33203130322e3530372036302e38333336203130312e3336372036302e32353760638201527f39203130302e3135314335392e36393231203130312e3336332035392e30343460838201527f34203130322e3530322035382e33303234203130332e3532374c35382e33303260a38201527f33203130332e3532384335302e38373536203131332e37392033362e3535363460c38201527f203131362e3037322032362e33323439203130382e3630394331362e3130323960e38201527f203130312e3135322031332e3834342038362e383030322032312e32363336206101038201527f37362e3534374332312e393837362037352e353436352032322e3836343220376101238201527f342e363137382032332e383433362037332e373537354332322e3439393420376101438201527f332e353432332032312e323231382037332e323436382032302e3034303520376101638201527f322e3836313443382e30313234372036382e3933373620312e343531363820356101838201527f352e3938303920352e33353030382034332e393334344c352e333530303920346101a38201527f332e3933343443392e32353037362033312e383831342032322e3135383420326101c38201527f352e323633332033342e313933352032392e313839344333352e3338373320326101e38201527f392e353738392033362e353933332033302e313338352033372e3738393420336102038201527f302e383231314333372e353038352032392e353131332033372e3334373220326102238201527f382e323134352033372e333437322032362e393631334333372e3334373220316102438201527f342e323935322034372e3537383220332e39393939332036302e3233323720336102638201527f2e39393939334337322e3838373320332e39393939332038332e3131383320316102838201527f342e323935322038332e313138332032362e393631334338332e3131383320326102a38201527f382e323037342038322e393538372032392e343936362038322e3638303820336102c38201527f302e373938384338332e383633382033302e313330352038352e3036323820326102e38201527f392e353739372038362e323539312032392e313839344c38372e3439393720336103038201527f322e393932324c38362e323539322032392e313839344339382e3239343520326103238201527f352e32363333203131312e3230322033312e38383134203131352e31303320346103438201527f332e393334344c3131312e3239372034352e3136364c3131352e3130332034336103638201527f2e39333434433131392e3030312035352e39383039203131322e34342036382e6103838201527f39333736203130302e3431322037322e383631344339392e323438382037332e6103a38201527f3234312039372e393933382037332e353033362039362e363836392037332e366103c38201527f3732394339372e3635382037342e353736372039382e353331322037352e35336103e38201527f35372039392e3236332037362e35343731433130362e3638332038362e3830306104038201527f32203130342e343234203130312e3135322039342e32303139203130382e36306104238201527f394338332e39373033203131362e3037322036392e36353131203131332e37396104438201527f312036322e32323437203130332e3532385a4d36322e32323437203130332e356104638201527f32384c36352e34363532203130312e3138334c36322e32323437203130332e356104838201527f32385a4d36312e353737322036332e3436364336312e333439392036332e35396104a38201527f32342036312e313236372036332e373331332036302e393039322036332e38386104c38201527f33384c36302e373430342036332e373830374336302e323431362036332e34376104e38201527f36312035392e373034372036332e323539392035392e313639382036332e31306105038201527f35374335392e343234322036322e333435352035392e353432352036312e35376105238201527f36382035392e353734342036302e383431364335392e373834372036302e38366105438201527f392036302e303034362036302e383834392036302e323332372036302e3838346105638201527f394336302e353832372036302e383834392036302e393133342036302e3834376105838201527f362036312e323139332036302e373838344336312e323137312036312e3639386105a38201527f342036312e333234362036322e353938382036312e353737322036332e3436366105c3820152612d1160f11b6105e38201527f2066696c6c3d22776869746522207374726f6b653d22626c61636b22207374726105e58201527f6f6b652d77696474683d223822202f3e3c636972636c652063783d2235392e376106058201527f323636222063793d2236322e352220723d2232332e35222066696c6c3d2223466106258201527f444544354522207374726f6b653d22626c61636b22207374726f6b652d776964610645820152683a341e911c1110179f60b91b610665820152631e17b39f60e11b61066e8201526106528152906106808201906001600160401b03821183831017612414575060405290565b604190634e487b7160e01b6000525260246000fd5b600681036126475750506040516111996101928261244960208201610b00565b7f2020203c7061746820643d224d34362e3232363620372e39343735354c35382e81527f323837362032382e363535314c35392e313734382033302e313738334c36302e60208201527f383937352033302e353531334c38342e333138372033352e363233314c36382e60408201527f333531372035332e343932394c36372e313737322035342e383037334c36372e60608201527f333534382035362e3536314c36392e373638382038302e343033314c34372e3860808201527f3339362037302e373339364c34362e323236362037302e303238384c34342e3660a08201527f3133362037302e373339364c32322e363834332038302e343033314c32352e3060c08201527f3938332035362e3536314c32352e323735392035342e383037334c32342e313060e08201527f31342035332e343932394c382e31333434322033352e363233314c33312e35356101008201527f35362033302e353531334c33332e323738332033302e313738334c33342e31366101208201527f35352032382e363535314c34362e3232363620372e39343735355a222066696c6101408201527f6c3d222346444544354522207374726f6b653d22626c61636b22207374726f6b6101608201526d3296bbb4b23a341e911c1110179f60911b610180820152631e17b39f60e11b61018e82015203610172810184520182610090565b60078103612fe15750604080517f3c67207472616e73666f726d3d227472616e736c617465283537302c2032353060208201526214911f60e91b918101919091527f20202020203c7061746820643d224d35382e303931352039332e38303436433660438201527f302e303235332039342e333937382036312e393639362039342e38333736203660638201527f332e393131342039352e313330384d36332e393131342039352e31333038433860838201527f332e323338372039382e303439203130322e3331312038362e3434373720313060a38201527f382e3232322036372e31383137433131342e3732362034352e3938303220313060c38201527f322e3832372032332e353235312038312e3634352031372e3032374338302e3460e38201527f3831362031362e363730312036332e3937332031312e363632342036322e38306101038201527f34382031312e343135314334322e3730343220372e31353938342032322e33326101238201527f30332031382e393036342031362e313733342033382e393433354331312e39366101438201527f31362035322e363732372031352e343636372036362e393237362032342e32316101638201527f32342037372e303334384c31382e343831382038382e313530374332302e37376101838201527f352039302e353535392032342e343538372039332e363635342032392e3133346101a38201527f332039362e353432384d36332e393131342039352e313330384c36332e3938356101c38201527f34203130332e3936374335362e39383031203130352e3338392035302e3230356101e38201527f203130342e3739332034342e30353832203130332e3131344d32392e313334336102038201527f2039362e353432384c33322e333932392038352e393230394d32392e313334336102238201527f2039362e353432384333332e333838312039392e313630372033382e343632386102438201527f203130312e3538362034342e30353832203130332e3131344d34342e303538326102638201527f203130332e3131344c34372e3232352039322e3739313522207374726f6b653d6102838201527f22626c61636b22207374726f6b652d77696474683d2238222066696c6c3d22236102a38201526823222323212191179f60b91b6102c38201527f20202020203c7061746820643d224d36302e333534332034382e3433393943356102cc8201527f362e383630372035362e383832342035392e373432372036352e3232393720366102ec8201527f352e363034322036372e363535334337312e343635372037302e30383039203761030c8201527f392e343033342036362e323130382038322e3839372035372e3736383343383661032c8201527f2e333930372034392e333235382038332e353038362034302e3937383420373761034c8201527f2e363437312033382e353532394337312e373835362033362e3132373320363361036c8201527f2e383437392033392e393937332036302e333534332034382e343339395a222061038c8201527f7374726f6b653d22626c61636b22207374726f6b652d77696474683d223422206103ac8201526f3334b6361e9111a3222323212191179f60811b6103cc8201527f20202020203c7061746820643d224d33312e323434392033362e3339344332376103dc8201527f2e373531332034342e383336352033302e363333332035332e313833382033366103fc8201527f2e343934382035352e363039344334322e333536332035382e3033352035302e61041c8201527f3239342035342e313634392035332e373837372034352e373232344335372e3261043c8201527f3831332033372e323739392035342e333939332032382e393332352034382e3561045c8201527f3337372032362e3530374334322e363736322032342e303831342033342e373361047c8201527f38352032372e393531342033312e323434392033362e3339345a22207374726f61049c8201527f6b653d22626c61636b22207374726f6b652d77696474683d2234222066696c6c6104bc8201526b1e9111a3222323212191179f60a11b6104dc8201527f20202020203c7061746820643d224d38332e393134332035382e3236373443386104e88201527f302e373036392036362e303138312037342e323232372037302e3639342036396105088201527f2e343331332036382e373131334336352e363334332036372e31342036342e306105288201527f3339392036312e383538372036352e313337392035352e383736394c37312e376105488201527f3830382035362e353333384c36362e353633322035312e303837334336392e376105688201527f3730352034332e333336352037362e323534382033382e363630362038312e306105888201527f3436312034302e363433344338352e383337352034322e363236312038372e316105a88201527f3231362035302e353136362038332e393134332035382e323637345a22202f3e6105c88201527f20202020203c7061746820643d224d35342e353732352034352e3035303643356105e88201527f312e333635312035322e383031332034342e383830392035372e3437373220346106088201527f302e303839352035352e343934354333362e323932352035332e3932333220336106288201527f342e363938312034382e363431392033352e373936312034322e363630314c346106488201527f322e3433392034332e3331374c33372e323231342033372e383730354334302e6106688201527f343238372033302e313139372034362e3931332032352e343433382035312e376106888201527f3034332032372e343236364335362e343935372032392e343039332035372e376106a88201527f3739382033372e323939382035342e353732352034352e303530365a22202f3e6106c88201527f20202020203c636972636c652063783d2234322e32313239222063793d2236386106e88201527f2e323830362220723d22312e393936363422207472616e73666f726d3d22726f6107088201527f746174652831372e303534382034322e323132392036382e323830362922202f610728820152601f60f91b61074882018190527f20202020203c636972636c652063783d2234382e35373632222063793d2237306107498301527f2e323332372220723d22312e393936363422207472616e73666f726d3d22726f6107698301527f746174652831372e303534382034382e353736322037302e323332372922202f6107898301526107a9820152631e17b39f60e11b6107aa82015261078e8152906107c08201906001600160401b03821183831017612414575060405290565b6008810361350f57505060405161119961042c8261300160208201610acb565b7f20202020203c7061746820643d224d34352e3932383920352e3236333236433381527f342e3736313520312e37353135352032322e38383720382e303232312031392e60208201527f333731352031392e323031354331382e303333392032332e343535332031382e60408201527f303936332032372e383230362031392e323939392033312e373835374331312e60608201527f323233352033382e3930303420332e313231372035302e3337323620352e313160808201527f3434382036332e33353543372e33333432312037372e3831362032312e35393660a08201527f332039312e343130312035342e36323738203130312e3635314338372e35363860c08201527f38203131322e313533203130372e303231203130392e313435203131372e303860e08201527f372039382e35323139433132362e31322038382e39383934203132362e3030396101008201527f2037342e39323134203132332e3435332036342e34363635433132362e3637386101208201527f2036312e39303739203132392e3230332035382e33383235203133302e3533326101408201527f2035342e31353639433133342e3034372034322e39373735203132372e3839396101608201527f2033312e30333934203131362e3733312032372e35323737433130372e3337386101808201527f2032342e353836342039372e353238312032382e353037362039322e353039366101a08201527f2033362e343237394338312e313830382032382e343034372036382e383238206101c08201527f32362e333030342036302e373031322032362e333339334336312e30373939206101e08201527f31372e303033372035352e3235343220382e31393536382034352e39323839206102008201527f352e32363332365a222066696c6c3d222342344538343722207374726f6b653d6102208201527911313630b1b5911039ba3937b5b296bbb4b23a341e911c11179f60311b6102408201527f20202020203c7061746820643d224d32342e383830382035322e32343339433261025a8201527f312e323436392035392e393537382032322e313532382037342e39373535203561027a8201527f362e333833312038362e333937324339392e38333733203130302e383937203161029a8201527f30322e3631342038322e39313138203130362e3536352037392e3530323922206102ba8201527f7374726f6b653d22626c61636b22207374726f6b652d77696474683d223822206102da8201527739ba3937b5b296b634b732b1b0b81e913937bab73211179f60411b6102fa8201527f20202020203c636972636c652063783d2233392e33353137222063793d2232366103128201527f2e323330362220723d2231302e30343822207472616e73666f726d3d22726f746103328201527f61746528362e333934362033392e333531372032362e3233303629222066696c6103528201527f6c3d22776869746522207374726f6b653d22626c61636b22207374726f6b652d806103728301526a3bb4b23a341e911c11179f60a91b90816103928401527f20202020203c636972636c652063783d223131302e313336222063793d22343761039d8401527f2e363434362220723d2231302e30343822207472616e73666f726d3d22726f746103bd8401527f61746528362e33393436203131302e3133362034372e3634343629222066696c6103dd8401526103fd83015261041d820152631e17b39f60e11b6104288201520361040c810184520182610090565b600981036135c457506040519081613529602082016100c7565b613532906100fc565b61353b906104d3565b6135449061061a565b61354d90610766565b61355690610899565b61355f906109cd565b61356890610a4c565b613571906100fc565b61357a906104d3565b6135839061061a565b61358c90610766565b61359590610899565b61359e906109cd565b6135a790610a4c565b631e17b39f60e11b815203601b1981018352016111999082610090565b600a8103613b155750604080517f3c67207472616e73666f726d3d227472616e736c617465283537302c2032323860208201526214911f60e91b918101919091527f20202020203c7061746820643d224d36382e383534352035392e35323738433460438201527f352e3336382039362e343635392031372e3432362039312e3038373720362e3360638201527f393037382038332e373831334331372e33373635203132322e36342039302e3660838201527f363837203133362e3737203130302e3331392039382e30353631433130312e3160a38201527f34392039342e37323438203130312e3539362039312e36363337203130312e3760c38201527f31342038382e38353332433130322e3338372037322e383432322039322e343060e38201527f39392036342e393636372038322e313331372036312e363230394337372e34346101038201527f30392036302e3039342037322e363837332035392e353130352036382e3835346101238201527f352035392e353237385a222066696c6c3d222345423435343522207374726f6b6101438201527f653d22626c61636b22207374726f6b652d77696474683d2234222f3e000000006101638201527f20202020203c7061746820643d224d3130322e3339352039302e31353838433961017f8201527f382e363835342036382e303334352038322e373436392036302e31333732203661019f8201527f372e373035392035382e353331344337352e313931372035352e3738343520386101bf8201527f362e313139332035342e313831342039332e393139392035382e3633393143316101df8201527f30312e3734362035362e33303434203131362e3137312034382e3133313520316101ff8201527f31312e3236322033342e313137324c3132302e3837312033362e36373836433161021f8201527f32312e3534312034312e38383631203131372e3835362035342e31363633203961023f8201527f372e373534352036312e36323639433130322e35362036362e3635313420313061025f8201527f352037352e34393331203130322e3339352039302e313538385a222066696c6c61027f8201526b1e9111a11a229c1a1b91179f60a11b61029f8201527f20202020203c7061746820643d224d39332e393139392035382e3633393143386102ab8201527f362e313139332035342e313831342037352e313931372035352e3738343520366102cb8201527f372e373035392035382e353331344338322e373436392036302e3133373220396102eb8201527f382e363835342036382e30333435203130322e3339352039302e31353838433161030b8201527f30352037352e34393331203130322e35362036362e363531342039372e37353461032b8201527f352036312e363236394d39332e393139392035382e36333931433130312e373461034b8201527f362035362e33303434203131362e3137312034382e31333135203131312e323661036b8201527f322033342e313137324c3132302e3837312033362e36373836433132312e353461038b8201527f312034312e38383631203131372e3835362035342e313636332039372e3735346103ab8201527f352036312e363236394d39332e393139392035382e363339314339352e3330396103cb8201527f372035392e343333332039362e363030332036302e34322039372e37353435206103eb8201527f36312e3632363922207374726f6b653d22626c61636b22207374726f6b652d7761040b8201526934b23a341e911a11179f60b11b61042b820152631e17b39f60e11b6104358201526104198152906104408201906001600160401b03821183831017612414575060405290565b600b81036146ba5750604080517f3c67207472616e73666f726d3d227472616e736c617465283537302c2032363060208201526214911f60e91b918101919091527f20202020203c7061746820643d224d39392e3038352032392e3435313743383360438201527f2e383937322032382e363838382036312e3038352036342e343531322033322e60638201527f3538352036302e3435313243362e31383437362035352e3635313520382e393160838201527f38352034392e3935313820352e30383534312034302e3935313743322e30383560a38201527f31352033362e39353137202d332e37313335342033332e333532312031372e3060c38201527f3836352032302e393532324332322e393135382031372e3437372032392e323460e38201527f37382031352e343339322033352e3538352031342e343035314333332e3538356101038201527f20352e34353234362035322e303835202d322e30343837322035362e353835206101238201527f342e34353137324335332e3431383320362e34383539372034382e31383520316101438201527f312e313934322035322e3538352031332e373533314336322e343030312031346101638201527f2e343737342037302e393835332031362e383635332037362e303836352031386101838201527f2e393532314338342e353836352032312e36313838203130322e3438362032356101a38201527f2e33353231203130362e3038362031382e39353231433131302e3538362031306101c38201527f2e39353231203132352e3538362031332e34353231203132312e3038362031376101e38201527f2e34353231433131362e3538362032312e34353231203132342e3538362035346102038201527f2e39353231203132312e3038362035322e39353231433131382e3238362035316102238201527f2e33353231203131352e3136372034332e36363637203131342e3520343143316102438201527f31352033362e35203131302033302039392e3038352032392e343531375a22206102638201527f66696c6c3d222344394439443922207374726f6b653d22626c61636b222073746102838201526f3937b5b296bbb4b23a341e911991179f60811b6102a38201527f20202020203c7061746820643d224d3130362e3038362031382e3935323143316102b38201527f31302e3538362031302e39353231203132352e3538362031332e3435323120316102d38201527f32312e3038362031372e34353231433131382e3538382032372e3435332031326102f38201527f352e3038352035312e34353132203132312e3038362035322e393531324331316103138201527f372e3838382035342e31353132203131342e3735332034322e343531322031316103338201527f332e3538352033362e34353132433131312e3735322033312e323834382039326103538201527f2e303938382033302e303030382039302e352033324338382e353031352033346103738201527f2e3439392035382e343731332033362e343030322036332e352033304337342e6103938201527f352031362034392e363636322033302e363636372034332032394333382e33336103b38201527f33332033312033322e312033362e312032362e352033342e354332302e3920336103d38201527f322e3920382e37353139322033372e3435313520352e30383534312034302e396103f38201527f35313743322e30383531352033362e39353137202d332e37313335342033332e6104138201527f333532312031372e303836352032302e393532324332322e393135382031372e6104338201527f3437372032392e323437382031352e343339322033352e3538352031342e34306104538201527f35314333332e35383520352e34353234362035322e303835202d322e303438376104738201527f322035362e35383520342e34353137324335332e3431383320362e34383539376104938201527f2034382e3138352031312e313934322035322e3538352031332e3735333143366104b38201527f322e343030312031342e343737342037302e393835332031362e3836353320376104d38201527f362e303836352031382e393532314338342e353836352032312e3631383820316104f38201527f30322e3438362032352e33353231203130362e3038362031382e393532315a226105138201527f2066696c6c3d222339333936394622207374726f6b653d22626c61636b222073610533820152703a3937b5b296bbb4b23a341e911991179f60791b6105538201527f20202020203c7061746820643d224d392e36383234372034392e3735393543396105648201527f2e35393335372034392e3730353120392e35353337382034392e3636373120396105848201527f2e353338392034392e363530374c392e35333336342034392e363334394c362e6105a48201527f36373438352034312e3035383543362e39373134362034302e3539353320372e6105c48201527f34383136312033392e3936393420382e32363231342033392e3235313143392e6105e48201527f35393231322033382e303237312031312e393231392033372e303432362031356106048201527f2e343536362033362e303431314c31352e363133322033352e393936374c31356106248201527f2e373734332033352e393531394331372e363134312033352e343430312031396106448201527f2e373234382033342e393332322032322e313133392033342e333830324832376106648201527f2e3038354832372e313136354c32372e3134382033342e333738324332392e376106848201527f33382033342e323134382033332e323438322033332e353036342033372e39306106a48201527f39322033312e3930394333392e36322033312e333232372034312e34383836206106c48201527f33302e363135372034332e353236362032392e373730334334342e37343931206106e48201527f33332e323732332034342e343839372033372e313033392034322e34313936206107048201527f34302e343231384334302e383435382034322e393434322033382e31383834206107248201527f34352e323331322033342e3230382034362e3835314333322e3134382034372e6107448201527f363839332032392e373334312034382e333438332032362e393337342034382e6107648201527f373635354332362e343630312034382e383336362032352e393731372034382e6107848201527f393030382032352e343732312034382e393537364332302e343130382034392e6107a48201527f353332372031372e3431362034392e393631352031352e353436382035302e326107c48201527f3239324331352e333233342035302e323631322031352e313136312035302e326107e48201527f3930392031342e393233332035302e333138324331332e303438382035302e356108048201527f3834312031322e373237352035302e353838342031322e333434362035302e346108248201527f3835354331322e313733372035302e343339352031312e393231332035302e336108448201527f3931372031312e363738382035302e333435384331312e363130332035302e336108648201527f3332382031312e353432372035302e33322031312e343737392035302e3330376108848201527f344331312e313437372035302e323433332031302e373935372035302e3136396108a48201527f312031302e343634382035302e303733334331302e313235382034392e3937356108c48201527f3120392e38363031342034392e3836383420392e36383234372034392e3735396108e48201527f355a222066696c6c3d22776869746522207374726f6b653d22626c61636b22206109048201527139ba3937b5b296bbb4b23a341e911911179f60711b6109248201527f20202020203c636972636c652063783d2232392e35222063793d2232342e35226109368201526a10391e9119971a9110179f60a91b610956820152631e17b39f60e11b6109618201526109458152906109808201906001600160401b03821183831017612414575060405290565b600c8103615a3b575050604051611199610ff8826146da602082016100c7565b7f20202020203c7061746820643d224d38322e383430332036372e33383633433881527f322e383430332038392e313537342036352e31393133203130362e383036203460208201527f332e34323032203130362e3830364332312e363439203130362e38303620342060408201527f38392e3135373420342036372e3338363343342035352e3530313420392e323560608201527f3935352034342e383434392031372e353738312033372e363137354331342e3960808201527f3934392033352e363035382031312e393033392033312e353236342031302e398060a08301527f3235362032352e3737363143392e39383230392032302e323239372031312e3060c08301527f3034322031332e313238392031362e3334333520342e38323939334331362e3860e08301527f30383520342e31303730392031372e3930333420342e33303535362031382e316101008301527f333420352e31333335384331392e3333363820392e3435332032312e333836336101208301527f2031352e323335312032342e313035372032302e303832314332362e363438346101408301527f2032342e363134322032392e373736382032382e333238362033332e333436316101608301527f2032392e323635314333362e353631382032382e343137352033392e393338336101808301527f2032372e393636312034332e343230322032372e393636314335362e333137206101a08301527f32372e393636312036372e373637332033342e313539342037342e39353932206101c08301527f34332e373334324337372e343833362034342e333630362038312e37303538206101e08301527f34342e343339362038362e333434342034322e373232344338392e30353720346102008301527f312e373138332039312e3931322034302e303939392039342e363533312033376102208301527f2e363137354339362e343737372033352e3936352039382e323531392033332e6102408301527f393239382039392e392033312e343338433130302e3430322033302e363739346102608301527f203130312e3536392033302e3837203130312e3639332033312e3737314331306102808301527f322e3639372033392e30363036203130312e3539382035302e323130382039326102a08301527f2e393134342035362e393431314339302e323130372035392e303336362038366102c08301527f2e373731382036302e373033372038322e343332312036312e363932334338326102e08301527f2e373031312036332e353531342038322e383430332036352e343532362038326103008301527f2e383430332036372e333836335a222066696c6c3d2223464234413441222f3e6103208301527f20202020203c7061746820643d224d31372e353738312033372e3631373543396103408301527f2e32353935352034342e3834343920342035352e3530313420342036372e33386103608301527f363343342038392e313537342032312e363439203130362e3830362034332e346103808301527f323032203130362e3830364336352e31393133203130362e3830362038322e386103a08301527f3430332038392e313537342038322e383430332036372e333836334338322e386103c08301527f3430332036352e343532362038322e373031312036332e353531342038322e346103e08301527f3332312036312e363932334d31372e353738312033372e363137354331342e396104008301526104208201527f3235362032352e373736314d31372e353738312033372e363137354331372e356104408201527f3738312033372e363137352032312e323532352033342e383333322032342e316104608201527f3035372033332e323232314332372e3431382033312e333531382033332e33346104808201527f36312032392e323635312033332e333436312032392e323635314d33332e33346104a08201527f36312032392e323635314333362e353631382032382e343137352033392e39336104c08201527f38332032372e393636312034332e343230322032372e393636314335362e33316104e08201527f372032372e393636312036372e373637332033342e313539342037342e3935396105008201527f322034332e373334324d33332e333436312032392e323635314332392e3737366105208201527f382032382e333238362032362e363438342032342e363134322032342e3130356105408201527f372032302e303832314d37342e393539322034332e373334324337372e3438336105608201527f362034342e333630362038312e373035382034342e343339362038362e3334346105808201527f342034322e373232344d37342e393539322034332e373334324337372e3333346105a08201527f2034372e303932322038322e313533342035352e3338352038322e34333231206105c08201527f36312e363932334d38322e343332312036312e363932334338362e37373138206105e08201527f36302e373033372039302e323130372035392e303336362039322e39313434206106008201527f35362e393431314d38362e333434342034322e373232344338362e39323834206106208201527f34362e333136332038392e30362035342e313931342039322e393134342035366106408201527f2e393431314d38362e333434342034322e373232344338392e3035372034312e6106608201527f373138332039312e3931322034302e303939392039342e363533312033372e366106808201527f3137354339362e343737372033352e3936352039382e323531392033332e39326106a08201527f39382039392e392033312e343338433130302e3430322033302e3637393420316106c08201527f30312e3536392033302e3837203130312e3639332033312e373731433130322e6106e08201527f3639372033392e30363036203130312e3539382035302e323130382039322e396107008201527f3134342035362e393431314d31302e393235362032352e3737363143392e39386107208201527f3230392032302e323239372031312e303034322031332e313238392031362e336107408201527f34333520342e38323939334331362e3830383520342e31303730392031372e396107608201527f30333420342e33303535362031382e31333420352e31333335384331392e33336107808201527f363820392e3435332032312e333836332031352e323335312032342e313035376107a08201527f2032302e303832314d31302e393235362032352e373736314331342e313336396107c08201527f2032362e363532312032312e323638362032362e373339372032342e313035376107e08201527f2032302e30383231222066696c6c3d222346423441344122207374726f6b653d6108008201527911313630b1b5911039ba3937b5b296bbb4b23a341e911c11179f60311b6108208201527f20202020203c7061746820643d224d34352e393630382038392e33323632433461083a8201527f382e313432332038382e393234312035302e333831342038382e32363532203561085a8201527f322e363530372038372e323930364335332e333934392038362e39373131203561087a8201527f342e323330362038372e353832392035342e31312038382e333833384c35332e61089a8201527f3031312039352e363830344335322e383739392039362e353530382035312e376108ba8201527f3639342039362e383339342035312e3233312039362e313433314c34352e39366108da8201527f30382038392e333236325a4d34352e393630382038392e333236324333392e306108fa8201527f3737352039302e353934392033322e373638312038392e333036352032372e3861091a8201527f3935312038372e333037324d32372e383935312038372e333037324332352e3161093a8201527f3835352038362e313935352032322e393139392038342e383633392032312e3261095a8201527f3436382038332e363239394332302e363832342038332e323133362031392e3861097a8201527f3535372038332e343338372031392e363232312038342e314c31362e3931373461099a8201527f2039312e373538364331362e363036322039322e363339382031372e353636326109ba8201527f2039332e343238332031382e333730322039322e393531394c32372e383935316109da8201527f2038372e333037325a222066696c6c3d22776869746522207374726f6b653d226109fa82015278313630b1b5911039ba3937b5b296bbb4b23a341e911a11179f60391b610a1a8201527f20202020203c7061746820643d224d34362e393237382036302e363536314334610a338201527f332e383938392036372e393735362034362e343239332037352e313131312035610a538201527f312e333932342037372e313634394335362e333535352037392e323138372036610a738201527f332e313838312037352e393537372036362e3231372036382e36333832433639610a938201527f2e323435392036312e333138372036362e373135352035342e31383331203631610ab38201527f2e373532342035322e313239334335362e373839332035302e30373536203439610ad38201527f2e393536372035332e333336362034362e393237382036302e363536315a2220610af38201527f66696c6c3d22776869746522207374726f6b653d22626c61636b22207374726f80610b138301526d35b296bbb4b23a341e911a11179f60911b9081610b338401527f20202020203c7061746820643d224d32312e343238382035302e313034334331610b418401527f382e333939392035372e343233382032302e393330332036342e353539342032610b618401527f352e383933342036362e363133314333302e383536342036382e363636392033610b818401527f372e363839312036352e343035392034302e3731382035382e30383634433433610ba18401527f2e373436392035302e373636392034312e323136342034332e36333134203336610bc18401527f2e323533342034312e353737364333312e323930332033392e35323338203234610be18401527f2e343537372034322e373834382032312e343238382035302e313034335a2220610c01840152610c21830152610c418201527f20202020203c7061746820643d224d36372e333338352036392e313731374336610c4f8201527f342e353238382037352e393631342035382e383438362038302e303537352035610c6f8201527f342e363531332037382e333230364335312e333235322037362e393434322034610c8f8201527f392e393238342037322e333137372035302e383930332036372e303737374c35610caf8201527f362e373039352036372e363533314c35322e313338392036322e383832433534610ccf8201527f2e393438352035362e303932332036302e363238372035312e39393632203634610cef8201527f2e3832362035332e3733334336392e303233322035352e343639392037302e31610d0f8201527f3438312036322e333832312036372e333338352036392e313731375a22202f3e610d2f8201527f20202020203c7061746820643d224d34312e363334342035372e353933364333610d4f8201527f382e383234372036342e333833332033332e313434352036382e343739342032610d6f8201527f382e393437322036362e373432354332352e363231312036352e333636312032610d8f8201527f342e323234332036302e373339362032352e313836312035352e343939354c33610daf8201527f312e303035342035362e3037354c32362e343334382035312e33303338433239610dcf8201527f2e323434342034342e353134322033342e393234362034302e3431382033392e610def8201527f313231392034322e313534394334332e333139312034332e383931382034342e610e0f8201527f3434342035302e383033392034312e363334342035372e353933365a22202f3e610e2f8201527f20202020203c656c6c697073652063783d2232372e31323333222063793d2237610e4f8201527f362e37353439222072783d22352e3537373535222072793d22312e3337373731610e6f8201527f22207472616e73666f726d3d22726f7461746528312e30393836342032372e31610e8f8201526f191999901b9b171b9a9a1c949110179f60811b610eaf8201527f20202020203c656c6c697073652072783d22352e3537373535222072793d2231610ebf8201527f2e333737373122207472616e73666f726d3d226d6174726978282d302e383932610edf8201527f323034202d302e343531363333202d302e34353136333320302e383932323034610eff82015274101a1817191a9c1c901c18171b9b981b949110179f60591b610f1f8201527f20202020203c636972636c652063783d2233332e33343038222063793d223733610f348201527f2e303735372220723d22312e373439303622207472616e73666f726d3d22726f610f548201527f746174652831372e303534382033332e333430382037332e303735372922202f610f74820152601f60f91b610f948201527f20202020203c636972636c652063783d2233382e393135222063793d2237342e610f958201527f373835372220723d22312e373439303622207472616e73666f726d3d22726f74610fb58201527f6174652831372e303534382033382e3931352037342e373835372922202f3e00610fd5820152631e17b39f60e11b610ff482015203610fd8810184520182610090565b600d03615d77575060405161119961028282615a59602082016100c7565b7f20202020203c7061746820643d224d34342e393734312032312e39343032433181527f322e343538382033362e3334363120372e36343431312036302e30323531203160208201527f332e373938332038312e313837354332322e323338372039392e31333338203460408201527f332e37393835203130352e3539382035322e30363232203130352e363139433160608201527f30332e3339203130332e333037203130392e3331382035372e3937303520383760808201527f2e373536372032302e363938384338312e393739392034322e3231303820373060a08201527f2e363330382035392e313430362035322e363037392035332e3037333743333860c08201527f2e313839362034382e323230312034312e353131312033302e3239353720343460e08201527f2e393734312032312e393430325a222066696c6c3d22234646384130312220736101008201527f74726f6b653d22626c61636b22207374726f6b652d77696474683d2238222f3e6101208201527f20202020203c7061746820643d224d34302e313331372036322e3537363843326101408201527f322e313237342036382e383134342032302e313033372038302e3531363920326101608201527f342e323233352039312e323837354332392e35343336203130302e35313720346101808201527f312e39353931203130342e3339342034362e36343436203130342e36353143376101a08201527f352e36373437203130352e3032342037372e3638342038322e35322036342e336101c08201527f3439332036332e323331314336312e373135352037332e383230392035352e376101e08201527f3836312038312e393532322034352e333837362037382e333739374333372e306102008201527f3638382037352e353231382033382e343137352036362e363533362034302e316102208201527f3331372036322e353736385a222066696c6c3d222346423441344122207374726102408201527f6f6b653d22626c61636b22207374726f6b652d77696474683d2234222f3e0000610260820152631e17b39f60e11b61027e82015203610262810184520182610090565b6040519060208201908282106001600160401b038311176124145750604052600081529056fea2646970667358221220e413f87aff7a7ed90816544f171845116efa1982a41f765392f52c294c34e16664736f6c63430008130033",
  "linkReferences": {},
  "deployedLinkReferences": {}
}