{
  "_format": "hh-sol-artifact-1",
  "contractName": "WaterBackground",
  "sourceName": "contracts/SockBackground/AdditionalBackgrounds/WaterBackground.sol",
  "abi": [
    {
      "inputs": [
        {
          "internalType": "string",
          "name": "backgroundColor",
          "type": "string"
        }
      ],
      "name": "background",
      "outputs": [
        {
          "internalType": "string",
          "name": "",
          "type": "string"
        }
      ],
      "stateMutability": "pure",
      "type": "function"
    }
  ],
  "bytecode": "0x6080806040523461001a5761090c9081610020823930815050f35b600080fdfe60806040818152600436101561001457600080fd5b600091823560e01c63c8e70eab1461002b57600080fd5b60209283600319360112610878576004359167ffffffffffffffff91828411610878573660238501121561087857836004013592831161086457601f199261007a601f8201851688018461087b565b8083528683019436602483830101116108605781601f94939260248a930188378301015261083b6105f3865180966100ef8a8301957f3c726563742077696474683d223130383022206865696768743d22313038302287526710103334b6361e9160c11b8b85015251809260488501906108b3565b601160f91b90820160488101919091526210179f60e91b60498201526710101010101e339f60c11b604c8201527f2020202020202020203c672066696c7465723d2275726c282366696c7465723060548201526b2fb22f9999af989a1814911f60a11b60748201527104040404040404040404040404078e0c2e8d60731b60808201527f2020202020202020202020202020202020643d224d3336302e3520333937433260928201527f35362e39203539372037392e36363637203537302e3636372034203533322e3560b28201527f5630483832362e35433833372e31363720382e3636363637203834352e38203560d28201527f332e362037393520313634433733312e3520333032203439302031343720333660f28201526818171a90199c9bad1160b91b6101128201527f202020202020202020202020202020202066696c6c3d2223393843314646222061011b820152743334b63616b7b830b1b4ba3c9e9118171c1110179f60591b61013b8201527f202020202020202020202020203c636972636c652063783d223839362e3522206101508201527f63793d223134312e352220723d2234332e35222066696c6c3d22233938433146610170820152772311103334b63616b7b830b1b4ba3c9e9118171a9110179f60411b6101908201527f202020202020202020202020203c636972636c652063783d2236342e352220636101a88201527f793d223630382e352220723d2232312e35222066696c6c3d22233938433146466101c88201527611103334b63616b7b830b1b4ba3c9e9118171a9110179f60491b6101e882018190527f202020202020202020202020203c636972636c652063783d223936312e3522206101ff8301527f63793d2237362e352220723d2232312e35222066696c6c3d222339384331464661021f83015261023f8201526c1010101010101010101e17b39f60991b6102568201526e1010101010101010101e3232b3399f60891b6102638201527f202020202020202020202020203c66696c7465722069643d2266696c746572306102728201527f5f645f33335f3134302220783d22302220793d2230222077696474683d2239386102928201527f3722206865696768743d22363338222066696c746572556e6974733d227573656102b28201526b3929b830b1b2a7b72ab9b29160a11b6102d28201527f2020202020202020202020202020202020636f6c6f722d696e746572706f6c616102de820152733a34b7b716b334b63a32b9399e9139a923a1111f60611b6102fe8201527f20202020202020202020202020202020203c6665466c6f6f6420666c6f6f642d6103128201527f6f7061636974793d22302220726573756c743d224261636b67726f756e64496d6103328201526930b3b2a334bc1110179f60b11b6103528201527f20202020202020202020202020202020203c6665436f6c6f724d61747269782061035c82018190527f696e3d22536f75726365416c7068612220747970653d226d617472697822207661037c8301527f616c7565733d223020302030203020302030203020302030203020302030203061039c83015270101810181018101810181018991b90181160791b6103bc8301527f202020202020202020202020202020202020202020726573756c743d226861726103cd830152693220b63834309110179f60b11b6103ed8301527f20202020202020202020202020202020203c66654f66667365742064793d22346103f7830152631110179f60e11b61041783018190527f20202020202020202020202020202020203c6665476175737369616e426c757261041b840152731039ba322232bb34b0ba34b7b71e91191110179f60611b61043b8401527f20202020202020202020202020202020203c6665436f6d706f7369746520696e61044f8401527f323d2268617264416c70686122206f70657261746f723d226f757422202f3e0061046f84015261048e8301919091527f747970653d226d6174726978222076616c7565733d22302030203020302031206104ae8301527f3020302030203020312030203020302030203120302030203020302e323520306104ce8301526104ee8201527f20202020202020202020202020202020203c6665426c656e64206d6f64653d226104f282018190527f6e6f726d616c2220696e323d224261636b67726f756e64496d616765466978226105128301527f20726573756c743d22656666656374315f64726f70536861646f775f33335f31610532830152651a181110179f60d11b6105528301526105588201527f6e6f726d616c2220696e3d22536f75726365477261706869632220696e323d226105788201527f656666656374315f64726f70536861646f775f33335f3134302220726573756c6105988201526b3a1e9139b430b8329110179f60a11b6105b882015275101010101010101010101010101e17b334b63a32b91f60511b6105c48201526f1010101010101010101e17b232b3399f60811b6105da8201526810101010101e17b39f60b91b6105ea820152036105d381018752018561087b565b61085785519687958187525192838092880152878701906108b3565b01168101030190f35b8280fd5b634e487b7160e01b81526041600452602490fd5b80fd5b90601f8019910116810190811067ffffffffffffffff82111761089d57604052565b634e487b7160e01b600052604160045260246000fd5b60005b8381106108c65750506000910152565b81810151838201526020016108b656fea26469706673582212207013836434c83afef27affc22f11523cedc660e63ab631e4a8ca961638d4a92864736f6c63430008130033",
  "linkReferences": {},
  "deployedLinkReferences": {}
}