{
  "_format": "hh-sol-artifact-1",
  "contractName": "FirePattern",
  "sourceName": "contracts/SockPattern/Patterns/FirePattern.sol",
  "abi": [
    {
      "inputs": [],
      "name": "pattern",
      "outputs": [
        {
          "internalType": "string",
          "name": "",
          "type": "string"
        }
      ],
      "stateMutability": "pure",
      "type": "function"
    }
  ],
  "bytecode": "0x6080806040523461001a576112e69081610020823930815050f35b600080fdfe60806040818152600436101561001457600080fd5b6000803560e01c63a96f1c691461002a57600080fd5b806003193601126111f9577f20202020203c67207472616e73666f726d3d227472616e736c6174652832333060208481019190915267161019989814911f60c11b838501527f2020202020202020203c6d61736b2069643d226d61736b305f3130395f33392260488501527f207374796c653d226d61736b2d747970653a616c70686122206d61736b556e6960688501527f74733d227573657253706163654f6e5573652220783d2236302220793d22393560888501527f222077696474683d2235373622206865696768743d22343137223e000000000060a88501527104040404040404040404040404078e0c2e8d60731b60c385018190527f2020202020202020202020202020202020643d224d3431322e3539392035313160d58601527f2e313233433432372e303833203430372e373839203530342e3432203339332e60f58601527f373431203534312e323737203339392e3633344c3539382e313138203237342e6101158601527f39394c3633352e313036203139332e383738433531382e373039203230352e326101358601527f3136203434332e323135203133332e323132203432302e3031382039352e37396101558601527f33314c3430372e373933203132322e3630324c3335332e313036203234322e356101758601527f3234433334302e373839203236392e353333203331342e353239203238372e356101958601527f3032203238342e383932203238392e324c3135372e353132203239362e3439376101b58601527f4c3131352e303139203239382e3933314c37342e36373833203330312e3234326101d58601527f4337332e38323834203330312e32392037332e33393937203330322e323931206101f58601527f37332e39373532203330322e393138433130362e343231203333382e323832206102158601527f3134372e363534203432322e3739312036302e373531203438382e30393743366102358601527f352e35323031203439302e3932203132312e383534203439352e3331332031396102558601527f332e313637203439392e363938433236332e343334203530342e3031382033346102758601527f382e323434203530382e333239203431322e353939203531312e3132335a22006102958601527f202020202020202020202020202020202066696c6c3d22626c61636b22202f3e6102b48601526f1010101010101010101e17b6b0b9b59f60811b6102d48601527f2020202020202020203c67206d61736b3d2275726c28236d61736b305f3130396102e4860152652f999c94911f60d11b61030486015261030a85018190527f2020202020202020202020202020202020643d224d3432342e3634342031363161031c8601527f2e313839433338392e323237203136342e343231203337372e3038322031383561033c8601527f2e333131203337362e313333203230372e333239433337382e3338312032323761035c8601527f2e303334203339362e373335203234302e303633203430342e3535362032343261037c8601527f2e3733433435332e3932203235362e3938203437342e303537203231352e393361039c8601527f31203436352e3537203137332e373137433435332e323037203139322e3234356103bc8601527f203433372e303333203230342e363438203432312e393033203139332e3132386103dc8601527f433430392e373939203138332e393132203431382e363837203136372e3939356103fc86015271101a191a171b1a1a10189b1897189c1cad1160711b61041c860152909390819061055161042e83016111fc565b81815260128082017f2020202020202020202020202020202020643d224d3430372e3034203139382e905260328083017f313335433338372e393837203139382e323737203338322e333231203230382e905260528084017f373135203338322e373734203232302e323337433338342e383538203233302e905260728085017f363835203339352e333738203233382e333334203339392e373334203234302e90526092908186017f303738433432372e313135203234392e3733203433362e323236203232392e30905260b2928387017f3535203432392e373732203230362e353131433432332e383836203231352e37905260d2948588017f203431352e363634203232312e353033203430362e393538203231342e373838905260f2968789017f433339392e393933203230392e343136203430342e313131203230312e34343890526101129870101a181b97181a10189c9c1718999aad1160791b8a820152610123808092016106c590611256565b8c81527f2020202020202020202020202020202020643d224d3331382e37323220333437848201527f2e393038433239392e303237203337372e3532203330372e3638203430302e30858201527f3831203332342e323336203431342e3633433334302e393933203432352e3233868201527f37203336322e363531203431392e313133203336392e363334203431342e3639878201527f34433431312e363933203338352e313832203339322e3335203334332e373533888201527f203335342e313437203332332e383838433336302e383235203334352e313338898201527f203336302e333431203336352e353134203334312e3838203337302e303733438a8201527f3332372e3131203337332e373231203332302e323837203335362e38313620338b8201526f189c171b991910199a1b971c981c2d1160811b8c82015261081590610122016111fc565b8c81527f2020202020202020202020202020202020643d224d3333362e34353720333834848201527f2e3739433332342e363138203339392e373139203332392e313935203431302e858201527f363738203333382e343533203431372e353532433334372e383938203432322e868201527f343832203336302e343533203431392e303835203336342e353434203431362e878201527f373836433338392e323334203430312e353133203337382e383435203338312e888201527f3435203335372e323338203337322e333338433336302e373033203338322e36898201527f3835203336302e303637203339322e373239203334392e333737203339352e328a8201527f3939433334302e383234203339372e333535203333372e32203338392e3134398b820152701019999b171a1a9b90199c1a171b9cad1160791b8c8201526109639101611256565b8b81527f2020202020202020202020202020202020643d224d3234302e31373820343536838201527f2e333735433232342e323139203432342e353933203230302e33333620343230848201527f2e393237203137392e343935203432382e303935433136312e39373720343337858201527f2e333932203135362e353631203435392e323339203135362e39333820343637868201527f2e343934433136312e373235203531382e3635203230372e323935203532322e878201527f333833203234332e343832203439392e303438433232312e373137203439342e888201527f333136203230342e323539203438332e373937203230392e343439203436352e898201527f353033433231332e363031203435302e383637203233312e363635203435332e8a8201527419989c90191a1817189b9c101a1a9b17199b9aad1160591b8b820152610ab890610127016111fc565b8b81527f2020202020202020202020202020202020643d224d3139392e33353520343533838201527f2e35433139322e323536203433352e383137203138302e343639203433342e33848201527f3631203136392e3931203433382e393936433136302e393438203434342e3735858201527f35203135372e363735203435372e333433203135372e363435203436322e3033868201527f36433135382e363733203439312e3035203138312e323438203439312e393731878201527f203139392e3837203437372e373231433138392e313636203437352e36303120888201527f3138302e373538203437302e303731203138332e383234203435392e35313243898201527f3138362e323737203435312e303635203139352e32203435312e3938342031398a8201526c1c97199a9a901a1a99971aad1160991b8b820152610c059061011f01611256565b8b81527f2020202020202020202020202020202020643d224d3136312e38363120323635838201527f2e313236433132362e333139203236362e333731203131332e30323420323836848201527f2e353437203131302e383434203330382e343739433131312e39383520333238858201527f2e323738203132392e353831203334322e333134203133372e32343120333435868201527f2e343134433138352e3733203336322e343035203230382e313333203332322e878201527f353437203230322e303232203237392e393234433138382e363431203239372e888201527f373332203137312e373939203330392e3231203135372e333337203239362e38898201527f3631433134352e373638203238362e393832203135352e353333203237312e358a820152731c1c10189b18971c1b1890191b1a9718991b2d1160611b8b82015261012690610d5b9082016111fc565b8c81527f2020202020202020202020202020202020643d224d3134322e32313720333031848201527f2e303237433132332e313835203330302e313033203131362e39343520333130858201527f2e323037203131362e373532203332312e373337433131382e32343720333332868201527f2e323835203132382e333232203334302e3531203133322e353734203334322e878201527f343936433135392e333732203335332e363635203136392e363237203333332e888201527f353333203136342e343435203331302e363633433135382e303533203331392e898201527f353037203134392e353139203332342e383432203134312e323032203331372e8a8201527f3635433133342e353439203331312e383937203133392e313037203330342e318b820152731b9890189a191719189b901998189718191bad1160611b8c820152610eac9101611256565b8b81527f2020202020202020202020202020202020643d224d3536372e33343720333634838201527f2e303636433538302e383337203333312e3136203536372e393139203331302e848201527f3734203534382e383237203239392e373239433533302e333132203239322e36858201527f3232203531302e3238203330322e383833203530342e333032203330382e3538868201527f39433436382e383633203334352e373931203439352e393732203338322e3631878201527f31203533372e333334203339342e3538433532362e3631203337352e30353720888201527f3532332e303739203335342e393833203534302e323835203334362e38383443898201527f3535342e303439203334302e343035203536342e303631203335352e363339208a820152701a9b1b97199a1b90199b1a17181b1b2d1160791b8b820152610ffa91016111fc565b998a527f2020202020202020202020202020202020643d224d3534322e37303920333331908a01527f2e3339433535312e333833203331342e343234203534342e373432203330342e908901527f353739203533342e333133203239392e363539433532342e303834203239362e908801527f363831203531322e343431203330322e343739203530382e383832203330352e908701527f353337433438372e363735203332352e333635203530312e383034203334322e908601527f393936203532342e3738203334372e363833433531392e3335203333382e3231908501527f38203531372e393939203332382e323436203532372e393736203332332e3632908401527f35433533352e393538203331392e393238203534312e313234203332372e3236908301527118901a9a19171b981c9019999897199cad1160711b9082015261114c9061012401611256565b6c1010101010101010101e17b39f60991b8152600d81016810101010101e17b39f60b91b9052039160091983018252601f1960358194011682019482861067ffffffffffffffff8711176111e55785929391838652818452845191828186015281955b8387106111cd5750508394508582601f949501015201168101030190f35b868101820151898801890152958101958895506111af565b634e487b7160e01b82526041600452602482fd5b80fd5b7f202020202020202020202020202020202066696c6c3d2223464638413031222081527f7374726f6b653d22626c61636b22207374726f6b652d77696474683d22382220602082015261179f60f11b604082015260420190565b7f202020202020202020202020202020202066696c6c3d2223464234413441222081527f7374726f6b653d22626c61636b22207374726f6b652d77696474683d22342220602082015261179f60f11b60408201526042019056fea2646970667358221220038518a7ab7cbb21f96ebae530cc90cfc4f0abe3b6247b51f6c9ad30f528b87c64736f6c63430008130033",
  "linkReferences": {},
  "deployedLinkReferences": {}
}