{
  "contracts/PondNFTs.sol": {
    "DuckRaceDerbyPondNFT": {
      "abi": [
        {
          "inputs": [
            {
              "internalType": "string",
              "name": "_initialURI",
              "type": "string"
            }
          ],
          "stateMutability": "nonpayable",
          "type": "constructor"
        },
        {
          "inputs": [],
          "name": "ApprovalCallerNotOwnerNorApproved",
          "type": "error"
        },
        {
          "inputs": [],
          "name": "ApprovalQueryForNonexistentToken",
          "type": "error"
        },
        {
          "inputs": [],
          "name": "ApprovalToCurrentOwner",
          "type": "error"
        },
        {
          "inputs": [],
          "name": "ApproveToCaller",
          "type": "error"
        },
        {
          "inputs": [],
          "name": "BalanceQueryForZeroAddress",
          "type": "error"
        },
        {
          "inputs": [],
          "name": "MintToZeroAddress",
          "type": "error"
        },
        {
          "inputs": [],
          "name": "MintZeroQuantity",
          "type": "error"
        },
        {
          "inputs": [],
          "name": "OwnerQueryForNonexistentToken",
          "type": "error"
        },
        {
          "inputs": [],
          "name": "TransferCallerNotOwnerNorApproved",
          "type": "error"
        },
        {
          "inputs": [],
          "name": "TransferFromIncorrectOwner",
          "type": "error"
        },
        {
          "inputs": [],
          "name": "TransferToNonERC721ReceiverImplementer",
          "type": "error"
        },
        {
          "inputs": [],
          "name": "TransferToZeroAddress",
          "type": "error"
        },
        {
          "inputs": [],
          "name": "URIQueryForNonexistentToken",
          "type": "error"
        },
        {
          "anonymous": false,
          "inputs": [
            {
              "indexed": true,
              "internalType": "address",
              "name": "user",
              "type": "address"
            },
            {
              "indexed": false,
              "internalType": "bool",
              "name": "isEnabled",
              "type": "bool"
            }
          ],
          "name": "AdminSet",
          "type": "event"
        },
        {
          "anonymous": false,
          "inputs": [
            {
              "indexed": true,
              "internalType": "address",
              "name": "owner",
              "type": "address"
            },
            {
              "indexed": true,
              "internalType": "address",
              "name": "approved",
              "type": "address"
            },
            {
              "indexed": true,
              "internalType": "uint256",
              "name": "tokenId",
              "type": "uint256"
            }
          ],
          "name": "Approval",
          "type": "event"
        },
        {
          "anonymous": false,
          "inputs": [
            {
              "indexed": true,
              "internalType": "address",
              "name": "owner",
              "type": "address"
            },
            {
              "indexed": true,
              "internalType": "address",
              "name": "operator",
              "type": "address"
            },
            {
              "indexed": false,
              "internalType": "bool",
              "name": "approved",
              "type": "bool"
            }
          ],
          "name": "ApprovalForAll",
          "type": "event"
        },
        {
          "anonymous": false,
          "inputs": [
            {
              "indexed": true,
              "internalType": "address",
              "name": "admin",
              "type": "address"
            },
            {
              "indexed": false,
              "internalType": "string",
              "name": "newBaseURI",
              "type": "string"
            }
          ],
          "name": "BaseURIUpdated",
          "type": "event"
        },
        {
          "anonymous": false,
          "inputs": [
            {
              "indexed": true,
              "internalType": "address",
              "name": "admin",
              "type": "address"
            },
            {
              "indexed": false,
              "internalType": "string",
              "name": "newURI",
              "type": "string"
            }
          ],
          "name": "InitialURIUpdated",
          "type": "event"
        },
        {
          "anonymous": false,
          "inputs": [
            {
              "indexed": true,
              "internalType": "address",
              "name": "previousOwner",
              "type": "address"
            },
            {
              "indexed": true,
              "internalType": "address",
              "name": "newOwner",
              "type": "address"
            }
          ],
          "name": "OwnershipTransferred",
          "type": "event"
        },
        {
          "anonymous": false,
          "inputs": [
            {
              "indexed": true,
              "internalType": "address",
              "name": "admin",
              "type": "address"
            },
            {
              "indexed": false,
              "internalType": "string",
              "name": "baseURI",
              "type": "string"
            }
          ],
          "name": "RevealUpdated",
          "type": "event"
        },
        {
          "anonymous": false,
          "inputs": [
            {
              "indexed": true,
              "internalType": "address",
              "name": "from",
              "type": "address"
            },
            {
              "indexed": true,
              "internalType": "address",
              "name": "to",
              "type": "address"
            },
            {
              "indexed": true,
              "internalType": "uint256",
              "name": "tokenId",
              "type": "uint256"
            }
          ],
          "name": "Transfer",
          "type": "event"
        },
        {
          "inputs": [
            {
              "internalType": "uint16",
              "name": "_newMaxPerWallet",
              "type": "uint16"
            }
          ],
          "name": "_changeMaxPerWallet",
          "outputs": [],
          "stateMutability": "nonpayable",
          "type": "function"
        },
        {
          "inputs": [],
          "name": "_openPublicMinting",
          "outputs": [],
          "stateMutability": "nonpayable",
          "type": "function"
        },
        {
          "inputs": [
            {
              "internalType": "uint256",
              "name": "_newMintPrice",
              "type": "uint256"
            }
          ],
          "name": "_updateMintPrice",
          "outputs": [],
          "stateMutability": "nonpayable",
          "type": "function"
        },
        {
          "inputs": [
            {
              "internalType": "address",
              "name": "to",
              "type": "address"
            },
            {
              "internalType": "uint256",
              "name": "tokenId",
              "type": "uint256"
            }
          ],
          "name": "approve",
          "outputs": [],
          "stateMutability": "nonpayable",
          "type": "function"
        },
        {
          "inputs": [
            {
              "internalType": "address",
              "name": "owner",
              "type": "address"
            }
          ],
          "name": "balanceOf",
          "outputs": [
            {
              "internalType": "uint256",
              "name": "",
              "type": "uint256"
            }
          ],
          "stateMutability": "view",
          "type": "function"
        },
        {
          "inputs": [],
          "name": "baseURI",
          "outputs": [
            {
              "internalType": "string",
              "name": "",
              "type": "string"
            }
          ],
          "stateMutability": "view",
          "type": "function"
        },
        {
          "inputs": [],
          "name": "collectETH",
          "outputs": [],
          "stateMutability": "nonpayable",
          "type": "function"
        },
        {
          "inputs": [
            {
              "internalType": "uint256",
              "name": "tokenId",
              "type": "uint256"
            }
          ],
          "name": "getApproved",
          "outputs": [
            {
              "internalType": "address",
              "name": "",
              "type": "address"
            }
          ],
          "stateMutability": "view",
          "type": "function"
        },
        {
          "inputs": [],
          "name": "initialURI",
          "outputs": [
            {
              "internalType": "string",
              "name": "",
              "type": "string"
            }
          ],
          "stateMutability": "view",
          "type": "function"
        },
        {
          "inputs": [
            {
              "internalType": "address",
              "name": "",
              "type": "address"
            }
          ],
          "name": "isAdmin",
          "outputs": [
            {
              "internalType": "bool",
              "name": "",
              "type": "bool"
            }
          ],
          "stateMutability": "view",
          "type": "function"
        },
        {
          "inputs": [
            {
              "internalType": "address",
              "name": "owner",
              "type": "address"
            },
            {
              "internalType": "address",
              "name": "operator",
              "type": "address"
            }
          ],
          "name": "isApprovedForAll",
          "outputs": [
            {
              "internalType": "bool",
              "name": "",
              "type": "bool"
            }
          ],
          "stateMutability": "view",
          "type": "function"
        },
        {
          "inputs": [],
          "name": "isRevealed",
          "outputs": [
            {
              "internalType": "bool",
              "name": "",
              "type": "bool"
            }
          ],
          "stateMutability": "view",
          "type": "function"
        },
        {
          "inputs": [],
          "name": "maxPerWallet",
          "outputs": [
            {
              "internalType": "uint16",
              "name": "",
              "type": "uint16"
            }
          ],
          "stateMutability": "view",
          "type": "function"
        },
        {
          "inputs": [],
          "name": "maxSupply",
          "outputs": [
            {
              "internalType": "uint256",
              "name": "",
              "type": "uint256"
            }
          ],
          "stateMutability": "view",
          "type": "function"
        },
        {
          "inputs": [
            {
              "internalType": "uint256",
              "name": "_amount",
              "type": "uint256"
            }
          ],
          "name": "mint",
          "outputs": [],
          "stateMutability": "payable",
          "type": "function"
        },
        {
          "inputs": [
            {
              "internalType": "address",
              "name": "recipient",
              "type": "address"
            },
            {
              "internalType": "uint256",
              "name": "quantity",
              "type": "uint256"
            }
          ],
          "name": "mintByAdmin",
          "outputs": [],
          "stateMutability": "nonpayable",
          "type": "function"
        },
        {
          "inputs": [],
          "name": "mintOpen",
          "outputs": [
            {
              "internalType": "bool",
              "name": "",
              "type": "bool"
            }
          ],
          "stateMutability": "view",
          "type": "function"
        },
        {
          "inputs": [],
          "name": "mintPrice",
          "outputs": [
            {
              "internalType": "uint256",
              "name": "",
              "type": "uint256"
            }
          ],
          "stateMutability": "view",
          "type": "function"
        },
        {
          "inputs": [
            {
              "internalType": "address",
              "name": "",
              "type": "address"
            }
          ],
          "name": "minted",
          "outputs": [
            {
              "internalType": "bool",
              "name": "",
              "type": "bool"
            }
          ],
          "stateMutability": "view",
          "type": "function"
        },
        {
          "inputs": [],
          "name": "name",
          "outputs": [
            {
              "internalType": "string",
              "name": "",
              "type": "string"
            }
          ],
          "stateMutability": "view",
          "type": "function"
        },
        {
          "inputs": [],
          "name": "owner",
          "outputs": [
            {
              "internalType": "address",
              "name": "",
              "type": "address"
            }
          ],
          "stateMutability": "view",
          "type": "function"
        },
        {
          "inputs": [
            {
              "internalType": "uint256",
              "name": "tokenId",
              "type": "uint256"
            }
          ],
          "name": "ownerOf",
          "outputs": [
            {
              "internalType": "address",
              "name": "",
              "type": "address"
            }
          ],
          "stateMutability": "view",
          "type": "function"
        },
        {
          "inputs": [],
          "name": "renounceOwnership",
          "outputs": [],
          "stateMutability": "nonpayable",
          "type": "function"
        },
        {
          "inputs": [
            {
              "internalType": "string",
              "name": "baseURI_",
              "type": "string"
            },
            {
              "internalType": "bool",
              "name": "_isRevealed",
              "type": "bool"
            }
          ],
          "name": "reveal",
          "outputs": [],
          "stateMutability": "nonpayable",
          "type": "function"
        },
        {
          "inputs": [
            {
              "internalType": "address",
              "name": "from",
              "type": "address"
            },
            {
              "internalType": "address",
              "name": "to",
              "type": "address"
            },
            {
              "internalType": "uint256",
              "name": "tokenId",
              "type": "uint256"
            }
          ],
          "name": "safeTransferFrom",
          "outputs": [],
          "stateMutability": "nonpayable",
          "type": "function"
        },
        {
          "inputs": [
            {
              "internalType": "address",
              "name": "from",
              "type": "address"
            },
            {
              "internalType": "address",
              "name": "to",
              "type": "address"
            },
            {
              "internalType": "uint256",
              "name": "tokenId",
              "type": "uint256"
            },
            {
              "internalType": "bytes",
              "name": "_data",
              "type": "bytes"
            }
          ],
          "name": "safeTransferFrom",
          "outputs": [],
          "stateMutability": "nonpayable",
          "type": "function"
        },
        {
          "inputs": [
            {
              "internalType": "address",
              "name": "user",
              "type": "address"
            },
            {
              "internalType": "bool",
              "name": "isEnabled",
              "type": "bool"
            }
          ],
          "name": "setAdmin",
          "outputs": [],
          "stateMutability": "nonpayable",
          "type": "function"
        },
        {
          "inputs": [
            {
              "internalType": "address",
              "name": "operator",
              "type": "address"
            },
            {
              "internalType": "bool",
              "name": "approved",
              "type": "bool"
            }
          ],
          "name": "setApprovalForAll",
          "outputs": [],
          "stateMutability": "nonpayable",
          "type": "function"
        },
        {
          "inputs": [
            {
              "internalType": "string",
              "name": "baseURI_",
              "type": "string"
            }
          ],
          "name": "setBaseURI",
          "outputs": [],
          "stateMutability": "nonpayable",
          "type": "function"
        },
        {
          "inputs": [
            {
              "internalType": "string",
              "name": "_initialURI",
              "type": "string"
            }
          ],
          "name": "setInitialURI",
          "outputs": [],
          "stateMutability": "nonpayable",
          "type": "function"
        },
        {
          "inputs": [
            {
              "internalType": "bytes4",
              "name": "interfaceId",
              "type": "bytes4"
            }
          ],
          "name": "supportsInterface",
          "outputs": [
            {
              "internalType": "bool",
              "name": "",
              "type": "bool"
            }
          ],
          "stateMutability": "view",
          "type": "function"
        },
        {
          "inputs": [],
          "name": "symbol",
          "outputs": [
            {
              "internalType": "string",
              "name": "",
              "type": "string"
            }
          ],
          "stateMutability": "view",
          "type": "function"
        },
        {
          "inputs": [
            {
              "internalType": "uint256",
              "name": "tokenId",
              "type": "uint256"
            }
          ],
          "name": "tokenURI",
          "outputs": [
            {
              "internalType": "string",
              "name": "",
              "type": "string"
            }
          ],
          "stateMutability": "view",
          "type": "function"
        },
        {
          "inputs": [],
          "name": "totalSupply",
          "outputs": [
            {
              "internalType": "uint256",
              "name": "",
              "type": "uint256"
            }
          ],
          "stateMutability": "view",
          "type": "function"
        },
        {
          "inputs": [
            {
              "internalType": "address",
              "name": "from",
              "type": "address"
            },
            {
              "internalType": "address",
              "name": "to",
              "type": "address"
            },
            {
              "internalType": "uint256",
              "name": "tokenId",
              "type": "uint256"
            }
          ],
          "name": "transferFrom",
          "outputs": [],
          "stateMutability": "nonpayable",
          "type": "function"
        },
        {
          "inputs": [
            {
              "internalType": "address",
              "name": "newOwner",
              "type": "address"
            }
          ],
          "name": "transferOwnership",
          "outputs": [],
          "stateMutability": "nonpayable",
          "type": "function"
        },
        {
          "stateMutability": "payable",
          "type": "receive"
        }
      ],
      "devdoc": {
        "events": {
          "Approval(address,address,uint256)": {
            "details": "Emitted when `owner` enables `approved` to manage the `tokenId` token."
          },
          "ApprovalForAll(address,address,bool)": {
            "details": "Emitted when `owner` enables or disables (`approved`) `operator` to manage all of its assets."
          },
          "Transfer(address,address,uint256)": {
            "details": "Emitted when `tokenId` token is transferred from `from` to `to`."
          }
        },
        "kind": "dev",
        "methods": {
          "approve(address,uint256)": {
            "details": "See {IERC721-approve}."
          },
          "balanceOf(address)": {
            "details": "See {IERC721-balanceOf}."
          },
          "getApproved(uint256)": {
            "details": "See {IERC721-getApproved}."
          },
          "isApprovedForAll(address,address)": {
            "details": "See {IERC721-isApprovedForAll}."
          },
          "mintByAdmin(address,uint256)": {
            "details": "- callable only by admin or whitelisted wallet",
            "params": {
              "recipient": "- mint to"
            }
          },
          "name()": {
            "details": "See {IERC721Metadata-name}."
          },
          "owner()": {
            "details": "Returns the address of the current owner."
          },
          "ownerOf(uint256)": {
            "details": "See {IERC721-ownerOf}."
          },
          "renounceOwnership()": {
            "details": "Leaves the contract without owner. It will not be possible to call `onlyOwner` functions anymore. Can only be called by the current owner. NOTE: Renouncing ownership will leave the contract without an owner, thereby removing any functionality that is only available to the owner."
          },
          "reveal(string,bool)": {
            "details": "- callable only by admin",
            "params": {
              "_isRevealed": "- is the URI revealed?",
              "baseURI_": "- base URI to set"
            }
          },
          "safeTransferFrom(address,address,uint256)": {
            "details": "See {IERC721-safeTransferFrom}."
          },
          "safeTransferFrom(address,address,uint256,bytes)": {
            "details": "See {IERC721-safeTransferFrom}."
          },
          "setAdmin(address,bool)": {
            "params": {
              "isEnabled": "- Grant or Revoke?",
              "user": "- Address of User"
            }
          },
          "setApprovalForAll(address,bool)": {
            "details": "See {IERC721-setApprovalForAll}."
          },
          "setBaseURI(string)": {
            "details": "- callable only by admin",
            "params": {
              "baseURI_": "- base URI to set"
            }
          },
          "setInitialURI(string)": {
            "details": "- callable only by admin",
            "params": {
              "_initialURI": "- initial unrevealed URI"
            }
          },
          "supportsInterface(bytes4)": {
            "details": "See {IERC165-supportsInterface}."
          },
          "symbol()": {
            "details": "See {IERC721Metadata-symbol}."
          },
          "tokenURI(uint256)": {
            "params": {
              "tokenId": "- Token ID of NFT"
            }
          },
          "totalSupply()": {
            "details": "Burned tokens are calculated here, use _totalMinted() if you want to count just minted tokens."
          },
          "transferFrom(address,address,uint256)": {
            "details": "See {IERC721-transferFrom}."
          },
          "transferOwnership(address)": {
            "details": "Transfers ownership of the contract to a new account (`newOwner`). Can only be called by the current owner."
          }
        },
        "version": 1
      },
      "evm": {
        "bytecode": {
          "linkReferences": {},
          "object": "6080604052346200055757620029f7803803806200001d8162000592565b92833981019060208082840312620005575781516001600160401b039283821162000557570192601f818186011215620005575784518481116200055c57601f1995620000708284018816860162000592565b938285528583830101116200055757849060005b83811062000542575050600091840101526200009f62000572565b91601483527f4475636b205261636520446572627920506f6e6400000000000000000000000084840152620000d362000572565b936004808652630445244560e41b8287015284518781116200045957600254956001968781811c9116801562000537575b858210146200043957908187849311620004e0575b5084908783116001146200047a576000926200046e575b5050600019600383901b1c191690861b176002555b8551878111620004595760039687548781811c911680156200044e575b858210146200043957908187849311620003e3575b508490878311600114620003805760009262000374575b505060001982891b1c191690861b1786555b600085815560088054336001600160a01b03198216811790925590916001600160a01b03909116907f8be0079c531659141344cd1fd0a4f28419497f9722a3daafe3b4186f6b6457e09080a36103e8600d556703311fc80a570000600e558461ffff19600f541617600f5582519687116200035f57600c54908582811c9216801562000354575b838310146200033f5750838111620002f3575b50809286116001146200028557508495509084929160009562000279575b50501b92600019911b1c191617600c555b60405161243e9081620005b98239f35b01519350388062000258565b93929585908116600c60005285600020956000905b89838310620002d85750505010620002bd575b50505050811b01600c5562000269565b01519060f884600019921b161c1916905538808080620002ad565b8587015189559097019694850194889350908101906200029a565b600c600052816000208480890160051c820192848a1062000335575b0160051c019085905b828110620003285750506200023a565b6000815501859062000318565b925081926200030f565b602290634e487b7160e01b6000525260246000fd5b91607f169162000227565b604190634e487b7160e01b6000525260246000fd5b0151905038806200018e565b908b899416918a600052866000209260005b88828210620003cc5750508411620003b3575b505050811b018655620001a0565b0151600019838b1b60f8161c19169055388080620003a5565b8385015186558c9790950194938401930162000392565b90915088600052846000208780850160051c8201928786106200042f575b918a91869594930160051c01915b8281106200041f57505062000177565b600081558594508a91016200040f565b9250819262000401565b602284634e487b7160e01b6000525260246000fd5b90607f169062000162565b604182634e487b7160e01b6000525260246000fd5b01519050388062000130565b908b899416916002600052866000209260005b88828210620004c95750508411620004af575b505050811b0160025562000145565b015160001960f88460031b161c19169055388080620004a0565b8385015186558c979095019493840193016200048d565b9091506002600052846000208780850160051c8201928786106200052d575b918a91869594930160051c01915b8281106200051d57505062000119565b600081558594508a91016200050d565b92508192620004ff565b90607f169062000104565b81810183015186820184015286920162000084565b600080fd5b634e487b7160e01b600052604160045260246000fd5b60408051919082016001600160401b038111838210176200055c57604052565b6040519190601f01601f191682016001600160401b038111838210176200055c5760405256fe6080604052600436101561001b575b361561001957600080fd5b005b60003560e01c806301ffc9a71461025b57806306fdde0314610256578063081812fc14610251578063095ea7b31461024c57806318160ddd146102475780631c9641fb146102425780631e7269c51461023d57806323b872dd1461023857806324bbd0491461023357806324d7806c1461022e57806335dc3c681461022957806342842e0e14610224578063453c23101461021f5780634b0bddd21461021a57806354214f691461021557806355f804b3146102105780636352211e1461020b5780636817c76c146102065780636c0360eb146102015780636d818560146101fc57806370a08231146101f7578063715018a6146101f25780638da5cb5b146101ed57806395d89b41146101e8578063a0712d68146101e3578063a22cb465146101de578063a32a7b65146101d9578063af3da2f4146101d4578063b88d4fde146101cf578063c87b56dd146101ca578063c9a23077146101c5578063d5abeb01146101c0578063e837ead9146101bb578063e985e9c5146101b6578063f2fde38b146101b15763fdff9b810361000e576114ca565b611407565b6113aa565b611330565b611312565b6112f6565b6112c3565b611264565b6111b9565b611091565b610fde565b610e74565b610dd0565b610da7565b610d49565b610d1e565b610bc3565b610b31565b610a1c565b6109ec565b6108d1565b6107a5565b610727565b6106f6565b6106ce565b610655565b610616565b6105f0565b6105d9565b610565565b610544565b61051d565b61047d565b610421565b610341565b610277565b6001600160e01b031981160361027257565b600080fd5b3461027257602036600319011261027257602060043561029681610260565b63ffffffff60e01b166380ac58cd60e01b81149081156102d4575b81156102c3575b506040519015158152f35b6301ffc9a760e01b149050386102b8565b635b5e139f60e01b811491506102b1565b60005b8381106102f85750506000910152565b81810151838201526020016102e8565b90602091610321815180928185528580860191016102e5565b601f01601f1916010190565b90602061033e928181520190610308565b90565b346102725760008060031936011261041e576040518160025461036381610a3a565b808452906001908181169081156103f6575060011461039d575b6103998461038d81880382610819565b6040519182918261032d565b0390f35b60028352602094507f405787fa12a823e0f2b7631cc41b3ba8828b3321ca811111fa75cd3aa3bb5ace5b8284106103e357505050816103999361038d928201019361037d565b80548585018701529285019281016103c7565b610399965061038d9450602092508593915060ff191682840152151560051b8201019361037d565b80fd5b3461027257602036600319011261027257602061043f6004356116bd565b6040516001600160a01b039091168152f35b600435906001600160a01b038216820361027257565b602435906001600160a01b038216820361027257565b3461027257604036600319011261027257610496610451565b6001600160a01b03602435816104ab826115f4565b5116809284161461050b578133036104c7575b61001992611a3b565b600082815260076020908152604080832033845290915290206104f4906104f0905b5460ff1690565b1590565b156104be576040516367d9dca160e11b8152600490fd5b60405163250fdee360e21b8152600490fd5b34610272576000366003190112610272576000546001546040519103600019018152602090f35b346102725760203660031901126102725761055d611505565b600435600e55005b34610272576020366003190112610272576001600160a01b03610586610451565b166000526010602052602060ff604060002054166040519015158152f35b6060906003190112610272576001600160a01b0390600435828116810361027257916024359081168103610272579060443590565b34610272576100196105ea366105a4565b91611796565b3461027257600036600319011261027257602060ff600b5460081c166040519015158152f35b34610272576020366003190112610272576001600160a01b03610637610451565b166000526009602052602060ff604060002054166040519015158152f35b346102725760203660031901126102725760043561ffff81168091036102725761067d611505565b80156106945761ffff19600f541617600f55600080f35b60405162461bcd60e51b815260206004820152601260248201527143616e6e6f742073657420746f207a65726f60701b6044820152606490fd5b34610272576100196106df366105a4565b90604051926106ed846107fe565b60008452611727565b3461027257600036600319011261027257602061ffff600f5416604051908152f35b60243590811515820361027257565b3461027257604036600319011261027257610740610451565b7fe68d2c359a771606c400cf8b87000cf5864010363d6a736e98f5047b7bbe18e9602061076b610718565b92610774611505565b6001600160a01b031660008181526009835260409020805460ff191660ff86151516179055926040519015158152a2005b3461027257600036600319011261027257602060ff600b54166040519015158152f35b634e487b7160e01b600052604160045260246000fd5b606081019081106001600160401b038211176107f957604052565b6107c8565b602081019081106001600160401b038211176107f957604052565b90601f801991011681019081106001600160401b038211176107f957604052565b6001600160401b0381116107f957601f01601f191660200190565b9291926108618261083a565b9161086f6040519384610819565b829481845281830111610272578281602093846000960137010152565b9080601f830112156102725781602061033e93359101610855565b602060031982011261027257600435906001600160401b0382116102725761033e9160040161088c565b34610272576108df366108a7565b6108e7611505565b80516001600160401b0381116107f95761090b81610906600a54610a3a565b611fd3565b80602080601f8311600114610978575060009161096d575b508160011b916000199060031b1c191617600a555b7ff765b68b6ff897de964353a0eb194e46ecea8772879eb880b4b0fd277124922c6040518061096833948261032d565b0390a2005b905082015138610923565b600a6000529150601f1983166000805160206123c9833981519152926000905b8282106109d457505090836001949392106109bb575b5050811b01600a55610938565b84015160001960f88460031b161c1916905538806109ae565b80600185968294968a01518155019501930190610998565b346102725760203660031901126102725760206001600160a01b03610a126004356115f4565b5116604051908152f35b34610272576000366003190112610272576020600e54604051908152f35b90600182811c92168015610a6a575b6020831014610a5457565b634e487b7160e01b600052602260045260246000fd5b91607f1691610a49565b60405190600082600c5491610a8883610a3a565b808352600193808516908115610b105750600114610ab0575b50610aae92500383610819565b565b600c60009081527fdf6966c971051c3d54ec59162606531493a51404a002842f56009d7e5cf4a8c794602093509091905b818310610af8575050610aae935082010138610aa1565b85548884018501529485019487945091830191610ae1565b9050610aae94506020925060ff191682840152151560051b82010138610aa1565b346102725760008060031936011261041e5760405181600a54610b5381610a3a565b808452906001908181169081156103f65750600114610b7c576103998461038d81880382610819565b600a8352602094506000805160206123c98339815191525b828410610bb057505050816103999361038d928201019361037d565b8054858501870152928501928101610b94565b34610272576040366003190112610272576001600160401b0360043581811161027257610bf490369060040161088c565b90610bfd610718565b610c05611505565b60ff8019600b54169115151617600b556040517fffcd326b78e78031a693e986f76bfa19d1b13f1fe4b2ec67c23f46456ee100de339180610c46868261032d565b0390a2610c51611505565b81519081116107f957610c6981610906600a54610a3a565b80602080601f8311600114610cc4575060009161096d57508160011b916000199060031b1c191617600a557ff765b68b6ff897de964353a0eb194e46ecea8772879eb880b4b0fd277124922c6040518061096833948261032d565b600a6000529150601f1983166000805160206123c9833981519152926000905b828210610d0657505090836001949392106109bb575050811b01600a55610938565b80600185968294968a01518155019501930190610ce4565b34610272576020366003190112610272576020610d41610d3c610451565b61155d565b604051908152f35b346102725760008060031936011261041e57610d63611505565b600880546001600160a01b0319811690915581906001600160a01b03167f8be0079c531659141344cd1fd0a4f28419497f9722a3daafe3b4186f6b6457e08280a380f35b34610272576000366003190112610272576008546040516001600160a01b039091168152602090f35b346102725760008060031936011261041e5760405181600354610df281610a3a565b808452906001908181169081156103f65750600114610e1b576103998461038d81880382610819565b60038352602094507fc2575a0e9e593c00f959f8c92f12db2869c3395a3b0502d05e2516446f71f85b5b828410610e6157505050816103999361038d928201019361037d565b8054858501870152928501928101610e45565b60203660031901126102725760043560ff600b5460081c1615610f8d57600054600154610eba91610eb09184910360001901611c2e565b611c2e565b600d541015611c3b565b610ec781610eab3361155d565b610ee9610ee1610eda600f5461ffff1690565b61ffff1690565b809210611c82565b336000908152601060205260409020610f0e90610f09906104f0906104e9565b611ce7565b610f24610f1d83600e54611d65565b3414611d78565b610f3182610eab3361155d565b14610f68575b60003415610f5f575b60008080809334903090f115610f5a576100199033611db9565b611b0a565b506108fc610f40565b336000908152601060205260409020610f8890805460ff19166001179055565b610f37565b60405162461bcd60e51b815260206004820152602360248201527f4d696e74696e67206973206e6f7420796574206f70656e20666f72207075626c60448201526269632160e81b6064820152608490fd5b3461027257604036600319011261027257610ff7610451565b610fff610718565b6001600160a01b0382169133831461107f578161103e61104f9233600052600760205260406000209060018060a01b0316600052602052604060002090565b9060ff801983541691151516179055565b60405190151581527f17307eab39ab6107e8899845ad3d59bd9653f200f220920489ca2b5937696c3160203392a3005b60405163b06307db60e01b8152600490fd5b346102725761109f366108a7565b6110a7611505565b80516001600160401b0381116107f9576110cb816110c6600c54610a3a565b612027565b80602080601f83116001146111335750600091611128575b508160011b916000199060031b1c191617600c555b7f998cc6c827a95d954dd9f7f353dbbb9e4959d633c6639bca42129fa1089c36486040518061096833948261032d565b9050820151386110e3565b600c6000529150601f1983167fdf6966c971051c3d54ec59162606531493a51404a002842f56009d7e5cf4a8c7926000905b8282106111a15750509083600194939210611188575b5050811b01600c556110f8565b84015160001960f88460031b161c19169055388061117b565b80600185968294968a01518155019501930190611165565b34610272576040366003190112610272576111d2610451565b6024356111dd611505565b6001600160a01b0382161561121f5760005460015460001991038281018201939101831061121a5761121561001993600d5411611c3b565b611db9565b611c18565b60405162461bcd60e51b815260206004820152601d60248201527f4572726f723a207265636970656e74203d3d20616464726573732830290000006044820152606490fd5b346102725760803660031901126102725761127d610451565b611285610467565b606435916001600160401b0383116102725736602384011215610272576112b9610019933690602481600401359101610855565b9160443591611727565b34610272576020366003190112610272576103996112e26004356121a5565b604051918291602083526020830190610308565b34610272576000366003190112610272576103996112e2610a74565b34610272576000366003190112610272576020600d54604051908152f35b3461027257600036600319011261027257611349611505565b600b5460ff8160081c166113655761ff00191661010017600b55005b60405162461bcd60e51b815260206004820152601e60248201527f4572726f723a204d696e7420697320616c726561647920656e61626c656400006044820152606490fd5b3461027257604036600319011261027257602060ff6113fb6113ca610451565b6113d2610467565b6001600160a01b0391821660009081526007865260408082209290931681526020919091522090565b54166040519015158152f35b3461027257602036600319011261027257611420610451565b611428611505565b6001600160a01b0390811690811561147657600880546001600160a01b031981168417909155167f8be0079c531659141344cd1fd0a4f28419497f9722a3daafe3b4186f6b6457e0600080a3005b60405162461bcd60e51b815260206004820152602660248201527f4f776e61626c653a206e6577206f776e657220697320746865207a65726f206160448201526564647265737360d01b6064820152608490fd5b346102725760008060031936011261041e576114e4611505565b80808080478181156114fc575b3390f115610f5a5780f35b506108fc6114f1565b6008546001600160a01b0316330361151957565b606460405162461bcd60e51b815260206004820152602060248201527f4f776e61626c653a2063616c6c6572206973206e6f7420746865206f776e65726044820152fd5b6001600160a01b031680156115865760005260056020526001600160401b036040600020541690565b6040516323d3ad8160e21b8152600490fd5b604051906115a5826107de565b60006040838281528260208201520152565b906040516115c4816107de565b91546001600160a01b038116835260a081901c6001600160401b0316602084015260e01c60ff1615156040830152565b6115fc611598565b506001818082111561161b575b604051636f96cda160e11b8152600490fd5b6000548110156116095761163c611641916000526004602052604060002090565b6115b7565b6116516104f06040830151151590565b156116095780516001600160a01b03166116b7575090815b6116735780611609565b600019019061168f61163c836000526004602052604060002090565b80516116ab906001600160a01b03165b6001600160a01b031690565b6116b757509081611669565b91505090565b80600111158061171c575b80611700575b156116ee576000908152600660205260409020546001600160a01b031690565b6040516333d1c03960e21b8152600490fd5b5080600052600460205260ff60406000205460e01c16156116ce565b5060005481106116c8565b929190611735828286611796565b803b611742575b50505050565b61174b93611bef565b15611759573880808061173c565b6040516368d2bf6b60e11b8152600490fd5b805467ffffffffffffffff60a01b191660a09290921b67ffffffffffffffff60a01b16919091179055565b61179f836115f4565b80516001600160a01b0380841693929181168490036119dd57833314801561199d575b8015611989575b15611977578416938415611965576118c4906117e584886119ee565b6001600160a01b038416600090815260056020526040902061183f9061182561181582546001600160401b031690565b600019016001600160401b031690565b6001600160401b03166001600160401b0319825416179055565b6001600160a01b038116600090815260056020526040902061187e9061182561186f82546001600160401b031690565b6001016001600160401b031690565b6118b4611895886000526004602052604060002090565b80546001600160a01b0319166001600160a01b03909316929092178255565b6001600160401b0342169061176b565b60018501906118dd826000526004602052604060002090565b80549092906118f4906001600160a01b031661169f565b15611913575b505050506000805160206123e9833981519152600080a4565b60005403611922575b806118fa565b81546001600160a01b0319166001600160a01b0390931692909217815561195d9161195790602001516001600160401b031690565b9061176b565b38808061191c565b604051633a954ecd60e21b8152600490fd5b604051632ce44b5f60e11b8152600490fd5b503361199761169f886116bd565b146117c9565b506119d86104e9336119c18660018060a01b03166000526007602052604060002090565b9060018060a01b0316600052602052604060002090565b6117c2565b60405162a1148160e81b8152600490fd5b600081815260066020526040812080546001600160a01b031916905590916001600160a01b03167f8c5be1e5ebec7d5bd14f71427d1e84f3dd0314c0f7b2291e5b200ac8c7c3b9258280a4565b600082815260066020526040902080546001600160a01b0319166001600160a01b0383161790559091906001600160a01b0390811691167f8c5be1e5ebec7d5bd14f71427d1e84f3dd0314c0f7b2291e5b200ac8c7c3b925600080a4565b90816020910312610272575161033e81610260565b61033e939260809260018060a01b031682526000602083015260408201528160608201520190610308565b6001600160a01b03918216815291166020820152604081019190915260806060820181905261033e92910190610308565b6040513d6000823e3d90fd5b3d15611b41573d90611b278261083a565b91611b356040519384610819565b82523d6000602084013e565b606090565b611b6f60209160009394604051948580948193630a85bd0160e11b998a84523360048501611aae565b03926001600160a01b03165af160009181611bbf575b50611bb157611b92611b16565b80519081611bac576040516368d2bf6b60e11b8152600490fd5b602001fd5b6001600160e01b0319161490565b611be191925060203d8111611be8575b611bd98183610819565b810190611a99565b9038611b85565b503d611bcf565b92602091611b6f936000604051809681958294630a85bd0160e11b9a8b85523360048601611ad9565b634e487b7160e01b600052601160045260246000fd5b9190820180921161121a57565b15611c4257565b60405162461bcd60e51b815260206004820152601860248201527743616e277420657863656564206d617820737570706c792160401b6044820152606490fd5b15611c8957565b60405162461bcd60e51b815260206004820152603060248201527f4f6e652077616c6c65742063616e2774206d696e74206d6f7265207468616e2060448201526f6d617820616c6c6f776564204e46547360801b6064820152608490fd5b15611cee57565b60a460405162461bcd60e51b815260206004820152604460248201527f4572726f723a20546869732077616c6c65742068617320616c7265616479206d60448201527f696e746564206974732071756f7461206f66206d617820616c6c6f776564204e606482015263232a399760e11b6084820152fd5b8181029291811591840414171561121a57565b15611d7f57565b60405162461bcd60e51b81526020600482015260126024820152714d75737420706179206d696e74206665652160701b6044820152606490fd5b604090815191611dc8836107fe565b60008084528054909390926001600160a01b0381168015611fc3578615611fb257611ee76001600160401b03611e95818a16611e3b611e198760018060a01b03166000526005602052604060002090565b61182583611e2e83546001600160401b031690565b016001600160401b031690565b6001600160a01b0386166000908152600560205260409020611e6d9091611e2e83546001600160401b039060401c1690565b815467ffffffffffffffff60401b191660409190911b67ffffffffffffffff60401b16179055565b611ecc84611ead896000526004602052604060002090565b80546001600160a01b0319166001600160a01b03909216919091179055565b4216611ee2876000526004602052604060002090565b61176b565b8496850190823b1515600014611f685760019182805b611f13575b5050505050505081540361041e5755565b15611f5b575b8789838a6000805160206123e98339815191528180a4611f406104f087868d019c88611b46565b611f4a5783611efd565b86516368d2bf6b60e11b8152600490fd5b808910611f195780611f02565b94509250505060019081805b611f80575b5050505055565b15611fa5575b83828087019685876000805160206123e98339815191528180a4611f74565b808510611f865780611f79565b835163b562e8dd60e01b8152600490fd5b8351622e076360e81b8152600490fd5b601f8111611fdf575050565b600090600a825260208220906020601f850160051c8301941061201d575b601f0160051c01915b82811061201257505050565b818155600101612006565b9092508290611ffd565b601f8111612033575050565b600090600c825260208220906020601f850160051c83019410612071575b601f0160051c01915b82811061206657505050565b81815560010161205a565b9092508290612051565b600a546000929161208b82610a3a565b916001908181169081156120dc57506001146120a657505050565b9091929350600a60005260209081600020906000915b8583106120cb57505050500190565b8054858401529183019181016120bc565b60ff191683525050811515909102019150565b600c54600092916120ff82610a3a565b916001908181169081156120dc575060011461211a57505050565b9091929350600c60005260209081600020906000915b85831061213f57505050500190565b805485840152918301918101612130565b90612163602092828151948592016102e5565b0190565b60405190604082018281106001600160401b038211176107f9576040526012825271139bc81a5b9a5d1a585b08155492481cd95d60721b6020830152565b6121b46104f0600b5460ff1690565b1561221b576121c4600c54610a3a565b156122125761033e6121d86121f39261228a565b6122046040519384926121ed602085016120ef565b90612150565b64173539b7b760d91b815260050190565b03601f198101835282610819565b5061033e612167565b612226600a54610a3a565b1561224f5761033e61223a6121f39261228a565b6122046040519384926121ed6020850161207b565b5061033e610a74565b906122628261083a565b61226f6040519182610819565b8281528092612280601f199161083a565b0190602036910137565b6000908072184f03e93ff9f4daa797ed6e38ed64bf6a1f0160401b808210156123ba575b506d04ee2d6d415b85acef8100000000808310156123ab575b50662386f26fc100008083101561239c575b506305f5e1008083101561238d575b506127108083101561237e575b50606482101561236e575b600a80921015612364575b60019081602161231c828701612258565b95860101905b61232e575b5050505090565b600019019083906f181899199a1a9b1b9c1cb0b131b232b360811b8282061a83530491821561235f57919082612322565b612327565b916001019161230b565b9190606460029104910191612300565b600491939204910191386122f5565b600891939204910191386122e8565b601091939204910191386122d9565b602091939204910191386122c7565b6040935081049150386122ae56fec65a7bb8d6351c1cf70c95a316cc6a92839c986682d98bc35f958f4883f9d2a8ddf252ad1be2c89b69c2b068fc378daa952ba7f163c4a11628f55a4df523b3efa26469706673582212205c6c3065dbed4cb1ef52e588a40a3314d84dd4ffc55c1f94fd64a404e4acc06264736f6c63430008130033",
          "opcodes": "PUSH1 0x80 PUSH1 0x40 MSTORE CALLVALUE PUSH3 0x557 JUMPI PUSH3 0x29F7 DUP1 CODESIZE SUB DUP1 PUSH3 0x1D DUP2 PUSH3 0x592 JUMP JUMPDEST SWAP3 DUP4 CODECOPY DUP2 ADD SWAP1 PUSH1 0x20 DUP1 DUP3 DUP5 SUB SLT PUSH3 0x557 JUMPI DUP2 MLOAD PUSH1 0x1 PUSH1 0x1 PUSH1 0x40 SHL SUB SWAP3 DUP4 DUP3 GT PUSH3 0x557 JUMPI ADD SWAP3 PUSH1 0x1F DUP2 DUP2 DUP7 ADD SLT ISZERO PUSH3 0x557 JUMPI DUP5 MLOAD DUP5 DUP2 GT PUSH3 0x55C JUMPI PUSH1 0x1F NOT SWAP6 PUSH3 0x70 DUP3 DUP5 ADD DUP9 AND DUP7 ADD PUSH3 0x592 JUMP JUMPDEST SWAP4 DUP3 DUP6 MSTORE DUP6 DUP4 DUP4 ADD ADD GT PUSH3 0x557 JUMPI DUP5 SWAP1 PUSH1 0x0 JUMPDEST DUP4 DUP2 LT PUSH3 0x542 JUMPI POP POP PUSH1 0x0 SWAP2 DUP5 ADD ADD MSTORE PUSH3 0x9F PUSH3 0x572 JUMP JUMPDEST SWAP2 PUSH1 0x14 DUP4 MSTORE PUSH32 0x4475636B205261636520446572627920506F6E64000000000000000000000000 DUP5 DUP5 ADD MSTORE PUSH3 0xD3 PUSH3 0x572 JUMP JUMPDEST SWAP4 PUSH1 0x4 DUP1 DUP7 MSTORE PUSH4 0x4452445 PUSH1 0xE4 SHL DUP3 DUP8 ADD MSTORE DUP5 MLOAD DUP8 DUP2 GT PUSH3 0x459 JUMPI PUSH1 0x2 SLOAD SWAP6 PUSH1 0x1 SWAP7 DUP8 DUP2 DUP2 SHR SWAP2 AND DUP1 ISZERO PUSH3 0x537 JUMPI JUMPDEST DUP6 DUP3 LT EQ PUSH3 0x439 JUMPI SWAP1 DUP2 DUP8 DUP5 SWAP4 GT PUSH3 0x4E0 JUMPI JUMPDEST POP DUP5 SWAP1 DUP8 DUP4 GT PUSH1 0x1 EQ PUSH3 0x47A JUMPI PUSH1 0x0 SWAP3 PUSH3 0x46E JUMPI JUMPDEST POP POP PUSH1 0x0 NOT PUSH1 0x3 DUP4 SWAP1 SHL SHR NOT AND SWAP1 DUP7 SHL OR PUSH1 0x2 SSTORE JUMPDEST DUP6 MLOAD DUP8 DUP2 GT PUSH3 0x459 JUMPI PUSH1 0x3 SWAP7 DUP8 SLOAD DUP8 DUP2 DUP2 SHR SWAP2 AND DUP1 ISZERO PUSH3 0x44E JUMPI JUMPDEST DUP6 DUP3 LT EQ PUSH3 0x439 JUMPI SWAP1 DUP2 DUP8 DUP5 SWAP4 GT PUSH3 0x3E3 JUMPI JUMPDEST POP DUP5 SWAP1 DUP8 DUP4 GT PUSH1 0x1 EQ PUSH3 0x380 JUMPI PUSH1 0x0 SWAP3 PUSH3 0x374 JUMPI JUMPDEST POP POP PUSH1 0x0 NOT DUP3 DUP10 SHL SHR NOT AND SWAP1 DUP7 SHL OR DUP7 SSTORE JUMPDEST PUSH1 0x0 DUP6 DUP2 SSTORE PUSH1 0x8 DUP1 SLOAD CALLER PUSH1 0x1 PUSH1 0x1 PUSH1 0xA0 SHL SUB NOT DUP3 AND DUP2 OR SWAP1 SWAP3 SSTORE SWAP1 SWAP2 PUSH1 0x1 PUSH1 0x1 PUSH1 0xA0 SHL SUB SWAP1 SWAP2 AND SWAP1 PUSH32 0x8BE0079C531659141344CD1FD0A4F28419497F9722A3DAAFE3B4186F6B6457E0 SWAP1 DUP1 LOG3 PUSH2 0x3E8 PUSH1 0xD SSTORE PUSH8 0x3311FC80A570000 PUSH1 0xE SSTORE DUP5 PUSH2 0xFFFF NOT PUSH1 0xF SLOAD AND OR PUSH1 0xF SSTORE DUP3 MLOAD SWAP7 DUP8 GT PUSH3 0x35F JUMPI PUSH1 0xC SLOAD SWAP1 DUP6 DUP3 DUP2 SHR SWAP3 AND DUP1 ISZERO PUSH3 0x354 JUMPI JUMPDEST DUP4 DUP4 LT EQ PUSH3 0x33F JUMPI POP DUP4 DUP2 GT PUSH3 0x2F3 JUMPI JUMPDEST POP DUP1 SWAP3 DUP7 GT PUSH1 0x1 EQ PUSH3 0x285 JUMPI POP DUP5 SWAP6 POP SWAP1 DUP5 SWAP3 SWAP2 PUSH1 0x0 SWAP6 PUSH3 0x279 JUMPI JUMPDEST POP POP SHL SWAP3 PUSH1 0x0 NOT SWAP2 SHL SHR NOT AND OR PUSH1 0xC SSTORE JUMPDEST PUSH1 0x40 MLOAD PUSH2 0x243E SWAP1 DUP2 PUSH3 0x5B9 DUP3 CODECOPY RETURN JUMPDEST ADD MLOAD SWAP4 POP CODESIZE DUP1 PUSH3 0x258 JUMP JUMPDEST SWAP4 SWAP3 SWAP6 DUP6 SWAP1 DUP2 AND PUSH1 0xC PUSH1 0x0 MSTORE DUP6 PUSH1 0x0 KECCAK256 SWAP6 PUSH1 0x0 SWAP1 JUMPDEST DUP10 DUP4 DUP4 LT PUSH3 0x2D8 JUMPI POP POP POP LT PUSH3 0x2BD JUMPI JUMPDEST POP POP POP POP DUP2 SHL ADD PUSH1 0xC SSTORE PUSH3 0x269 JUMP JUMPDEST ADD MLOAD SWAP1 PUSH1 0xF8 DUP5 PUSH1 0x0 NOT SWAP3 SHL AND SHR NOT AND SWAP1 SSTORE CODESIZE DUP1 DUP1 DUP1 PUSH3 0x2AD JUMP JUMPDEST DUP6 DUP8 ADD MLOAD DUP10 SSTORE SWAP1 SWAP8 ADD SWAP7 SWAP5 DUP6 ADD SWAP5 DUP9 SWAP4 POP SWAP1 DUP2 ADD SWAP1 PUSH3 0x29A JUMP JUMPDEST PUSH1 0xC PUSH1 0x0 MSTORE DUP2 PUSH1 0x0 KECCAK256 DUP5 DUP1 DUP10 ADD PUSH1 0x5 SHR DUP3 ADD SWAP3 DUP5 DUP11 LT PUSH3 0x335 JUMPI JUMPDEST ADD PUSH1 0x5 SHR ADD SWAP1 DUP6 SWAP1 JUMPDEST DUP3 DUP2 LT PUSH3 0x328 JUMPI POP POP PUSH3 0x23A JUMP JUMPDEST PUSH1 0x0 DUP2 SSTORE ADD DUP6 SWAP1 PUSH3 0x318 JUMP JUMPDEST SWAP3 POP DUP2 SWAP3 PUSH3 0x30F JUMP JUMPDEST PUSH1 0x22 SWAP1 PUSH4 0x4E487B71 PUSH1 0xE0 SHL PUSH1 0x0 MSTORE MSTORE PUSH1 0x24 PUSH1 0x0 REVERT JUMPDEST SWAP2 PUSH1 0x7F AND SWAP2 PUSH3 0x227 JUMP JUMPDEST PUSH1 0x41 SWAP1 PUSH4 0x4E487B71 PUSH1 0xE0 SHL PUSH1 0x0 MSTORE MSTORE PUSH1 0x24 PUSH1 0x0 REVERT JUMPDEST ADD MLOAD SWAP1 POP CODESIZE DUP1 PUSH3 0x18E JUMP JUMPDEST SWAP1 DUP12 DUP10 SWAP5 AND SWAP2 DUP11 PUSH1 0x0 MSTORE DUP7 PUSH1 0x0 KECCAK256 SWAP3 PUSH1 0x0 JUMPDEST DUP9 DUP3 DUP3 LT PUSH3 0x3CC JUMPI POP POP DUP5 GT PUSH3 0x3B3 JUMPI JUMPDEST POP POP POP DUP2 SHL ADD DUP7 SSTORE PUSH3 0x1A0 JUMP JUMPDEST ADD MLOAD PUSH1 0x0 NOT DUP4 DUP12 SHL PUSH1 0xF8 AND SHR NOT AND SWAP1 SSTORE CODESIZE DUP1 DUP1 PUSH3 0x3A5 JUMP JUMPDEST DUP4 DUP6 ADD MLOAD DUP7 SSTORE DUP13 SWAP8 SWAP1 SWAP6 ADD SWAP5 SWAP4 DUP5 ADD SWAP4 ADD PUSH3 0x392 JUMP JUMPDEST SWAP1 SWAP2 POP DUP9 PUSH1 0x0 MSTORE DUP5 PUSH1 0x0 KECCAK256 DUP8 DUP1 DUP6 ADD PUSH1 0x5 SHR DUP3 ADD SWAP3 DUP8 DUP7 LT PUSH3 0x42F JUMPI JUMPDEST SWAP2 DUP11 SWAP2 DUP7 SWAP6 SWAP5 SWAP4 ADD PUSH1 0x5 SHR ADD SWAP2 JUMPDEST DUP3 DUP2 LT PUSH3 0x41F JUMPI POP POP PUSH3 0x177 JUMP JUMPDEST PUSH1 0x0 DUP2 SSTORE DUP6 SWAP5 POP DUP11 SWAP2 ADD PUSH3 0x40F JUMP JUMPDEST SWAP3 POP DUP2 SWAP3 PUSH3 0x401 JUMP JUMPDEST PUSH1 0x22 DUP5 PUSH4 0x4E487B71 PUSH1 0xE0 SHL PUSH1 0x0 MSTORE MSTORE PUSH1 0x24 PUSH1 0x0 REVERT JUMPDEST SWAP1 PUSH1 0x7F AND SWAP1 PUSH3 0x162 JUMP JUMPDEST PUSH1 0x41 DUP3 PUSH4 0x4E487B71 PUSH1 0xE0 SHL PUSH1 0x0 MSTORE MSTORE PUSH1 0x24 PUSH1 0x0 REVERT JUMPDEST ADD MLOAD SWAP1 POP CODESIZE DUP1 PUSH3 0x130 JUMP JUMPDEST SWAP1 DUP12 DUP10 SWAP5 AND SWAP2 PUSH1 0x2 PUSH1 0x0 MSTORE DUP7 PUSH1 0x0 KECCAK256 SWAP3 PUSH1 0x0 JUMPDEST DUP9 DUP3 DUP3 LT PUSH3 0x4C9 JUMPI POP POP DUP5 GT PUSH3 0x4AF JUMPI JUMPDEST POP POP POP DUP2 SHL ADD PUSH1 0x2 SSTORE PUSH3 0x145 JUMP JUMPDEST ADD MLOAD PUSH1 0x0 NOT PUSH1 0xF8 DUP5 PUSH1 0x3 SHL AND SHR NOT AND SWAP1 SSTORE CODESIZE DUP1 DUP1 PUSH3 0x4A0 JUMP JUMPDEST DUP4 DUP6 ADD MLOAD DUP7 SSTORE DUP13 SWAP8 SWAP1 SWAP6 ADD SWAP5 SWAP4 DUP5 ADD SWAP4 ADD PUSH3 0x48D JUMP JUMPDEST SWAP1 SWAP2 POP PUSH1 0x2 PUSH1 0x0 MSTORE DUP5 PUSH1 0x0 KECCAK256 DUP8 DUP1 DUP6 ADD PUSH1 0x5 SHR DUP3 ADD SWAP3 DUP8 DUP7 LT PUSH3 0x52D JUMPI JUMPDEST SWAP2 DUP11 SWAP2 DUP7 SWAP6 SWAP5 SWAP4 ADD PUSH1 0x5 SHR ADD SWAP2 JUMPDEST DUP3 DUP2 LT PUSH3 0x51D JUMPI POP POP PUSH3 0x119 JUMP JUMPDEST PUSH1 0x0 DUP2 SSTORE DUP6 SWAP5 POP DUP11 SWAP2 ADD PUSH3 0x50D JUMP JUMPDEST SWAP3 POP DUP2 SWAP3 PUSH3 0x4FF JUMP JUMPDEST SWAP1 PUSH1 0x7F AND SWAP1 PUSH3 0x104 JUMP JUMPDEST DUP2 DUP2 ADD DUP4 ADD MLOAD DUP7 DUP3 ADD DUP5 ADD MSTORE DUP7 SWAP3 ADD PUSH3 0x84 JUMP JUMPDEST PUSH1 0x0 DUP1 REVERT JUMPDEST PUSH4 0x4E487B71 PUSH1 0xE0 SHL PUSH1 0x0 MSTORE PUSH1 0x41 PUSH1 0x4 MSTORE PUSH1 0x24 PUSH1 0x0 REVERT JUMPDEST PUSH1 0x40 DUP1 MLOAD SWAP2 SWAP1 DUP3 ADD PUSH1 0x1 PUSH1 0x1 PUSH1 0x40 SHL SUB DUP2 GT DUP4 DUP3 LT OR PUSH3 0x55C JUMPI PUSH1 0x40 MSTORE JUMP JUMPDEST PUSH1 0x40 MLOAD SWAP2 SWAP1 PUSH1 0x1F ADD PUSH1 0x1F NOT AND DUP3 ADD PUSH1 0x1 PUSH1 0x1 PUSH1 0x40 SHL SUB DUP2 GT DUP4 DUP3 LT OR PUSH3 0x55C JUMPI PUSH1 0x40 MSTORE JUMP INVALID PUSH1 0x80 PUSH1 0x40 MSTORE PUSH1 0x4 CALLDATASIZE LT ISZERO PUSH2 0x1B JUMPI JUMPDEST CALLDATASIZE ISZERO PUSH2 0x19 JUMPI PUSH1 0x0 DUP1 REVERT JUMPDEST STOP JUMPDEST PUSH1 0x0 CALLDATALOAD PUSH1 0xE0 SHR DUP1 PUSH4 0x1FFC9A7 EQ PUSH2 0x25B JUMPI DUP1 PUSH4 0x6FDDE03 EQ PUSH2 0x256 JUMPI DUP1 PUSH4 0x81812FC EQ PUSH2 0x251 JUMPI DUP1 PUSH4 0x95EA7B3 EQ PUSH2 0x24C JUMPI DUP1 PUSH4 0x18160DDD EQ PUSH2 0x247 JUMPI DUP1 PUSH4 0x1C9641FB EQ PUSH2 0x242 JUMPI DUP1 PUSH4 0x1E7269C5 EQ PUSH2 0x23D JUMPI DUP1 PUSH4 0x23B872DD EQ PUSH2 0x238 JUMPI DUP1 PUSH4 0x24BBD049 EQ PUSH2 0x233 JUMPI DUP1 PUSH4 0x24D7806C EQ PUSH2 0x22E JUMPI DUP1 PUSH4 0x35DC3C68 EQ PUSH2 0x229 JUMPI DUP1 PUSH4 0x42842E0E EQ PUSH2 0x224 JUMPI DUP1 PUSH4 0x453C2310 EQ PUSH2 0x21F JUMPI DUP1 PUSH4 0x4B0BDDD2 EQ PUSH2 0x21A JUMPI DUP1 PUSH4 0x54214F69 EQ PUSH2 0x215 JUMPI DUP1 PUSH4 0x55F804B3 EQ PUSH2 0x210 JUMPI DUP1 PUSH4 0x6352211E EQ PUSH2 0x20B JUMPI DUP1 PUSH4 0x6817C76C EQ PUSH2 0x206 JUMPI DUP1 PUSH4 0x6C0360EB EQ PUSH2 0x201 JUMPI DUP1 PUSH4 0x6D818560 EQ PUSH2 0x1FC JUMPI DUP1 PUSH4 0x70A08231 EQ PUSH2 0x1F7 JUMPI DUP1 PUSH4 0x715018A6 EQ PUSH2 0x1F2 JUMPI DUP1 PUSH4 0x8DA5CB5B EQ PUSH2 0x1ED JUMPI DUP1 PUSH4 0x95D89B41 EQ PUSH2 0x1E8 JUMPI DUP1 PUSH4 0xA0712D68 EQ PUSH2 0x1E3 JUMPI DUP1 PUSH4 0xA22CB465 EQ PUSH2 0x1DE JUMPI DUP1 PUSH4 0xA32A7B65 EQ PUSH2 0x1D9 JUMPI DUP1 PUSH4 0xAF3DA2F4 EQ PUSH2 0x1D4 JUMPI DUP1 PUSH4 0xB88D4FDE EQ PUSH2 0x1CF JUMPI DUP1 PUSH4 0xC87B56DD EQ PUSH2 0x1CA JUMPI DUP1 PUSH4 0xC9A23077 EQ PUSH2 0x1C5 JUMPI DUP1 PUSH4 0xD5ABEB01 EQ PUSH2 0x1C0 JUMPI DUP1 PUSH4 0xE837EAD9 EQ PUSH2 0x1BB JUMPI DUP1 PUSH4 0xE985E9C5 EQ PUSH2 0x1B6 JUMPI DUP1 PUSH4 0xF2FDE38B EQ PUSH2 0x1B1 JUMPI PUSH4 0xFDFF9B81 SUB PUSH2 0xE JUMPI PUSH2 0x14CA JUMP JUMPDEST PUSH2 0x1407 JUMP JUMPDEST PUSH2 0x13AA JUMP JUMPDEST PUSH2 0x1330 JUMP JUMPDEST PUSH2 0x1312 JUMP JUMPDEST PUSH2 0x12F6 JUMP JUMPDEST PUSH2 0x12C3 JUMP JUMPDEST PUSH2 0x1264 JUMP JUMPDEST PUSH2 0x11B9 JUMP JUMPDEST PUSH2 0x1091 JUMP JUMPDEST PUSH2 0xFDE JUMP JUMPDEST PUSH2 0xE74 JUMP JUMPDEST PUSH2 0xDD0 JUMP JUMPDEST PUSH2 0xDA7 JUMP JUMPDEST PUSH2 0xD49 JUMP JUMPDEST PUSH2 0xD1E JUMP JUMPDEST PUSH2 0xBC3 JUMP JUMPDEST PUSH2 0xB31 JUMP JUMPDEST PUSH2 0xA1C JUMP JUMPDEST PUSH2 0x9EC JUMP JUMPDEST PUSH2 0x8D1 JUMP JUMPDEST PUSH2 0x7A5 JUMP JUMPDEST PUSH2 0x727 JUMP JUMPDEST PUSH2 0x6F6 JUMP JUMPDEST PUSH2 0x6CE JUMP JUMPDEST PUSH2 0x655 JUMP JUMPDEST PUSH2 0x616 JUMP JUMPDEST PUSH2 0x5F0 JUMP JUMPDEST PUSH2 0x5D9 JUMP JUMPDEST PUSH2 0x565 JUMP JUMPDEST PUSH2 0x544 JUMP JUMPDEST PUSH2 0x51D JUMP JUMPDEST PUSH2 0x47D JUMP JUMPDEST PUSH2 0x421 JUMP JUMPDEST PUSH2 0x341 JUMP JUMPDEST PUSH2 0x277 JUMP JUMPDEST PUSH1 0x1 PUSH1 0x1 PUSH1 0xE0 SHL SUB NOT DUP2 AND SUB PUSH2 0x272 JUMPI JUMP JUMPDEST PUSH1 0x0 DUP1 REVERT JUMPDEST CALLVALUE PUSH2 0x272 JUMPI PUSH1 0x20 CALLDATASIZE PUSH1 0x3 NOT ADD SLT PUSH2 0x272 JUMPI PUSH1 0x20 PUSH1 0x4 CALLDATALOAD PUSH2 0x296 DUP2 PUSH2 0x260 JUMP JUMPDEST PUSH4 0xFFFFFFFF PUSH1 0xE0 SHL AND PUSH4 0x80AC58CD PUSH1 0xE0 SHL DUP2 EQ SWAP1 DUP2 ISZERO PUSH2 0x2D4 JUMPI JUMPDEST DUP2 ISZERO PUSH2 0x2C3 JUMPI JUMPDEST POP PUSH1 0x40 MLOAD SWAP1 ISZERO ISZERO DUP2 MSTORE RETURN JUMPDEST PUSH4 0x1FFC9A7 PUSH1 0xE0 SHL EQ SWAP1 POP CODESIZE PUSH2 0x2B8 JUMP JUMPDEST PUSH4 0x5B5E139F PUSH1 0xE0 SHL DUP2 EQ SWAP2 POP PUSH2 0x2B1 JUMP JUMPDEST PUSH1 0x0 JUMPDEST DUP4 DUP2 LT PUSH2 0x2F8 JUMPI POP POP PUSH1 0x0 SWAP2 ADD MSTORE JUMP JUMPDEST DUP2 DUP2 ADD MLOAD DUP4 DUP3 ADD MSTORE PUSH1 0x20 ADD PUSH2 0x2E8 JUMP JUMPDEST SWAP1 PUSH1 0x20 SWAP2 PUSH2 0x321 DUP2 MLOAD DUP1 SWAP3 DUP2 DUP6 MSTORE DUP6 DUP1 DUP7 ADD SWAP2 ADD PUSH2 0x2E5 JUMP JUMPDEST PUSH1 0x1F ADD PUSH1 0x1F NOT AND ADD ADD SWAP1 JUMP JUMPDEST SWAP1 PUSH1 0x20 PUSH2 0x33E SWAP3 DUP2 DUP2 MSTORE ADD SWAP1 PUSH2 0x308 JUMP JUMPDEST SWAP1 JUMP JUMPDEST CALLVALUE PUSH2 0x272 JUMPI PUSH1 0x0 DUP1 PUSH1 0x3 NOT CALLDATASIZE ADD SLT PUSH2 0x41E JUMPI PUSH1 0x40 MLOAD DUP2 PUSH1 0x2 SLOAD PUSH2 0x363 DUP2 PUSH2 0xA3A JUMP JUMPDEST DUP1 DUP5 MSTORE SWAP1 PUSH1 0x1 SWAP1 DUP2 DUP2 AND SWAP1 DUP2 ISZERO PUSH2 0x3F6 JUMPI POP PUSH1 0x1 EQ PUSH2 0x39D JUMPI JUMPDEST PUSH2 0x399 DUP5 PUSH2 0x38D DUP2 DUP9 SUB DUP3 PUSH2 0x819 JUMP JUMPDEST PUSH1 0x40 MLOAD SWAP2 DUP3 SWAP2 DUP3 PUSH2 0x32D JUMP JUMPDEST SUB SWAP1 RETURN JUMPDEST PUSH1 0x2 DUP4 MSTORE PUSH1 0x20 SWAP5 POP PUSH32 0x405787FA12A823E0F2B7631CC41B3BA8828B3321CA811111FA75CD3AA3BB5ACE JUMPDEST DUP3 DUP5 LT PUSH2 0x3E3 JUMPI POP POP POP DUP2 PUSH2 0x399 SWAP4 PUSH2 0x38D SWAP3 DUP3 ADD ADD SWAP4 PUSH2 0x37D JUMP JUMPDEST DUP1 SLOAD DUP6 DUP6 ADD DUP8 ADD MSTORE SWAP3 DUP6 ADD SWAP3 DUP2 ADD PUSH2 0x3C7 JUMP JUMPDEST PUSH2 0x399 SWAP7 POP PUSH2 0x38D SWAP5 POP PUSH1 0x20 SWAP3 POP DUP6 SWAP4 SWAP2 POP PUSH1 0xFF NOT AND DUP3 DUP5 ADD MSTORE ISZERO ISZERO PUSH1 0x5 SHL DUP3 ADD ADD SWAP4 PUSH2 0x37D JUMP JUMPDEST DUP1 REVERT JUMPDEST CALLVALUE PUSH2 0x272 JUMPI PUSH1 0x20 CALLDATASIZE PUSH1 0x3 NOT ADD SLT PUSH2 0x272 JUMPI PUSH1 0x20 PUSH2 0x43F PUSH1 0x4 CALLDATALOAD PUSH2 0x16BD JUMP JUMPDEST PUSH1 0x40 MLOAD PUSH1 0x1 PUSH1 0x1 PUSH1 0xA0 SHL SUB SWAP1 SWAP2 AND DUP2 MSTORE RETURN JUMPDEST PUSH1 0x4 CALLDATALOAD SWAP1 PUSH1 0x1 PUSH1 0x1 PUSH1 0xA0 SHL SUB DUP3 AND DUP3 SUB PUSH2 0x272 JUMPI JUMP JUMPDEST PUSH1 0x24 CALLDATALOAD SWAP1 PUSH1 0x1 PUSH1 0x1 PUSH1 0xA0 SHL SUB DUP3 AND DUP3 SUB PUSH2 0x272 JUMPI JUMP JUMPDEST CALLVALUE PUSH2 0x272 JUMPI PUSH1 0x40 CALLDATASIZE PUSH1 0x3 NOT ADD SLT PUSH2 0x272 JUMPI PUSH2 0x496 PUSH2 0x451 JUMP JUMPDEST PUSH1 0x1 PUSH1 0x1 PUSH1 0xA0 SHL SUB PUSH1 0x24 CALLDATALOAD DUP2 PUSH2 0x4AB DUP3 PUSH2 0x15F4 JUMP JUMPDEST MLOAD AND DUP1 SWAP3 DUP5 AND EQ PUSH2 0x50B JUMPI DUP2 CALLER SUB PUSH2 0x4C7 JUMPI JUMPDEST PUSH2 0x19 SWAP3 PUSH2 0x1A3B JUMP JUMPDEST PUSH1 0x0 DUP3 DUP2 MSTORE PUSH1 0x7 PUSH1 0x20 SWAP1 DUP2 MSTORE PUSH1 0x40 DUP1 DUP4 KECCAK256 CALLER DUP5 MSTORE SWAP1 SWAP2 MSTORE SWAP1 KECCAK256 PUSH2 0x4F4 SWAP1 PUSH2 0x4F0 SWAP1 JUMPDEST SLOAD PUSH1 0xFF AND SWAP1 JUMP JUMPDEST ISZERO SWAP1 JUMP JUMPDEST ISZERO PUSH2 0x4BE JUMPI PUSH1 0x40 MLOAD PUSH4 0x67D9DCA1 PUSH1 0xE1 SHL DUP2 MSTORE PUSH1 0x4 SWAP1 REVERT JUMPDEST PUSH1 0x40 MLOAD PUSH4 0x250FDEE3 PUSH1 0xE2 SHL DUP2 MSTORE PUSH1 0x4 SWAP1 REVERT JUMPDEST CALLVALUE PUSH2 0x272 JUMPI PUSH1 0x0 CALLDATASIZE PUSH1 0x3 NOT ADD SLT PUSH2 0x272 JUMPI PUSH1 0x0 SLOAD PUSH1 0x1 SLOAD PUSH1 0x40 MLOAD SWAP2 SUB PUSH1 0x0 NOT ADD DUP2 MSTORE PUSH1 0x20 SWAP1 RETURN JUMPDEST CALLVALUE PUSH2 0x272 JUMPI PUSH1 0x20 CALLDATASIZE PUSH1 0x3 NOT ADD SLT PUSH2 0x272 JUMPI PUSH2 0x55D PUSH2 0x1505 JUMP JUMPDEST PUSH1 0x4 CALLDATALOAD PUSH1 0xE SSTORE STOP JUMPDEST CALLVALUE PUSH2 0x272 JUMPI PUSH1 0x20 CALLDATASIZE PUSH1 0x3 NOT ADD SLT PUSH2 0x272 JUMPI PUSH1 0x1 PUSH1 0x1 PUSH1 0xA0 SHL SUB PUSH2 0x586 PUSH2 0x451 JUMP JUMPDEST AND PUSH1 0x0 MSTORE PUSH1 0x10 PUSH1 0x20 MSTORE PUSH1 0x20 PUSH1 0xFF PUSH1 0x40 PUSH1 0x0 KECCAK256 SLOAD AND PUSH1 0x40 MLOAD SWAP1 ISZERO ISZERO DUP2 MSTORE RETURN JUMPDEST PUSH1 0x60 SWAP1 PUSH1 0x3 NOT ADD SLT PUSH2 0x272 JUMPI PUSH1 0x1 PUSH1 0x1 PUSH1 0xA0 SHL SUB SWAP1 PUSH1 0x4 CALLDATALOAD DUP3 DUP2 AND DUP2 SUB PUSH2 0x272 JUMPI SWAP2 PUSH1 0x24 CALLDATALOAD SWAP1 DUP2 AND DUP2 SUB PUSH2 0x272 JUMPI SWAP1 PUSH1 0x44 CALLDATALOAD SWAP1 JUMP JUMPDEST CALLVALUE PUSH2 0x272 JUMPI PUSH2 0x19 PUSH2 0x5EA CALLDATASIZE PUSH2 0x5A4 JUMP JUMPDEST SWAP2 PUSH2 0x1796 JUMP JUMPDEST CALLVALUE PUSH2 0x272 JUMPI PUSH1 0x0 CALLDATASIZE PUSH1 0x3 NOT ADD SLT PUSH2 0x272 JUMPI PUSH1 0x20 PUSH1 0xFF PUSH1 0xB SLOAD PUSH1 0x8 SHR AND PUSH1 0x40 MLOAD SWAP1 ISZERO ISZERO DUP2 MSTORE RETURN JUMPDEST CALLVALUE PUSH2 0x272 JUMPI PUSH1 0x20 CALLDATASIZE PUSH1 0x3 NOT ADD SLT PUSH2 0x272 JUMPI PUSH1 0x1 PUSH1 0x1 PUSH1 0xA0 SHL SUB PUSH2 0x637 PUSH2 0x451 JUMP JUMPDEST AND PUSH1 0x0 MSTORE PUSH1 0x9 PUSH1 0x20 MSTORE PUSH1 0x20 PUSH1 0xFF PUSH1 0x40 PUSH1 0x0 KECCAK256 SLOAD AND PUSH1 0x40 MLOAD SWAP1 ISZERO ISZERO DUP2 MSTORE RETURN JUMPDEST CALLVALUE PUSH2 0x272 JUMPI PUSH1 0x20 CALLDATASIZE PUSH1 0x3 NOT ADD SLT PUSH2 0x272 JUMPI PUSH1 0x4 CALLDATALOAD PUSH2 0xFFFF DUP2 AND DUP1 SWAP2 SUB PUSH2 0x272 JUMPI PUSH2 0x67D PUSH2 0x1505 JUMP JUMPDEST DUP1 ISZERO PUSH2 0x694 JUMPI PUSH2 0xFFFF NOT PUSH1 0xF SLOAD AND OR PUSH1 0xF SSTORE PUSH1 0x0 DUP1 RETURN JUMPDEST PUSH1 0x40 MLOAD PUSH3 0x461BCD PUSH1 0xE5 SHL DUP2 MSTORE PUSH1 0x20 PUSH1 0x4 DUP3 ADD MSTORE PUSH1 0x12 PUSH1 0x24 DUP3 ADD MSTORE PUSH18 0x43616E6E6F742073657420746F207A65726F PUSH1 0x70 SHL PUSH1 0x44 DUP3 ADD MSTORE PUSH1 0x64 SWAP1 REVERT JUMPDEST CALLVALUE PUSH2 0x272 JUMPI PUSH2 0x19 PUSH2 0x6DF CALLDATASIZE PUSH2 0x5A4 JUMP JUMPDEST SWAP1 PUSH1 0x40 MLOAD SWAP3 PUSH2 0x6ED DUP5 PUSH2 0x7FE JUMP JUMPDEST PUSH1 0x0 DUP5 MSTORE PUSH2 0x1727 JUMP JUMPDEST CALLVALUE PUSH2 0x272 JUMPI PUSH1 0x0 CALLDATASIZE PUSH1 0x3 NOT ADD SLT PUSH2 0x272 JUMPI PUSH1 0x20 PUSH2 0xFFFF PUSH1 0xF SLOAD AND PUSH1 0x40 MLOAD SWAP1 DUP2 MSTORE RETURN JUMPDEST PUSH1 0x24 CALLDATALOAD SWAP1 DUP2 ISZERO ISZERO DUP3 SUB PUSH2 0x272 JUMPI JUMP JUMPDEST CALLVALUE PUSH2 0x272 JUMPI PUSH1 0x40 CALLDATASIZE PUSH1 0x3 NOT ADD SLT PUSH2 0x272 JUMPI PUSH2 0x740 PUSH2 0x451 JUMP JUMPDEST PUSH32 0xE68D2C359A771606C400CF8B87000CF5864010363D6A736E98F5047B7BBE18E9 PUSH1 0x20 PUSH2 0x76B PUSH2 0x718 JUMP JUMPDEST SWAP3 PUSH2 0x774 PUSH2 0x1505 JUMP JUMPDEST PUSH1 0x1 PUSH1 0x1 PUSH1 0xA0 SHL SUB AND PUSH1 0x0 DUP2 DUP2 MSTORE PUSH1 0x9 DUP4 MSTORE PUSH1 0x40 SWAP1 KECCAK256 DUP1 SLOAD PUSH1 0xFF NOT AND PUSH1 0xFF DUP7 ISZERO ISZERO AND OR SWAP1 SSTORE SWAP3 PUSH1 0x40 MLOAD SWAP1 ISZERO ISZERO DUP2 MSTORE LOG2 STOP JUMPDEST CALLVALUE PUSH2 0x272 JUMPI PUSH1 0x0 CALLDATASIZE PUSH1 0x3 NOT ADD SLT PUSH2 0x272 JUMPI PUSH1 0x20 PUSH1 0xFF PUSH1 0xB SLOAD AND PUSH1 0x40 MLOAD SWAP1 ISZERO ISZERO DUP2 MSTORE RETURN JUMPDEST PUSH4 0x4E487B71 PUSH1 0xE0 SHL PUSH1 0x0 MSTORE PUSH1 0x41 PUSH1 0x4 MSTORE PUSH1 0x24 PUSH1 0x0 REVERT JUMPDEST PUSH1 0x60 DUP2 ADD SWAP1 DUP2 LT PUSH1 0x1 PUSH1 0x1 PUSH1 0x40 SHL SUB DUP3 GT OR PUSH2 0x7F9 JUMPI PUSH1 0x40 MSTORE JUMP JUMPDEST PUSH2 0x7C8 JUMP JUMPDEST PUSH1 0x20 DUP2 ADD SWAP1 DUP2 LT PUSH1 0x1 PUSH1 0x1 PUSH1 0x40 SHL SUB DUP3 GT OR PUSH2 0x7F9 JUMPI PUSH1 0x40 MSTORE JUMP JUMPDEST SWAP1 PUSH1 0x1F DUP1 NOT SWAP2 ADD AND DUP2 ADD SWAP1 DUP2 LT PUSH1 0x1 PUSH1 0x1 PUSH1 0x40 SHL SUB DUP3 GT OR PUSH2 0x7F9 JUMPI PUSH1 0x40 MSTORE JUMP JUMPDEST PUSH1 0x1 PUSH1 0x1 PUSH1 0x40 SHL SUB DUP2 GT PUSH2 0x7F9 JUMPI PUSH1 0x1F ADD PUSH1 0x1F NOT AND PUSH1 0x20 ADD SWAP1 JUMP JUMPDEST SWAP3 SWAP2 SWAP3 PUSH2 0x861 DUP3 PUSH2 0x83A JUMP JUMPDEST SWAP2 PUSH2 0x86F PUSH1 0x40 MLOAD SWAP4 DUP5 PUSH2 0x819 JUMP JUMPDEST DUP3 SWAP5 DUP2 DUP5 MSTORE DUP2 DUP4 ADD GT PUSH2 0x272 JUMPI DUP3 DUP2 PUSH1 0x20 SWAP4 DUP5 PUSH1 0x0 SWAP7 ADD CALLDATACOPY ADD ADD MSTORE JUMP JUMPDEST SWAP1 DUP1 PUSH1 0x1F DUP4 ADD SLT ISZERO PUSH2 0x272 JUMPI DUP2 PUSH1 0x20 PUSH2 0x33E SWAP4 CALLDATALOAD SWAP2 ADD PUSH2 0x855 JUMP JUMPDEST PUSH1 0x20 PUSH1 0x3 NOT DUP3 ADD SLT PUSH2 0x272 JUMPI PUSH1 0x4 CALLDATALOAD SWAP1 PUSH1 0x1 PUSH1 0x1 PUSH1 0x40 SHL SUB DUP3 GT PUSH2 0x272 JUMPI PUSH2 0x33E SWAP2 PUSH1 0x4 ADD PUSH2 0x88C JUMP JUMPDEST CALLVALUE PUSH2 0x272 JUMPI PUSH2 0x8DF CALLDATASIZE PUSH2 0x8A7 JUMP JUMPDEST PUSH2 0x8E7 PUSH2 0x1505 JUMP JUMPDEST DUP1 MLOAD PUSH1 0x1 PUSH1 0x1 PUSH1 0x40 SHL SUB DUP2 GT PUSH2 0x7F9 JUMPI PUSH2 0x90B DUP2 PUSH2 0x906 PUSH1 0xA SLOAD PUSH2 0xA3A JUMP JUMPDEST PUSH2 0x1FD3 JUMP JUMPDEST DUP1 PUSH1 0x20 DUP1 PUSH1 0x1F DUP4 GT PUSH1 0x1 EQ PUSH2 0x978 JUMPI POP PUSH1 0x0 SWAP2 PUSH2 0x96D JUMPI JUMPDEST POP DUP2 PUSH1 0x1 SHL SWAP2 PUSH1 0x0 NOT SWAP1 PUSH1 0x3 SHL SHR NOT AND OR PUSH1 0xA SSTORE JUMPDEST PUSH32 0xF765B68B6FF897DE964353A0EB194E46ECEA8772879EB880B4B0FD277124922C PUSH1 0x40 MLOAD DUP1 PUSH2 0x968 CALLER SWAP5 DUP3 PUSH2 0x32D JUMP JUMPDEST SUB SWAP1 LOG2 STOP JUMPDEST SWAP1 POP DUP3 ADD MLOAD CODESIZE PUSH2 0x923 JUMP JUMPDEST PUSH1 0xA PUSH1 0x0 MSTORE SWAP2 POP PUSH1 0x1F NOT DUP4 AND PUSH1 0x0 DUP1 MLOAD PUSH1 0x20 PUSH2 0x23C9 DUP4 CODECOPY DUP2 MLOAD SWAP2 MSTORE SWAP3 PUSH1 0x0 SWAP1 JUMPDEST DUP3 DUP3 LT PUSH2 0x9D4 JUMPI POP POP SWAP1 DUP4 PUSH1 0x1 SWAP5 SWAP4 SWAP3 LT PUSH2 0x9BB JUMPI JUMPDEST POP POP DUP2 SHL ADD PUSH1 0xA SSTORE PUSH2 0x938 JUMP JUMPDEST DUP5 ADD MLOAD PUSH1 0x0 NOT PUSH1 0xF8 DUP5 PUSH1 0x3 SHL AND SHR NOT AND SWAP1 SSTORE CODESIZE DUP1 PUSH2 0x9AE JUMP JUMPDEST DUP1 PUSH1 0x1 DUP6 SWAP7 DUP3 SWAP5 SWAP7 DUP11 ADD MLOAD DUP2 SSTORE ADD SWAP6 ADD SWAP4 ADD SWAP1 PUSH2 0x998 JUMP JUMPDEST CALLVALUE PUSH2 0x272 JUMPI PUSH1 0x20 CALLDATASIZE PUSH1 0x3 NOT ADD SLT PUSH2 0x272 JUMPI PUSH1 0x20 PUSH1 0x1 PUSH1 0x1 PUSH1 0xA0 SHL SUB PUSH2 0xA12 PUSH1 0x4 CALLDATALOAD PUSH2 0x15F4 JUMP JUMPDEST MLOAD AND PUSH1 0x40 MLOAD SWAP1 DUP2 MSTORE RETURN JUMPDEST CALLVALUE PUSH2 0x272 JUMPI PUSH1 0x0 CALLDATASIZE PUSH1 0x3 NOT ADD SLT PUSH2 0x272 JUMPI PUSH1 0x20 PUSH1 0xE SLOAD PUSH1 0x40 MLOAD SWAP1 DUP2 MSTORE RETURN JUMPDEST SWAP1 PUSH1 0x1 DUP3 DUP2 SHR SWAP3 AND DUP1 ISZERO PUSH2 0xA6A JUMPI JUMPDEST PUSH1 0x20 DUP4 LT EQ PUSH2 0xA54 JUMPI JUMP JUMPDEST PUSH4 0x4E487B71 PUSH1 0xE0 SHL PUSH1 0x0 MSTORE PUSH1 0x22 PUSH1 0x4 MSTORE PUSH1 0x24 PUSH1 0x0 REVERT JUMPDEST SWAP2 PUSH1 0x7F AND SWAP2 PUSH2 0xA49 JUMP JUMPDEST PUSH1 0x40 MLOAD SWAP1 PUSH1 0x0 DUP3 PUSH1 0xC SLOAD SWAP2 PUSH2 0xA88 DUP4 PUSH2 0xA3A JUMP JUMPDEST DUP1 DUP4 MSTORE PUSH1 0x1 SWAP4 DUP1 DUP6 AND SWAP1 DUP2 ISZERO PUSH2 0xB10 JUMPI POP PUSH1 0x1 EQ PUSH2 0xAB0 JUMPI JUMPDEST POP PUSH2 0xAAE SWAP3 POP SUB DUP4 PUSH2 0x819 JUMP JUMPDEST JUMP JUMPDEST PUSH1 0xC PUSH1 0x0 SWAP1 DUP2 MSTORE PUSH32 0xDF6966C971051C3D54EC59162606531493A51404A002842F56009D7E5CF4A8C7 SWAP5 PUSH1 0x20 SWAP4 POP SWAP1 SWAP2 SWAP1 JUMPDEST DUP2 DUP4 LT PUSH2 0xAF8 JUMPI POP POP PUSH2 0xAAE SWAP4 POP DUP3 ADD ADD CODESIZE PUSH2 0xAA1 JUMP JUMPDEST DUP6 SLOAD DUP9 DUP5 ADD DUP6 ADD MSTORE SWAP5 DUP6 ADD SWAP5 DUP8 SWAP5 POP SWAP2 DUP4 ADD SWAP2 PUSH2 0xAE1 JUMP JUMPDEST SWAP1 POP PUSH2 0xAAE SWAP5 POP PUSH1 0x20 SWAP3 POP PUSH1 0xFF NOT AND DUP3 DUP5 ADD MSTORE ISZERO ISZERO PUSH1 0x5 SHL DUP3 ADD ADD CODESIZE PUSH2 0xAA1 JUMP JUMPDEST CALLVALUE PUSH2 0x272 JUMPI PUSH1 0x0 DUP1 PUSH1 0x3 NOT CALLDATASIZE ADD SLT PUSH2 0x41E JUMPI PUSH1 0x40 MLOAD DUP2 PUSH1 0xA SLOAD PUSH2 0xB53 DUP2 PUSH2 0xA3A JUMP JUMPDEST DUP1 DUP5 MSTORE SWAP1 PUSH1 0x1 SWAP1 DUP2 DUP2 AND SWAP1 DUP2 ISZERO PUSH2 0x3F6 JUMPI POP PUSH1 0x1 EQ PUSH2 0xB7C JUMPI PUSH2 0x399 DUP5 PUSH2 0x38D DUP2 DUP9 SUB DUP3 PUSH2 0x819 JUMP JUMPDEST PUSH1 0xA DUP4 MSTORE PUSH1 0x20 SWAP5 POP PUSH1 0x0 DUP1 MLOAD PUSH1 0x20 PUSH2 0x23C9 DUP4 CODECOPY DUP2 MLOAD SWAP2 MSTORE JUMPDEST DUP3 DUP5 LT PUSH2 0xBB0 JUMPI POP POP POP DUP2 PUSH2 0x399 SWAP4 PUSH2 0x38D SWAP3 DUP3 ADD ADD SWAP4 PUSH2 0x37D JUMP JUMPDEST DUP1 SLOAD DUP6 DUP6 ADD DUP8 ADD MSTORE SWAP3 DUP6 ADD SWAP3 DUP2 ADD PUSH2 0xB94 JUMP JUMPDEST CALLVALUE PUSH2 0x272 JUMPI PUSH1 0x40 CALLDATASIZE PUSH1 0x3 NOT ADD SLT PUSH2 0x272 JUMPI PUSH1 0x1 PUSH1 0x1 PUSH1 0x40 SHL SUB PUSH1 0x4 CALLDATALOAD DUP2 DUP2 GT PUSH2 0x272 JUMPI PUSH2 0xBF4 SWAP1 CALLDATASIZE SWAP1 PUSH1 0x4 ADD PUSH2 0x88C JUMP JUMPDEST SWAP1 PUSH2 0xBFD PUSH2 0x718 JUMP JUMPDEST PUSH2 0xC05 PUSH2 0x1505 JUMP JUMPDEST PUSH1 0xFF DUP1 NOT PUSH1 0xB SLOAD AND SWAP2 ISZERO ISZERO AND OR PUSH1 0xB SSTORE PUSH1 0x40 MLOAD PUSH32 0xFFCD326B78E78031A693E986F76BFA19D1B13F1FE4B2EC67C23F46456EE100DE CALLER SWAP2 DUP1 PUSH2 0xC46 DUP7 DUP3 PUSH2 0x32D JUMP JUMPDEST SUB SWAP1 LOG2 PUSH2 0xC51 PUSH2 0x1505 JUMP JUMPDEST DUP2 MLOAD SWAP1 DUP2 GT PUSH2 0x7F9 JUMPI PUSH2 0xC69 DUP2 PUSH2 0x906 PUSH1 0xA SLOAD PUSH2 0xA3A JUMP JUMPDEST DUP1 PUSH1 0x20 DUP1 PUSH1 0x1F DUP4 GT PUSH1 0x1 EQ PUSH2 0xCC4 JUMPI POP PUSH1 0x0 SWAP2 PUSH2 0x96D JUMPI POP DUP2 PUSH1 0x1 SHL SWAP2 PUSH1 0x0 NOT SWAP1 PUSH1 0x3 SHL SHR NOT AND OR PUSH1 0xA SSTORE PUSH32 0xF765B68B6FF897DE964353A0EB194E46ECEA8772879EB880B4B0FD277124922C PUSH1 0x40 MLOAD DUP1 PUSH2 0x968 CALLER SWAP5 DUP3 PUSH2 0x32D JUMP JUMPDEST PUSH1 0xA PUSH1 0x0 MSTORE SWAP2 POP PUSH1 0x1F NOT DUP4 AND PUSH1 0x0 DUP1 MLOAD PUSH1 0x20 PUSH2 0x23C9 DUP4 CODECOPY DUP2 MLOAD SWAP2 MSTORE SWAP3 PUSH1 0x0 SWAP1 JUMPDEST DUP3 DUP3 LT PUSH2 0xD06 JUMPI POP POP SWAP1 DUP4 PUSH1 0x1 SWAP5 SWAP4 SWAP3 LT PUSH2 0x9BB JUMPI POP POP DUP2 SHL ADD PUSH1 0xA SSTORE PUSH2 0x938 JUMP JUMPDEST DUP1 PUSH1 0x1 DUP6 SWAP7 DUP3 SWAP5 SWAP7 DUP11 ADD MLOAD DUP2 SSTORE ADD SWAP6 ADD SWAP4 ADD SWAP1 PUSH2 0xCE4 JUMP JUMPDEST CALLVALUE PUSH2 0x272 JUMPI PUSH1 0x20 CALLDATASIZE PUSH1 0x3 NOT ADD SLT PUSH2 0x272 JUMPI PUSH1 0x20 PUSH2 0xD41 PUSH2 0xD3C PUSH2 0x451 JUMP JUMPDEST PUSH2 0x155D JUMP JUMPDEST PUSH1 0x40 MLOAD SWAP1 DUP2 MSTORE RETURN JUMPDEST CALLVALUE PUSH2 0x272 JUMPI PUSH1 0x0 DUP1 PUSH1 0x3 NOT CALLDATASIZE ADD SLT PUSH2 0x41E JUMPI PUSH2 0xD63 PUSH2 0x1505 JUMP JUMPDEST PUSH1 0x8 DUP1 SLOAD PUSH1 0x1 PUSH1 0x1 PUSH1 0xA0 SHL SUB NOT DUP2 AND SWAP1 SWAP2 SSTORE DUP2 SWAP1 PUSH1 0x1 PUSH1 0x1 PUSH1 0xA0 SHL SUB AND PUSH32 0x8BE0079C531659141344CD1FD0A4F28419497F9722A3DAAFE3B4186F6B6457E0 DUP3 DUP1 LOG3 DUP1 RETURN JUMPDEST CALLVALUE PUSH2 0x272 JUMPI PUSH1 0x0 CALLDATASIZE PUSH1 0x3 NOT ADD SLT PUSH2 0x272 JUMPI PUSH1 0x8 SLOAD PUSH1 0x40 MLOAD PUSH1 0x1 PUSH1 0x1 PUSH1 0xA0 SHL SUB SWAP1 SWAP2 AND DUP2 MSTORE PUSH1 0x20 SWAP1 RETURN JUMPDEST CALLVALUE PUSH2 0x272 JUMPI PUSH1 0x0 DUP1 PUSH1 0x3 NOT CALLDATASIZE ADD SLT PUSH2 0x41E JUMPI PUSH1 0x40 MLOAD DUP2 PUSH1 0x3 SLOAD PUSH2 0xDF2 DUP2 PUSH2 0xA3A JUMP JUMPDEST DUP1 DUP5 MSTORE SWAP1 PUSH1 0x1 SWAP1 DUP2 DUP2 AND SWAP1 DUP2 ISZERO PUSH2 0x3F6 JUMPI POP PUSH1 0x1 EQ PUSH2 0xE1B JUMPI PUSH2 0x399 DUP5 PUSH2 0x38D DUP2 DUP9 SUB DUP3 PUSH2 0x819 JUMP JUMPDEST PUSH1 0x3 DUP4 MSTORE PUSH1 0x20 SWAP5 POP PUSH32 0xC2575A0E9E593C00F959F8C92F12DB2869C3395A3B0502D05E2516446F71F85B JUMPDEST DUP3 DUP5 LT PUSH2 0xE61 JUMPI POP POP POP DUP2 PUSH2 0x399 SWAP4 PUSH2 0x38D SWAP3 DUP3 ADD ADD SWAP4 PUSH2 0x37D JUMP JUMPDEST DUP1 SLOAD DUP6 DUP6 ADD DUP8 ADD MSTORE SWAP3 DUP6 ADD SWAP3 DUP2 ADD PUSH2 0xE45 JUMP JUMPDEST PUSH1 0x20 CALLDATASIZE PUSH1 0x3 NOT ADD SLT PUSH2 0x272 JUMPI PUSH1 0x4 CALLDATALOAD PUSH1 0xFF PUSH1 0xB SLOAD PUSH1 0x8 SHR AND ISZERO PUSH2 0xF8D JUMPI PUSH1 0x0 SLOAD PUSH1 0x1 SLOAD PUSH2 0xEBA SWAP2 PUSH2 0xEB0 SWAP2 DUP5 SWAP2 SUB PUSH1 0x0 NOT ADD PUSH2 0x1C2E JUMP JUMPDEST PUSH2 0x1C2E JUMP JUMPDEST PUSH1 0xD SLOAD LT ISZERO PUSH2 0x1C3B JUMP JUMPDEST PUSH2 0xEC7 DUP2 PUSH2 0xEAB CALLER PUSH2 0x155D JUMP JUMPDEST PUSH2 0xEE9 PUSH2 0xEE1 PUSH2 0xEDA PUSH1 0xF SLOAD PUSH2 0xFFFF AND SWAP1 JUMP JUMPDEST PUSH2 0xFFFF AND SWAP1 JUMP JUMPDEST DUP1 SWAP3 LT PUSH2 0x1C82 JUMP JUMPDEST CALLER PUSH1 0x0 SWAP1 DUP2 MSTORE PUSH1 0x10 PUSH1 0x20 MSTORE PUSH1 0x40 SWAP1 KECCAK256 PUSH2 0xF0E SWAP1 PUSH2 0xF09 SWAP1 PUSH2 0x4F0 SWAP1 PUSH2 0x4E9 JUMP JUMPDEST PUSH2 0x1CE7 JUMP JUMPDEST PUSH2 0xF24 PUSH2 0xF1D DUP4 PUSH1 0xE SLOAD PUSH2 0x1D65 JUMP JUMPDEST CALLVALUE EQ PUSH2 0x1D78 JUMP JUMPDEST PUSH2 0xF31 DUP3 PUSH2 0xEAB CALLER PUSH2 0x155D JUMP JUMPDEST EQ PUSH2 0xF68 JUMPI JUMPDEST PUSH1 0x0 CALLVALUE ISZERO PUSH2 0xF5F JUMPI JUMPDEST PUSH1 0x0 DUP1 DUP1 DUP1 SWAP4 CALLVALUE SWAP1 ADDRESS SWAP1 CALL ISZERO PUSH2 0xF5A JUMPI PUSH2 0x19 SWAP1 CALLER PUSH2 0x1DB9 JUMP JUMPDEST PUSH2 0x1B0A JUMP JUMPDEST POP PUSH2 0x8FC PUSH2 0xF40 JUMP JUMPDEST CALLER PUSH1 0x0 SWAP1 DUP2 MSTORE PUSH1 0x10 PUSH1 0x20 MSTORE PUSH1 0x40 SWAP1 KECCAK256 PUSH2 0xF88 SWAP1 DUP1 SLOAD PUSH1 0xFF NOT AND PUSH1 0x1 OR SWAP1 SSTORE JUMP JUMPDEST PUSH2 0xF37 JUMP JUMPDEST PUSH1 0x40 MLOAD PUSH3 0x461BCD PUSH1 0xE5 SHL DUP2 MSTORE PUSH1 0x20 PUSH1 0x4 DUP3 ADD MSTORE PUSH1 0x23 PUSH1 0x24 DUP3 ADD MSTORE PUSH32 0x4D696E74696E67206973206E6F7420796574206F70656E20666F72207075626C PUSH1 0x44 DUP3 ADD MSTORE PUSH3 0x696321 PUSH1 0xE8 SHL PUSH1 0x64 DUP3 ADD MSTORE PUSH1 0x84 SWAP1 REVERT JUMPDEST CALLVALUE PUSH2 0x272 JUMPI PUSH1 0x40 CALLDATASIZE PUSH1 0x3 NOT ADD SLT PUSH2 0x272 JUMPI PUSH2 0xFF7 PUSH2 0x451 JUMP JUMPDEST PUSH2 0xFFF PUSH2 0x718 JUMP JUMPDEST PUSH1 0x1 PUSH1 0x1 PUSH1 0xA0 SHL SUB DUP3 AND SWAP2 CALLER DUP4 EQ PUSH2 0x107F JUMPI DUP2 PUSH2 0x103E PUSH2 0x104F SWAP3 CALLER PUSH1 0x0 MSTORE PUSH1 0x7 PUSH1 0x20 MSTORE PUSH1 0x40 PUSH1 0x0 KECCAK256 SWAP1 PUSH1 0x1 DUP1 PUSH1 0xA0 SHL SUB AND PUSH1 0x0 MSTORE PUSH1 0x20 MSTORE PUSH1 0x40 PUSH1 0x0 KECCAK256 SWAP1 JUMP JUMPDEST SWAP1 PUSH1 0xFF DUP1 NOT DUP4 SLOAD AND SWAP2 ISZERO ISZERO AND OR SWAP1 SSTORE JUMP JUMPDEST PUSH1 0x40 MLOAD SWAP1 ISZERO ISZERO DUP2 MSTORE PUSH32 0x17307EAB39AB6107E8899845AD3D59BD9653F200F220920489CA2B5937696C31 PUSH1 0x20 CALLER SWAP3 LOG3 STOP JUMPDEST PUSH1 0x40 MLOAD PUSH4 0xB06307DB PUSH1 0xE0 SHL DUP2 MSTORE PUSH1 0x4 SWAP1 REVERT JUMPDEST CALLVALUE PUSH2 0x272 JUMPI PUSH2 0x109F CALLDATASIZE PUSH2 0x8A7 JUMP JUMPDEST PUSH2 0x10A7 PUSH2 0x1505 JUMP JUMPDEST DUP1 MLOAD PUSH1 0x1 PUSH1 0x1 PUSH1 0x40 SHL SUB DUP2 GT PUSH2 0x7F9 JUMPI PUSH2 0x10CB DUP2 PUSH2 0x10C6 PUSH1 0xC SLOAD PUSH2 0xA3A JUMP JUMPDEST PUSH2 0x2027 JUMP JUMPDEST DUP1 PUSH1 0x20 DUP1 PUSH1 0x1F DUP4 GT PUSH1 0x1 EQ PUSH2 0x1133 JUMPI POP PUSH1 0x0 SWAP2 PUSH2 0x1128 JUMPI JUMPDEST POP DUP2 PUSH1 0x1 SHL SWAP2 PUSH1 0x0 NOT SWAP1 PUSH1 0x3 SHL SHR NOT AND OR PUSH1 0xC SSTORE JUMPDEST PUSH32 0x998CC6C827A95D954DD9F7F353DBBB9E4959D633C6639BCA42129FA1089C3648 PUSH1 0x40 MLOAD DUP1 PUSH2 0x968 CALLER SWAP5 DUP3 PUSH2 0x32D JUMP JUMPDEST SWAP1 POP DUP3 ADD MLOAD CODESIZE PUSH2 0x10E3 JUMP JUMPDEST PUSH1 0xC PUSH1 0x0 MSTORE SWAP2 POP PUSH1 0x1F NOT DUP4 AND PUSH32 0xDF6966C971051C3D54EC59162606531493A51404A002842F56009D7E5CF4A8C7 SWAP3 PUSH1 0x0 SWAP1 JUMPDEST DUP3 DUP3 LT PUSH2 0x11A1 JUMPI POP POP SWAP1 DUP4 PUSH1 0x1 SWAP5 SWAP4 SWAP3 LT PUSH2 0x1188 JUMPI JUMPDEST POP POP DUP2 SHL ADD PUSH1 0xC SSTORE PUSH2 0x10F8 JUMP JUMPDEST DUP5 ADD MLOAD PUSH1 0x0 NOT PUSH1 0xF8 DUP5 PUSH1 0x3 SHL AND SHR NOT AND SWAP1 SSTORE CODESIZE DUP1 PUSH2 0x117B JUMP JUMPDEST DUP1 PUSH1 0x1 DUP6 SWAP7 DUP3 SWAP5 SWAP7 DUP11 ADD MLOAD DUP2 SSTORE ADD SWAP6 ADD SWAP4 ADD SWAP1 PUSH2 0x1165 JUMP JUMPDEST CALLVALUE PUSH2 0x272 JUMPI PUSH1 0x40 CALLDATASIZE PUSH1 0x3 NOT ADD SLT PUSH2 0x272 JUMPI PUSH2 0x11D2 PUSH2 0x451 JUMP JUMPDEST PUSH1 0x24 CALLDATALOAD PUSH2 0x11DD PUSH2 0x1505 JUMP JUMPDEST PUSH1 0x1 PUSH1 0x1 PUSH1 0xA0 SHL SUB DUP3 AND ISZERO PUSH2 0x121F JUMPI PUSH1 0x0 SLOAD PUSH1 0x1 SLOAD PUSH1 0x0 NOT SWAP2 SUB DUP3 DUP2 ADD DUP3 ADD SWAP4 SWAP2 ADD DUP4 LT PUSH2 0x121A JUMPI PUSH2 0x1215 PUSH2 0x19 SWAP4 PUSH1 0xD SLOAD GT PUSH2 0x1C3B JUMP JUMPDEST PUSH2 0x1DB9 JUMP JUMPDEST PUSH2 0x1C18 JUMP JUMPDEST PUSH1 0x40 MLOAD PUSH3 0x461BCD PUSH1 0xE5 SHL DUP2 MSTORE PUSH1 0x20 PUSH1 0x4 DUP3 ADD MSTORE PUSH1 0x1D PUSH1 0x24 DUP3 ADD MSTORE PUSH32 0x4572726F723A207265636970656E74203D3D2061646472657373283029000000 PUSH1 0x44 DUP3 ADD MSTORE PUSH1 0x64 SWAP1 REVERT JUMPDEST CALLVALUE PUSH2 0x272 JUMPI PUSH1 0x80 CALLDATASIZE PUSH1 0x3 NOT ADD SLT PUSH2 0x272 JUMPI PUSH2 0x127D PUSH2 0x451 JUMP JUMPDEST PUSH2 0x1285 PUSH2 0x467 JUMP JUMPDEST PUSH1 0x64 CALLDATALOAD SWAP2 PUSH1 0x1 PUSH1 0x1 PUSH1 0x40 SHL SUB DUP4 GT PUSH2 0x272 JUMPI CALLDATASIZE PUSH1 0x23 DUP5 ADD SLT ISZERO PUSH2 0x272 JUMPI PUSH2 0x12B9 PUSH2 0x19 SWAP4 CALLDATASIZE SWAP1 PUSH1 0x24 DUP2 PUSH1 0x4 ADD CALLDATALOAD SWAP2 ADD PUSH2 0x855 JUMP JUMPDEST SWAP2 PUSH1 0x44 CALLDATALOAD SWAP2 PUSH2 0x1727 JUMP JUMPDEST CALLVALUE PUSH2 0x272 JUMPI PUSH1 0x20 CALLDATASIZE PUSH1 0x3 NOT ADD SLT PUSH2 0x272 JUMPI PUSH2 0x399 PUSH2 0x12E2 PUSH1 0x4 CALLDATALOAD PUSH2 0x21A5 JUMP JUMPDEST PUSH1 0x40 MLOAD SWAP2 DUP3 SWAP2 PUSH1 0x20 DUP4 MSTORE PUSH1 0x20 DUP4 ADD SWAP1 PUSH2 0x308 JUMP JUMPDEST CALLVALUE PUSH2 0x272 JUMPI PUSH1 0x0 CALLDATASIZE PUSH1 0x3 NOT ADD SLT PUSH2 0x272 JUMPI PUSH2 0x399 PUSH2 0x12E2 PUSH2 0xA74 JUMP JUMPDEST CALLVALUE PUSH2 0x272 JUMPI PUSH1 0x0 CALLDATASIZE PUSH1 0x3 NOT ADD SLT PUSH2 0x272 JUMPI PUSH1 0x20 PUSH1 0xD SLOAD PUSH1 0x40 MLOAD SWAP1 DUP2 MSTORE RETURN JUMPDEST CALLVALUE PUSH2 0x272 JUMPI PUSH1 0x0 CALLDATASIZE PUSH1 0x3 NOT ADD SLT PUSH2 0x272 JUMPI PUSH2 0x1349 PUSH2 0x1505 JUMP JUMPDEST PUSH1 0xB SLOAD PUSH1 0xFF DUP2 PUSH1 0x8 SHR AND PUSH2 0x1365 JUMPI PUSH2 0xFF00 NOT AND PUSH2 0x100 OR PUSH1 0xB SSTORE STOP JUMPDEST PUSH1 0x40 MLOAD PUSH3 0x461BCD PUSH1 0xE5 SHL DUP2 MSTORE PUSH1 0x20 PUSH1 0x4 DUP3 ADD MSTORE PUSH1 0x1E PUSH1 0x24 DUP3 ADD MSTORE PUSH32 0x4572726F723A204D696E7420697320616C726561647920656E61626C65640000 PUSH1 0x44 DUP3 ADD MSTORE PUSH1 0x64 SWAP1 REVERT JUMPDEST CALLVALUE PUSH2 0x272 JUMPI PUSH1 0x40 CALLDATASIZE PUSH1 0x3 NOT ADD SLT PUSH2 0x272 JUMPI PUSH1 0x20 PUSH1 0xFF PUSH2 0x13FB PUSH2 0x13CA PUSH2 0x451 JUMP JUMPDEST PUSH2 0x13D2 PUSH2 0x467 JUMP JUMPDEST PUSH1 0x1 PUSH1 0x1 PUSH1 0xA0 SHL SUB SWAP2 DUP3 AND PUSH1 0x0 SWAP1 DUP2 MSTORE PUSH1 0x7 DUP7 MSTORE PUSH1 0x40 DUP1 DUP3 KECCAK256 SWAP3 SWAP1 SWAP4 AND DUP2 MSTORE PUSH1 0x20 SWAP2 SWAP1 SWAP2 MSTORE KECCAK256 SWAP1 JUMP JUMPDEST SLOAD AND PUSH1 0x40 MLOAD SWAP1 ISZERO ISZERO DUP2 MSTORE RETURN JUMPDEST CALLVALUE PUSH2 0x272 JUMPI PUSH1 0x20 CALLDATASIZE PUSH1 0x3 NOT ADD SLT PUSH2 0x272 JUMPI PUSH2 0x1420 PUSH2 0x451 JUMP JUMPDEST PUSH2 0x1428 PUSH2 0x1505 JUMP JUMPDEST PUSH1 0x1 PUSH1 0x1 PUSH1 0xA0 SHL SUB SWAP1 DUP2 AND SWAP1 DUP2 ISZERO PUSH2 0x1476 JUMPI PUSH1 0x8 DUP1 SLOAD PUSH1 0x1 PUSH1 0x1 PUSH1 0xA0 SHL SUB NOT DUP2 AND DUP5 OR SWAP1 SWAP2 SSTORE AND PUSH32 0x8BE0079C531659141344CD1FD0A4F28419497F9722A3DAAFE3B4186F6B6457E0 PUSH1 0x0 DUP1 LOG3 STOP JUMPDEST PUSH1 0x40 MLOAD PUSH3 0x461BCD PUSH1 0xE5 SHL DUP2 MSTORE PUSH1 0x20 PUSH1 0x4 DUP3 ADD MSTORE PUSH1 0x26 PUSH1 0x24 DUP3 ADD MSTORE PUSH32 0x4F776E61626C653A206E6577206F776E657220697320746865207A65726F2061 PUSH1 0x44 DUP3 ADD MSTORE PUSH6 0x646472657373 PUSH1 0xD0 SHL PUSH1 0x64 DUP3 ADD MSTORE PUSH1 0x84 SWAP1 REVERT JUMPDEST CALLVALUE PUSH2 0x272 JUMPI PUSH1 0x0 DUP1 PUSH1 0x3 NOT CALLDATASIZE ADD SLT PUSH2 0x41E JUMPI PUSH2 0x14E4 PUSH2 0x1505 JUMP JUMPDEST DUP1 DUP1 DUP1 DUP1 SELFBALANCE DUP2 DUP2 ISZERO PUSH2 0x14FC JUMPI JUMPDEST CALLER SWAP1 CALL ISZERO PUSH2 0xF5A JUMPI DUP1 RETURN JUMPDEST POP PUSH2 0x8FC PUSH2 0x14F1 JUMP JUMPDEST PUSH1 0x8 SLOAD PUSH1 0x1 PUSH1 0x1 PUSH1 0xA0 SHL SUB AND CALLER SUB PUSH2 0x1519 JUMPI JUMP JUMPDEST PUSH1 0x64 PUSH1 0x40 MLOAD PUSH3 0x461BCD PUSH1 0xE5 SHL DUP2 MSTORE PUSH1 0x20 PUSH1 0x4 DUP3 ADD MSTORE PUSH1 0x20 PUSH1 0x24 DUP3 ADD MSTORE PUSH32 0x4F776E61626C653A2063616C6C6572206973206E6F7420746865206F776E6572 PUSH1 0x44 DUP3 ADD MSTORE REVERT JUMPDEST PUSH1 0x1 PUSH1 0x1 PUSH1 0xA0 SHL SUB AND DUP1 ISZERO PUSH2 0x1586 JUMPI PUSH1 0x0 MSTORE PUSH1 0x5 PUSH1 0x20 MSTORE PUSH1 0x1 PUSH1 0x1 PUSH1 0x40 SHL SUB PUSH1 0x40 PUSH1 0x0 KECCAK256 SLOAD AND SWAP1 JUMP JUMPDEST PUSH1 0x40 MLOAD PUSH4 0x23D3AD81 PUSH1 0xE2 SHL DUP2 MSTORE PUSH1 0x4 SWAP1 REVERT JUMPDEST PUSH1 0x40 MLOAD SWAP1 PUSH2 0x15A5 DUP3 PUSH2 0x7DE JUMP JUMPDEST PUSH1 0x0 PUSH1 0x40 DUP4 DUP3 DUP2 MSTORE DUP3 PUSH1 0x20 DUP3 ADD MSTORE ADD MSTORE JUMP JUMPDEST SWAP1 PUSH1 0x40 MLOAD PUSH2 0x15C4 DUP2 PUSH2 0x7DE JUMP JUMPDEST SWAP2 SLOAD PUSH1 0x1 PUSH1 0x1 PUSH1 0xA0 SHL SUB DUP2 AND DUP4 MSTORE PUSH1 0xA0 DUP2 SWAP1 SHR PUSH1 0x1 PUSH1 0x1 PUSH1 0x40 SHL SUB AND PUSH1 0x20 DUP5 ADD MSTORE PUSH1 0xE0 SHR PUSH1 0xFF AND ISZERO ISZERO PUSH1 0x40 DUP4 ADD MSTORE JUMP JUMPDEST PUSH2 0x15FC PUSH2 0x1598 JUMP JUMPDEST POP PUSH1 0x1 DUP2 DUP1 DUP3 GT ISZERO PUSH2 0x161B JUMPI JUMPDEST PUSH1 0x40 MLOAD PUSH4 0x6F96CDA1 PUSH1 0xE1 SHL DUP2 MSTORE PUSH1 0x4 SWAP1 REVERT JUMPDEST PUSH1 0x0 SLOAD DUP2 LT ISZERO PUSH2 0x1609 JUMPI PUSH2 0x163C PUSH2 0x1641 SWAP2 PUSH1 0x0 MSTORE PUSH1 0x4 PUSH1 0x20 MSTORE PUSH1 0x40 PUSH1 0x0 KECCAK256 SWAP1 JUMP JUMPDEST PUSH2 0x15B7 JUMP JUMPDEST PUSH2 0x1651 PUSH2 0x4F0 PUSH1 0x40 DUP4 ADD MLOAD ISZERO ISZERO SWAP1 JUMP JUMPDEST ISZERO PUSH2 0x1609 JUMPI DUP1 MLOAD PUSH1 0x1 PUSH1 0x1 PUSH1 0xA0 SHL SUB AND PUSH2 0x16B7 JUMPI POP SWAP1 DUP2 JUMPDEST PUSH2 0x1673 JUMPI DUP1 PUSH2 0x1609 JUMP JUMPDEST PUSH1 0x0 NOT ADD SWAP1 PUSH2 0x168F PUSH2 0x163C DUP4 PUSH1 0x0 MSTORE PUSH1 0x4 PUSH1 0x20 MSTORE PUSH1 0x40 PUSH1 0x0 KECCAK256 SWAP1 JUMP JUMPDEST DUP1 MLOAD PUSH2 0x16AB SWAP1 PUSH1 0x1 PUSH1 0x1 PUSH1 0xA0 SHL SUB AND JUMPDEST PUSH1 0x1 PUSH1 0x1 PUSH1 0xA0 SHL SUB AND SWAP1 JUMP JUMPDEST PUSH2 0x16B7 JUMPI POP SWAP1 DUP2 PUSH2 0x1669 JUMP JUMPDEST SWAP2 POP POP SWAP1 JUMP JUMPDEST DUP1 PUSH1 0x1 GT ISZERO DUP1 PUSH2 0x171C JUMPI JUMPDEST DUP1 PUSH2 0x1700 JUMPI JUMPDEST ISZERO PUSH2 0x16EE JUMPI PUSH1 0x0 SWAP1 DUP2 MSTORE PUSH1 0x6 PUSH1 0x20 MSTORE PUSH1 0x40 SWAP1 KECCAK256 SLOAD PUSH1 0x1 PUSH1 0x1 PUSH1 0xA0 SHL SUB AND SWAP1 JUMP JUMPDEST PUSH1 0x40 MLOAD PUSH4 0x33D1C039 PUSH1 0xE2 SHL DUP2 MSTORE PUSH1 0x4 SWAP1 REVERT JUMPDEST POP DUP1 PUSH1 0x0 MSTORE PUSH1 0x4 PUSH1 0x20 MSTORE PUSH1 0xFF PUSH1 0x40 PUSH1 0x0 KECCAK256 SLOAD PUSH1 0xE0 SHR AND ISZERO PUSH2 0x16CE JUMP JUMPDEST POP PUSH1 0x0 SLOAD DUP2 LT PUSH2 0x16C8 JUMP JUMPDEST SWAP3 SWAP2 SWAP1 PUSH2 0x1735 DUP3 DUP3 DUP7 PUSH2 0x1796 JUMP JUMPDEST DUP1 EXTCODESIZE PUSH2 0x1742 JUMPI JUMPDEST POP POP POP POP JUMP JUMPDEST PUSH2 0x174B SWAP4 PUSH2 0x1BEF JUMP JUMPDEST ISZERO PUSH2 0x1759 JUMPI CODESIZE DUP1 DUP1 DUP1 PUSH2 0x173C JUMP JUMPDEST PUSH1 0x40 MLOAD PUSH4 0x68D2BF6B PUSH1 0xE1 SHL DUP2 MSTORE PUSH1 0x4 SWAP1 REVERT JUMPDEST DUP1 SLOAD PUSH8 0xFFFFFFFFFFFFFFFF PUSH1 0xA0 SHL NOT AND PUSH1 0xA0 SWAP3 SWAP1 SWAP3 SHL PUSH8 0xFFFFFFFFFFFFFFFF PUSH1 0xA0 SHL AND SWAP2 SWAP1 SWAP2 OR SWAP1 SSTORE JUMP JUMPDEST PUSH2 0x179F DUP4 PUSH2 0x15F4 JUMP JUMPDEST DUP1 MLOAD PUSH1 0x1 PUSH1 0x1 PUSH1 0xA0 SHL SUB DUP1 DUP5 AND SWAP4 SWAP3 SWAP2 DUP2 AND DUP5 SWAP1 SUB PUSH2 0x19DD JUMPI DUP4 CALLER EQ DUP1 ISZERO PUSH2 0x199D JUMPI JUMPDEST DUP1 ISZERO PUSH2 0x1989 JUMPI JUMPDEST ISZERO PUSH2 0x1977 JUMPI DUP5 AND SWAP4 DUP5 ISZERO PUSH2 0x1965 JUMPI PUSH2 0x18C4 SWAP1 PUSH2 0x17E5 DUP5 DUP9 PUSH2 0x19EE JUMP JUMPDEST PUSH1 0x1 PUSH1 0x1 PUSH1 0xA0 SHL SUB DUP5 AND PUSH1 0x0 SWAP1 DUP2 MSTORE PUSH1 0x5 PUSH1 0x20 MSTORE PUSH1 0x40 SWAP1 KECCAK256 PUSH2 0x183F SWAP1 PUSH2 0x1825 PUSH2 0x1815 DUP3 SLOAD PUSH1 0x1 PUSH1 0x1 PUSH1 0x40 SHL SUB AND SWAP1 JUMP JUMPDEST PUSH1 0x0 NOT ADD PUSH1 0x1 PUSH1 0x1 PUSH1 0x40 SHL SUB AND SWAP1 JUMP JUMPDEST PUSH1 0x1 PUSH1 0x1 PUSH1 0x40 SHL SUB AND PUSH1 0x1 PUSH1 0x1 PUSH1 0x40 SHL SUB NOT DUP3 SLOAD AND OR SWAP1 SSTORE JUMP JUMPDEST PUSH1 0x1 PUSH1 0x1 PUSH1 0xA0 SHL SUB DUP2 AND PUSH1 0x0 SWAP1 DUP2 MSTORE PUSH1 0x5 PUSH1 0x20 MSTORE PUSH1 0x40 SWAP1 KECCAK256 PUSH2 0x187E SWAP1 PUSH2 0x1825 PUSH2 0x186F DUP3 SLOAD PUSH1 0x1 PUSH1 0x1 PUSH1 0x40 SHL SUB AND SWAP1 JUMP JUMPDEST PUSH1 0x1 ADD PUSH1 0x1 PUSH1 0x1 PUSH1 0x40 SHL SUB AND SWAP1 JUMP JUMPDEST PUSH2 0x18B4 PUSH2 0x1895 DUP9 PUSH1 0x0 MSTORE PUSH1 0x4 PUSH1 0x20 MSTORE PUSH1 0x40 PUSH1 0x0 KECCAK256 SWAP1 JUMP JUMPDEST DUP1 SLOAD PUSH1 0x1 PUSH1 0x1 PUSH1 0xA0 SHL SUB NOT AND PUSH1 0x1 PUSH1 0x1 PUSH1 0xA0 SHL SUB SWAP1 SWAP4 AND SWAP3 SWAP1 SWAP3 OR DUP3 SSTORE JUMP JUMPDEST PUSH1 0x1 PUSH1 0x1 PUSH1 0x40 SHL SUB TIMESTAMP AND SWAP1 PUSH2 0x176B JUMP JUMPDEST PUSH1 0x1 DUP6 ADD SWAP1 PUSH2 0x18DD DUP3 PUSH1 0x0 MSTORE PUSH1 0x4 PUSH1 0x20 MSTORE PUSH1 0x40 PUSH1 0x0 KECCAK256 SWAP1 JUMP JUMPDEST DUP1 SLOAD SWAP1 SWAP3 SWAP1 PUSH2 0x18F4 SWAP1 PUSH1 0x1 PUSH1 0x1 PUSH1 0xA0 SHL SUB AND PUSH2 0x169F JUMP JUMPDEST ISZERO PUSH2 0x1913 JUMPI JUMPDEST POP POP POP POP PUSH1 0x0 DUP1 MLOAD PUSH1 0x20 PUSH2 0x23E9 DUP4 CODECOPY DUP2 MLOAD SWAP2 MSTORE PUSH1 0x0 DUP1 LOG4 JUMP JUMPDEST PUSH1 0x0 SLOAD SUB PUSH2 0x1922 JUMPI JUMPDEST DUP1 PUSH2 0x18FA JUMP JUMPDEST DUP2 SLOAD PUSH1 0x1 PUSH1 0x1 PUSH1 0xA0 SHL SUB NOT AND PUSH1 0x1 PUSH1 0x1 PUSH1 0xA0 SHL SUB SWAP1 SWAP4 AND SWAP3 SWAP1 SWAP3 OR DUP2 SSTORE PUSH2 0x195D SWAP2 PUSH2 0x1957 SWAP1 PUSH1 0x20 ADD MLOAD PUSH1 0x1 PUSH1 0x1 PUSH1 0x40 SHL SUB AND SWAP1 JUMP JUMPDEST SWAP1 PUSH2 0x176B JUMP JUMPDEST CODESIZE DUP1 DUP1 PUSH2 0x191C JUMP JUMPDEST PUSH1 0x40 MLOAD PUSH4 0x3A954ECD PUSH1 0xE2 SHL DUP2 MSTORE PUSH1 0x4 SWAP1 REVERT JUMPDEST PUSH1 0x40 MLOAD PUSH4 0x2CE44B5F PUSH1 0xE1 SHL DUP2 MSTORE PUSH1 0x4 SWAP1 REVERT JUMPDEST POP CALLER PUSH2 0x1997 PUSH2 0x169F DUP9 PUSH2 0x16BD JUMP JUMPDEST EQ PUSH2 0x17C9 JUMP JUMPDEST POP PUSH2 0x19D8 PUSH2 0x4E9 CALLER PUSH2 0x19C1 DUP7 PUSH1 0x1 DUP1 PUSH1 0xA0 SHL SUB AND PUSH1 0x0 MSTORE PUSH1 0x7 PUSH1 0x20 MSTORE PUSH1 0x40 PUSH1 0x0 KECCAK256 SWAP1 JUMP JUMPDEST SWAP1 PUSH1 0x1 DUP1 PUSH1 0xA0 SHL SUB AND PUSH1 0x0 MSTORE PUSH1 0x20 MSTORE PUSH1 0x40 PUSH1 0x0 KECCAK256 SWAP1 JUMP JUMPDEST PUSH2 0x17C2 JUMP JUMPDEST PUSH1 0x40 MLOAD PUSH3 0xA11481 PUSH1 0xE8 SHL DUP2 MSTORE PUSH1 0x4 SWAP1 REVERT JUMPDEST PUSH1 0x0 DUP2 DUP2 MSTORE PUSH1 0x6 PUSH1 0x20 MSTORE PUSH1 0x40 DUP2 KECCAK256 DUP1 SLOAD PUSH1 0x1 PUSH1 0x1 PUSH1 0xA0 SHL SUB NOT AND SWAP1 SSTORE SWAP1 SWAP2 PUSH1 0x1 PUSH1 0x1 PUSH1 0xA0 SHL SUB AND PUSH32 0x8C5BE1E5EBEC7D5BD14F71427D1E84F3DD0314C0F7B2291E5B200AC8C7C3B925 DUP3 DUP1 LOG4 JUMP JUMPDEST PUSH1 0x0 DUP3 DUP2 MSTORE PUSH1 0x6 PUSH1 0x20 MSTORE PUSH1 0x40 SWAP1 KECCAK256 DUP1 SLOAD PUSH1 0x1 PUSH1 0x1 PUSH1 0xA0 SHL SUB NOT AND PUSH1 0x1 PUSH1 0x1 PUSH1 0xA0 SHL SUB DUP4 AND OR SWAP1 SSTORE SWAP1 SWAP2 SWAP1 PUSH1 0x1 PUSH1 0x1 PUSH1 0xA0 SHL SUB SWAP1 DUP2 AND SWAP2 AND PUSH32 0x8C5BE1E5EBEC7D5BD14F71427D1E84F3DD0314C0F7B2291E5B200AC8C7C3B925 PUSH1 0x0 DUP1 LOG4 JUMP JUMPDEST SWAP1 DUP2 PUSH1 0x20 SWAP2 SUB SLT PUSH2 0x272 JUMPI MLOAD PUSH2 0x33E DUP2 PUSH2 0x260 JUMP JUMPDEST PUSH2 0x33E SWAP4 SWAP3 PUSH1 0x80 SWAP3 PUSH1 0x1 DUP1 PUSH1 0xA0 SHL SUB AND DUP3 MSTORE PUSH1 0x0 PUSH1 0x20 DUP4 ADD MSTORE PUSH1 0x40 DUP3 ADD MSTORE DUP2 PUSH1 0x60 DUP3 ADD MSTORE ADD SWAP1 PUSH2 0x308 JUMP JUMPDEST PUSH1 0x1 PUSH1 0x1 PUSH1 0xA0 SHL SUB SWAP2 DUP3 AND DUP2 MSTORE SWAP2 AND PUSH1 0x20 DUP3 ADD MSTORE PUSH1 0x40 DUP2 ADD SWAP2 SWAP1 SWAP2 MSTORE PUSH1 0x80 PUSH1 0x60 DUP3 ADD DUP2 SWAP1 MSTORE PUSH2 0x33E SWAP3 SWAP2 ADD SWAP1 PUSH2 0x308 JUMP JUMPDEST PUSH1 0x40 MLOAD RETURNDATASIZE PUSH1 0x0 DUP3 RETURNDATACOPY RETURNDATASIZE SWAP1 REVERT JUMPDEST RETURNDATASIZE ISZERO PUSH2 0x1B41 JUMPI RETURNDATASIZE SWAP1 PUSH2 0x1B27 DUP3 PUSH2 0x83A JUMP JUMPDEST SWAP2 PUSH2 0x1B35 PUSH1 0x40 MLOAD SWAP4 DUP5 PUSH2 0x819 JUMP JUMPDEST DUP3 MSTORE RETURNDATASIZE PUSH1 0x0 PUSH1 0x20 DUP5 ADD RETURNDATACOPY JUMP JUMPDEST PUSH1 0x60 SWAP1 JUMP JUMPDEST PUSH2 0x1B6F PUSH1 0x20 SWAP2 PUSH1 0x0 SWAP4 SWAP5 PUSH1 0x40 MLOAD SWAP5 DUP6 DUP1 SWAP5 DUP2 SWAP4 PUSH4 0xA85BD01 PUSH1 0xE1 SHL SWAP10 DUP11 DUP5 MSTORE CALLER PUSH1 0x4 DUP6 ADD PUSH2 0x1AAE JUMP JUMPDEST SUB SWAP3 PUSH1 0x1 PUSH1 0x1 PUSH1 0xA0 SHL SUB AND GAS CALL PUSH1 0x0 SWAP2 DUP2 PUSH2 0x1BBF JUMPI JUMPDEST POP PUSH2 0x1BB1 JUMPI PUSH2 0x1B92 PUSH2 0x1B16 JUMP JUMPDEST DUP1 MLOAD SWAP1 DUP2 PUSH2 0x1BAC JUMPI PUSH1 0x40 MLOAD PUSH4 0x68D2BF6B PUSH1 0xE1 SHL DUP2 MSTORE PUSH1 0x4 SWAP1 REVERT JUMPDEST PUSH1 0x20 ADD REVERT JUMPDEST PUSH1 0x1 PUSH1 0x1 PUSH1 0xE0 SHL SUB NOT AND EQ SWAP1 JUMP JUMPDEST PUSH2 0x1BE1 SWAP2 SWAP3 POP PUSH1 0x20 RETURNDATASIZE DUP2 GT PUSH2 0x1BE8 JUMPI JUMPDEST PUSH2 0x1BD9 DUP2 DUP4 PUSH2 0x819 JUMP JUMPDEST DUP2 ADD SWAP1 PUSH2 0x1A99 JUMP JUMPDEST SWAP1 CODESIZE PUSH2 0x1B85 JUMP JUMPDEST POP RETURNDATASIZE PUSH2 0x1BCF JUMP JUMPDEST SWAP3 PUSH1 0x20 SWAP2 PUSH2 0x1B6F SWAP4 PUSH1 0x0 PUSH1 0x40 MLOAD DUP1 SWAP7 DUP2 SWAP6 DUP3 SWAP5 PUSH4 0xA85BD01 PUSH1 0xE1 SHL SWAP11 DUP12 DUP6 MSTORE CALLER PUSH1 0x4 DUP7 ADD PUSH2 0x1AD9 JUMP JUMPDEST PUSH4 0x4E487B71 PUSH1 0xE0 SHL PUSH1 0x0 MSTORE PUSH1 0x11 PUSH1 0x4 MSTORE PUSH1 0x24 PUSH1 0x0 REVERT JUMPDEST SWAP2 SWAP1 DUP3 ADD DUP1 SWAP3 GT PUSH2 0x121A JUMPI JUMP JUMPDEST ISZERO PUSH2 0x1C42 JUMPI JUMP JUMPDEST PUSH1 0x40 MLOAD PUSH3 0x461BCD PUSH1 0xE5 SHL DUP2 MSTORE PUSH1 0x20 PUSH1 0x4 DUP3 ADD MSTORE PUSH1 0x18 PUSH1 0x24 DUP3 ADD MSTORE PUSH24 0x43616E277420657863656564206D617820737570706C7921 PUSH1 0x40 SHL PUSH1 0x44 DUP3 ADD MSTORE PUSH1 0x64 SWAP1 REVERT JUMPDEST ISZERO PUSH2 0x1C89 JUMPI JUMP JUMPDEST PUSH1 0x40 MLOAD PUSH3 0x461BCD PUSH1 0xE5 SHL DUP2 MSTORE PUSH1 0x20 PUSH1 0x4 DUP3 ADD MSTORE PUSH1 0x30 PUSH1 0x24 DUP3 ADD MSTORE PUSH32 0x4F6E652077616C6C65742063616E2774206D696E74206D6F7265207468616E20 PUSH1 0x44 DUP3 ADD MSTORE PUSH16 0x6D617820616C6C6F776564204E465473 PUSH1 0x80 SHL PUSH1 0x64 DUP3 ADD MSTORE PUSH1 0x84 SWAP1 REVERT JUMPDEST ISZERO PUSH2 0x1CEE JUMPI JUMP JUMPDEST PUSH1 0xA4 PUSH1 0x40 MLOAD PUSH3 0x461BCD PUSH1 0xE5 SHL DUP2 MSTORE PUSH1 0x20 PUSH1 0x4 DUP3 ADD MSTORE PUSH1 0x44 PUSH1 0x24 DUP3 ADD MSTORE PUSH32 0x4572726F723A20546869732077616C6C65742068617320616C7265616479206D PUSH1 0x44 DUP3 ADD MSTORE PUSH32 0x696E746564206974732071756F7461206F66206D617820616C6C6F776564204E PUSH1 0x64 DUP3 ADD MSTORE PUSH4 0x232A3997 PUSH1 0xE1 SHL PUSH1 0x84 DUP3 ADD MSTORE REVERT JUMPDEST DUP2 DUP2 MUL SWAP3 SWAP2 DUP2 ISZERO SWAP2 DUP5 DIV EQ OR ISZERO PUSH2 0x121A JUMPI JUMP JUMPDEST ISZERO PUSH2 0x1D7F JUMPI JUMP JUMPDEST PUSH1 0x40 MLOAD PUSH3 0x461BCD PUSH1 0xE5 SHL DUP2 MSTORE PUSH1 0x20 PUSH1 0x4 DUP3 ADD MSTORE PUSH1 0x12 PUSH1 0x24 DUP3 ADD MSTORE PUSH18 0x4D75737420706179206D696E742066656521 PUSH1 0x70 SHL PUSH1 0x44 DUP3 ADD MSTORE PUSH1 0x64 SWAP1 REVERT JUMPDEST PUSH1 0x40 SWAP1 DUP2 MLOAD SWAP2 PUSH2 0x1DC8 DUP4 PUSH2 0x7FE JUMP JUMPDEST PUSH1 0x0 DUP1 DUP5 MSTORE DUP1 SLOAD SWAP1 SWAP4 SWAP1 SWAP3 PUSH1 0x1 PUSH1 0x1 PUSH1 0xA0 SHL SUB DUP2 AND DUP1 ISZERO PUSH2 0x1FC3 JUMPI DUP7 ISZERO PUSH2 0x1FB2 JUMPI PUSH2 0x1EE7 PUSH1 0x1 PUSH1 0x1 PUSH1 0x40 SHL SUB PUSH2 0x1E95 DUP2 DUP11 AND PUSH2 0x1E3B PUSH2 0x1E19 DUP8 PUSH1 0x1 DUP1 PUSH1 0xA0 SHL SUB AND PUSH1 0x0 MSTORE PUSH1 0x5 PUSH1 0x20 MSTORE PUSH1 0x40 PUSH1 0x0 KECCAK256 SWAP1 JUMP JUMPDEST PUSH2 0x1825 DUP4 PUSH2 0x1E2E DUP4 SLOAD PUSH1 0x1 PUSH1 0x1 PUSH1 0x40 SHL SUB AND SWAP1 JUMP JUMPDEST ADD PUSH1 0x1 PUSH1 0x1 PUSH1 0x40 SHL SUB AND SWAP1 JUMP JUMPDEST PUSH1 0x1 PUSH1 0x1 PUSH1 0xA0 SHL SUB DUP7 AND PUSH1 0x0 SWAP1 DUP2 MSTORE PUSH1 0x5 PUSH1 0x20 MSTORE PUSH1 0x40 SWAP1 KECCAK256 PUSH2 0x1E6D SWAP1 SWAP2 PUSH2 0x1E2E DUP4 SLOAD PUSH1 0x1 PUSH1 0x1 PUSH1 0x40 SHL SUB SWAP1 PUSH1 0x40 SHR AND SWAP1 JUMP JUMPDEST DUP2 SLOAD PUSH8 0xFFFFFFFFFFFFFFFF PUSH1 0x40 SHL NOT AND PUSH1 0x40 SWAP2 SWAP1 SWAP2 SHL PUSH8 0xFFFFFFFFFFFFFFFF PUSH1 0x40 SHL AND OR SWAP1 SSTORE JUMP JUMPDEST PUSH2 0x1ECC DUP5 PUSH2 0x1EAD DUP10 PUSH1 0x0 MSTORE PUSH1 0x4 PUSH1 0x20 MSTORE PUSH1 0x40 PUSH1 0x0 KECCAK256 SWAP1 JUMP JUMPDEST DUP1 SLOAD PUSH1 0x1 PUSH1 0x1 PUSH1 0xA0 SHL SUB NOT AND PUSH1 0x1 PUSH1 0x1 PUSH1 0xA0 SHL SUB SWAP1 SWAP3 AND SWAP2 SWAP1 SWAP2 OR SWAP1 SSTORE JUMP JUMPDEST TIMESTAMP AND PUSH2 0x1EE2 DUP8 PUSH1 0x0 MSTORE PUSH1 0x4 PUSH1 0x20 MSTORE PUSH1 0x40 PUSH1 0x0 KECCAK256 SWAP1 JUMP JUMPDEST PUSH2 0x176B JUMP JUMPDEST DUP5 SWAP7 DUP6 ADD SWAP1 DUP3 EXTCODESIZE ISZERO ISZERO PUSH1 0x0 EQ PUSH2 0x1F68 JUMPI PUSH1 0x1 SWAP2 DUP3 DUP1 JUMPDEST PUSH2 0x1F13 JUMPI JUMPDEST POP POP POP POP POP POP POP DUP2 SLOAD SUB PUSH2 0x41E JUMPI SSTORE JUMP JUMPDEST ISZERO PUSH2 0x1F5B JUMPI JUMPDEST DUP8 DUP10 DUP4 DUP11 PUSH1 0x0 DUP1 MLOAD PUSH1 0x20 PUSH2 0x23E9 DUP4 CODECOPY DUP2 MLOAD SWAP2 MSTORE DUP2 DUP1 LOG4 PUSH2 0x1F40 PUSH2 0x4F0 DUP8 DUP7 DUP14 ADD SWAP13 DUP9 PUSH2 0x1B46 JUMP JUMPDEST PUSH2 0x1F4A JUMPI DUP4 PUSH2 0x1EFD JUMP JUMPDEST DUP7 MLOAD PUSH4 0x68D2BF6B PUSH1 0xE1 SHL DUP2 MSTORE PUSH1 0x4 SWAP1 REVERT JUMPDEST DUP1 DUP10 LT PUSH2 0x1F19 JUMPI DUP1 PUSH2 0x1F02 JUMP JUMPDEST SWAP5 POP SWAP3 POP POP POP PUSH1 0x1 SWAP1 DUP2 DUP1 JUMPDEST PUSH2 0x1F80 JUMPI JUMPDEST POP POP POP POP SSTORE JUMP JUMPDEST ISZERO PUSH2 0x1FA5 JUMPI JUMPDEST DUP4 DUP3 DUP1 DUP8 ADD SWAP7 DUP6 DUP8 PUSH1 0x0 DUP1 MLOAD PUSH1 0x20 PUSH2 0x23E9 DUP4 CODECOPY DUP2 MLOAD SWAP2 MSTORE DUP2 DUP1 LOG4 PUSH2 0x1F74 JUMP JUMPDEST DUP1 DUP6 LT PUSH2 0x1F86 JUMPI DUP1 PUSH2 0x1F79 JUMP JUMPDEST DUP4 MLOAD PUSH4 0xB562E8DD PUSH1 0xE0 SHL DUP2 MSTORE PUSH1 0x4 SWAP1 REVERT JUMPDEST DUP4 MLOAD PUSH3 0x2E0763 PUSH1 0xE8 SHL DUP2 MSTORE PUSH1 0x4 SWAP1 REVERT JUMPDEST PUSH1 0x1F DUP2 GT PUSH2 0x1FDF JUMPI POP POP JUMP JUMPDEST PUSH1 0x0 SWAP1 PUSH1 0xA DUP3 MSTORE PUSH1 0x20 DUP3 KECCAK256 SWAP1 PUSH1 0x20 PUSH1 0x1F DUP6 ADD PUSH1 0x5 SHR DUP4 ADD SWAP5 LT PUSH2 0x201D JUMPI JUMPDEST PUSH1 0x1F ADD PUSH1 0x5 SHR ADD SWAP2 JUMPDEST DUP3 DUP2 LT PUSH2 0x2012 JUMPI POP POP POP JUMP JUMPDEST DUP2 DUP2 SSTORE PUSH1 0x1 ADD PUSH2 0x2006 JUMP JUMPDEST SWAP1 SWAP3 POP DUP3 SWAP1 PUSH2 0x1FFD JUMP JUMPDEST PUSH1 0x1F DUP2 GT PUSH2 0x2033 JUMPI POP POP JUMP JUMPDEST PUSH1 0x0 SWAP1 PUSH1 0xC DUP3 MSTORE PUSH1 0x20 DUP3 KECCAK256 SWAP1 PUSH1 0x20 PUSH1 0x1F DUP6 ADD PUSH1 0x5 SHR DUP4 ADD SWAP5 LT PUSH2 0x2071 JUMPI JUMPDEST PUSH1 0x1F ADD PUSH1 0x5 SHR ADD SWAP2 JUMPDEST DUP3 DUP2 LT PUSH2 0x2066 JUMPI POP POP POP JUMP JUMPDEST DUP2 DUP2 SSTORE PUSH1 0x1 ADD PUSH2 0x205A JUMP JUMPDEST SWAP1 SWAP3 POP DUP3 SWAP1 PUSH2 0x2051 JUMP JUMPDEST PUSH1 0xA SLOAD PUSH1 0x0 SWAP3 SWAP2 PUSH2 0x208B DUP3 PUSH2 0xA3A JUMP JUMPDEST SWAP2 PUSH1 0x1 SWAP1 DUP2 DUP2 AND SWAP1 DUP2 ISZERO PUSH2 0x20DC JUMPI POP PUSH1 0x1 EQ PUSH2 0x20A6 JUMPI POP POP POP JUMP JUMPDEST SWAP1 SWAP2 SWAP3 SWAP4 POP PUSH1 0xA PUSH1 0x0 MSTORE PUSH1 0x20 SWAP1 DUP2 PUSH1 0x0 KECCAK256 SWAP1 PUSH1 0x0 SWAP2 JUMPDEST DUP6 DUP4 LT PUSH2 0x20CB JUMPI POP POP POP POP ADD SWAP1 JUMP JUMPDEST DUP1 SLOAD DUP6 DUP5 ADD MSTORE SWAP2 DUP4 ADD SWAP2 DUP2 ADD PUSH2 0x20BC JUMP JUMPDEST PUSH1 0xFF NOT AND DUP4 MSTORE POP POP DUP2 ISZERO ISZERO SWAP1 SWAP2 MUL ADD SWAP2 POP JUMP JUMPDEST PUSH1 0xC SLOAD PUSH1 0x0 SWAP3 SWAP2 PUSH2 0x20FF DUP3 PUSH2 0xA3A JUMP JUMPDEST SWAP2 PUSH1 0x1 SWAP1 DUP2 DUP2 AND SWAP1 DUP2 ISZERO PUSH2 0x20DC JUMPI POP PUSH1 0x1 EQ PUSH2 0x211A JUMPI POP POP POP JUMP JUMPDEST SWAP1 SWAP2 SWAP3 SWAP4 POP PUSH1 0xC PUSH1 0x0 MSTORE PUSH1 0x20 SWAP1 DUP2 PUSH1 0x0 KECCAK256 SWAP1 PUSH1 0x0 SWAP2 JUMPDEST DUP6 DUP4 LT PUSH2 0x213F JUMPI POP POP POP POP ADD SWAP1 JUMP JUMPDEST DUP1 SLOAD DUP6 DUP5 ADD MSTORE SWAP2 DUP4 ADD SWAP2 DUP2 ADD PUSH2 0x2130 JUMP JUMPDEST SWAP1 PUSH2 0x2163 PUSH1 0x20 SWAP3 DUP3 DUP2 MLOAD SWAP5 DUP6 SWAP3 ADD PUSH2 0x2E5 JUMP JUMPDEST ADD SWAP1 JUMP JUMPDEST PUSH1 0x40 MLOAD SWAP1 PUSH1 0x40 DUP3 ADD DUP3 DUP2 LT PUSH1 0x1 PUSH1 0x1 PUSH1 0x40 SHL SUB DUP3 GT OR PUSH2 0x7F9 JUMPI PUSH1 0x40 MSTORE PUSH1 0x12 DUP3 MSTORE PUSH18 0x139BC81A5B9A5D1A585B08155492481CD95D PUSH1 0x72 SHL PUSH1 0x20 DUP4 ADD MSTORE JUMP JUMPDEST PUSH2 0x21B4 PUSH2 0x4F0 PUSH1 0xB SLOAD PUSH1 0xFF AND SWAP1 JUMP JUMPDEST ISZERO PUSH2 0x221B JUMPI PUSH2 0x21C4 PUSH1 0xC SLOAD PUSH2 0xA3A JUMP JUMPDEST ISZERO PUSH2 0x2212 JUMPI PUSH2 0x33E PUSH2 0x21D8 PUSH2 0x21F3 SWAP3 PUSH2 0x228A JUMP JUMPDEST PUSH2 0x2204 PUSH1 0x40 MLOAD SWAP4 DUP5 SWAP3 PUSH2 0x21ED PUSH1 0x20 DUP6 ADD PUSH2 0x20EF JUMP JUMPDEST SWAP1 PUSH2 0x2150 JUMP JUMPDEST PUSH5 0x173539B7B7 PUSH1 0xD9 SHL DUP2 MSTORE PUSH1 0x5 ADD SWAP1 JUMP JUMPDEST SUB PUSH1 0x1F NOT DUP2 ADD DUP4 MSTORE DUP3 PUSH2 0x819 JUMP JUMPDEST POP PUSH2 0x33E PUSH2 0x2167 JUMP JUMPDEST PUSH2 0x2226 PUSH1 0xA SLOAD PUSH2 0xA3A JUMP JUMPDEST ISZERO PUSH2 0x224F JUMPI PUSH2 0x33E PUSH2 0x223A PUSH2 0x21F3 SWAP3 PUSH2 0x228A JUMP JUMPDEST PUSH2 0x2204 PUSH1 0x40 MLOAD SWAP4 DUP5 SWAP3 PUSH2 0x21ED PUSH1 0x20 DUP6 ADD PUSH2 0x207B JUMP JUMPDEST POP PUSH2 0x33E PUSH2 0xA74 JUMP JUMPDEST SWAP1 PUSH2 0x2262 DUP3 PUSH2 0x83A JUMP JUMPDEST PUSH2 0x226F PUSH1 0x40 MLOAD SWAP2 DUP3 PUSH2 0x819 JUMP JUMPDEST DUP3 DUP2 MSTORE DUP1 SWAP3 PUSH2 0x2280 PUSH1 0x1F NOT SWAP2 PUSH2 0x83A JUMP JUMPDEST ADD SWAP1 PUSH1 0x20 CALLDATASIZE SWAP2 ADD CALLDATACOPY JUMP JUMPDEST PUSH1 0x0 SWAP1 DUP1 PUSH19 0x184F03E93FF9F4DAA797ED6E38ED64BF6A1F01 PUSH1 0x40 SHL DUP1 DUP3 LT ISZERO PUSH2 0x23BA JUMPI JUMPDEST POP PUSH14 0x4EE2D6D415B85ACEF8100000000 DUP1 DUP4 LT ISZERO PUSH2 0x23AB JUMPI JUMPDEST POP PUSH7 0x2386F26FC10000 DUP1 DUP4 LT ISZERO PUSH2 0x239C JUMPI JUMPDEST POP PUSH4 0x5F5E100 DUP1 DUP4 LT ISZERO PUSH2 0x238D JUMPI JUMPDEST POP PUSH2 0x2710 DUP1 DUP4 LT ISZERO PUSH2 0x237E JUMPI JUMPDEST POP PUSH1 0x64 DUP3 LT ISZERO PUSH2 0x236E JUMPI JUMPDEST PUSH1 0xA DUP1 SWAP3 LT ISZERO PUSH2 0x2364 JUMPI JUMPDEST PUSH1 0x1 SWAP1 DUP2 PUSH1 0x21 PUSH2 0x231C DUP3 DUP8 ADD PUSH2 0x2258 JUMP JUMPDEST SWAP6 DUP7 ADD ADD SWAP1 JUMPDEST PUSH2 0x232E JUMPI JUMPDEST POP POP POP POP SWAP1 JUMP JUMPDEST PUSH1 0x0 NOT ADD SWAP1 DUP4 SWAP1 PUSH16 0x181899199A1A9B1B9C1CB0B131B232B3 PUSH1 0x81 SHL DUP3 DUP3 MOD BYTE DUP4 MSTORE8 DIV SWAP2 DUP3 ISZERO PUSH2 0x235F JUMPI SWAP2 SWAP1 DUP3 PUSH2 0x2322 JUMP JUMPDEST PUSH2 0x2327 JUMP JUMPDEST SWAP2 PUSH1 0x1 ADD SWAP2 PUSH2 0x230B JUMP JUMPDEST SWAP2 SWAP1 PUSH1 0x64 PUSH1 0x2 SWAP2 DIV SWAP2 ADD SWAP2 PUSH2 0x2300 JUMP JUMPDEST PUSH1 0x4 SWAP2 SWAP4 SWAP3 DIV SWAP2 ADD SWAP2 CODESIZE PUSH2 0x22F5 JUMP JUMPDEST PUSH1 0x8 SWAP2 SWAP4 SWAP3 DIV SWAP2 ADD SWAP2 CODESIZE PUSH2 0x22E8 JUMP JUMPDEST PUSH1 0x10 SWAP2 SWAP4 SWAP3 DIV SWAP2 ADD SWAP2 CODESIZE PUSH2 0x22D9 JUMP JUMPDEST PUSH1 0x20 SWAP2 SWAP4 SWAP3 DIV SWAP2 ADD SWAP2 CODESIZE PUSH2 0x22C7 JUMP JUMPDEST PUSH1 0x40 SWAP4 POP DUP2 DIV SWAP2 POP CODESIZE PUSH2 0x22AE JUMP INVALID 0xC6 GAS PUSH28 0xB8D6351C1CF70C95A316CC6A92839C986682D98BC35F958F4883F9D2 0xA8 0xDD CALLCODE MSTORE 0xAD SHL 0xE2 0xC8 SWAP12 PUSH10 0xC2B068FC378DAA952BA7 CALL PUSH4 0xC4A11628 CREATE2 GAS 0x4D CREATE2 0x23 0xB3 0xEF LOG2 PUSH5 0x6970667358 0x22 SLT KECCAK256 0x5C PUSH13 0x3065DBED4CB1EF52E588A40A33 EQ 0xD8 0x4D 0xD4 SELFDESTRUCT 0xC5 0x5C 0x1F SWAP5 REVERT PUSH5 0xA404E4ACC0 PUSH3 0x64736F PUSH13 0x63430008130033000000000000 "
        },
        "gasEstimates": {
          "creation": {
            "codeDepositCost": "1855600",
            "executionCost": "infinite",
            "totalCost": "infinite"
          },
          "external": {
            "_changeMaxPerWallet(uint16)": "26798",
            "_openPublicMinting()": "27251",
            "_updateMintPrice(uint256)": "24517",
            "approve(address,uint256)": "infinite",
            "balanceOf(address)": "2917",
            "baseURI()": "infinite",
            "collectETH()": "infinite",
            "getApproved(uint256)": "6824",
            "initialURI()": "infinite",
            "isAdmin(address)": "2623",
            "isApprovedForAll(address,address)": "3329",
            "isRevealed()": "2582",
            "maxPerWallet()": "2532",
            "maxSupply()": "2944",
            "mint(uint256)": "infinite",
            "mintByAdmin(address,uint256)": "infinite",
            "mintOpen()": "2456",
            "mintPrice()": "2636",
            "minted(address)": "2557",
            "name()": "infinite",
            "owner()": "2770",
            "ownerOf(uint256)": "infinite",
            "renounceOwnership()": "28535",
            "reveal(string,bool)": "infinite",
            "safeTransferFrom(address,address,uint256)": "infinite",
            "safeTransferFrom(address,address,uint256,bytes)": "infinite",
            "setAdmin(address,bool)": "28458",
            "setApprovalForAll(address,bool)": "27073",
            "setBaseURI(string)": "infinite",
            "setInitialURI(string)": "infinite",
            "supportsInterface(bytes4)": "373",
            "symbol()": "infinite",
            "tokenURI(uint256)": "infinite",
            "totalSupply()": "4468",
            "transferFrom(address,address,uint256)": "infinite",
            "transferOwnership(address)": "28919"
          }
        },
        "methodIdentifiers": {
          "_changeMaxPerWallet(uint16)": "35dc3c68",
          "_openPublicMinting()": "e837ead9",
          "_updateMintPrice(uint256)": "1c9641fb",
          "approve(address,uint256)": "095ea7b3",
          "balanceOf(address)": "70a08231",
          "baseURI()": "6c0360eb",
          "collectETH()": "fdff9b81",
          "getApproved(uint256)": "081812fc",
          "initialURI()": "c9a23077",
          "isAdmin(address)": "24d7806c",
          "isApprovedForAll(address,address)": "e985e9c5",
          "isRevealed()": "54214f69",
          "maxPerWallet()": "453c2310",
          "maxSupply()": "d5abeb01",
          "mint(uint256)": "a0712d68",
          "mintByAdmin(address,uint256)": "af3da2f4",
          "mintOpen()": "24bbd049",
          "mintPrice()": "6817c76c",
          "minted(address)": "1e7269c5",
          "name()": "06fdde03",
          "owner()": "8da5cb5b",
          "ownerOf(uint256)": "6352211e",
          "renounceOwnership()": "715018a6",
          "reveal(string,bool)": "6d818560",
          "safeTransferFrom(address,address,uint256)": "42842e0e",
          "safeTransferFrom(address,address,uint256,bytes)": "b88d4fde",
          "setAdmin(address,bool)": "4b0bddd2",
          "setApprovalForAll(address,bool)": "a22cb465",
          "setBaseURI(string)": "55f804b3",
          "setInitialURI(string)": "a32a7b65",
          "supportsInterface(bytes4)": "01ffc9a7",
          "symbol()": "95d89b41",
          "tokenURI(uint256)": "c87b56dd",
          "totalSupply()": "18160ddd",
          "transferFrom(address,address,uint256)": "23b872dd",
          "transferOwnership(address)": "f2fde38b"
        }
      },
      "storageLayout": {
        "storage": [
          {
            "astId": 1816,
            "contract": "contracts/PondNFTs.sol:DuckRaceDerbyPondNFT",
            "label": "_currentIndex",
            "offset": 0,
            "slot": "0",
            "type": "t_uint256"
          },
          {
            "astId": 1818,
            "contract": "contracts/PondNFTs.sol:DuckRaceDerbyPondNFT",
            "label": "_burnCounter",
            "offset": 0,
            "slot": "1",
            "type": "t_uint256"
          },
          {
            "astId": 1820,
            "contract": "contracts/PondNFTs.sol:DuckRaceDerbyPondNFT",
            "label": "_name",
            "offset": 0,
            "slot": "2",
            "type": "t_string_storage"
          },
          {
            "astId": 1822,
            "contract": "contracts/PondNFTs.sol:DuckRaceDerbyPondNFT",
            "label": "_symbol",
            "offset": 0,
            "slot": "3",
            "type": "t_string_storage"
          },
          {
            "astId": 1827,
            "contract": "contracts/PondNFTs.sol:DuckRaceDerbyPondNFT",
            "label": "_ownerships",
            "offset": 0,
            "slot": "4",
            "type": "t_mapping(t_uint256,t_struct(TokenOwnership)1785_storage)"
          },
          {
            "astId": 1832,
            "contract": "contracts/PondNFTs.sol:DuckRaceDerbyPondNFT",
            "label": "_addressData",
            "offset": 0,
            "slot": "5",
            "type": "t_mapping(t_address,t_struct(AddressData)1794_storage)"
          },
          {
            "astId": 1836,
            "contract": "contracts/PondNFTs.sol:DuckRaceDerbyPondNFT",
            "label": "_tokenApprovals",
            "offset": 0,
            "slot": "6",
            "type": "t_mapping(t_uint256,t_address)"
          },
          {
            "astId": 1842,
            "contract": "contracts/PondNFTs.sol:DuckRaceDerbyPondNFT",
            "label": "_operatorApprovals",
            "offset": 0,
            "slot": "7",
            "type": "t_mapping(t_address,t_mapping(t_address,t_bool))"
          },
          {
            "astId": 1061,
            "contract": "contracts/PondNFTs.sol:DuckRaceDerbyPondNFT",
            "label": "_owner",
            "offset": 0,
            "slot": "8",
            "type": "t_address"
          },
          {
            "astId": 1173,
            "contract": "contracts/PondNFTs.sol:DuckRaceDerbyPondNFT",
            "label": "isAdmin",
            "offset": 0,
            "slot": "9",
            "type": "t_mapping(t_address,t_bool)"
          },
          {
            "astId": 3252,
            "contract": "contracts/PondNFTs.sol:DuckRaceDerbyPondNFT",
            "label": "baseURI",
            "offset": 0,
            "slot": "10",
            "type": "t_string_storage"
          },
          {
            "astId": 3254,
            "contract": "contracts/PondNFTs.sol:DuckRaceDerbyPondNFT",
            "label": "isRevealed",
            "offset": 0,
            "slot": "11",
            "type": "t_bool"
          },
          {
            "astId": 3256,
            "contract": "contracts/PondNFTs.sol:DuckRaceDerbyPondNFT",
            "label": "mintOpen",
            "offset": 1,
            "slot": "11",
            "type": "t_bool"
          },
          {
            "astId": 3258,
            "contract": "contracts/PondNFTs.sol:DuckRaceDerbyPondNFT",
            "label": "initialURI",
            "offset": 0,
            "slot": "12",
            "type": "t_string_storage"
          },
          {
            "astId": 3261,
            "contract": "contracts/PondNFTs.sol:DuckRaceDerbyPondNFT",
            "label": "maxSupply",
            "offset": 0,
            "slot": "13",
            "type": "t_uint256"
          },
          {
            "astId": 3264,
            "contract": "contracts/PondNFTs.sol:DuckRaceDerbyPondNFT",
            "label": "mintPrice",
            "offset": 0,
            "slot": "14",
            "type": "t_uint256"
          },
          {
            "astId": 3267,
            "contract": "contracts/PondNFTs.sol:DuckRaceDerbyPondNFT",
            "label": "maxPerWallet",
            "offset": 0,
            "slot": "15",
            "type": "t_uint16"
          },
          {
            "astId": 3271,
            "contract": "contracts/PondNFTs.sol:DuckRaceDerbyPondNFT",
            "label": "minted",
            "offset": 0,
            "slot": "16",
            "type": "t_mapping(t_address,t_bool)"
          }
        ],
        "types": {
          "t_address": {
            "encoding": "inplace",
            "label": "address",
            "numberOfBytes": "20"
          },
          "t_bool": {
            "encoding": "inplace",
            "label": "bool",
            "numberOfBytes": "1"
          },
          "t_mapping(t_address,t_bool)": {
            "encoding": "mapping",
            "key": "t_address",
            "label": "mapping(address => bool)",
            "numberOfBytes": "32",
            "value": "t_bool"
          },
          "t_mapping(t_address,t_mapping(t_address,t_bool))": {
            "encoding": "mapping",
            "key": "t_address",
            "label": "mapping(address => mapping(address => bool))",
            "numberOfBytes": "32",
            "value": "t_mapping(t_address,t_bool)"
          },
          "t_mapping(t_address,t_struct(AddressData)1794_storage)": {
            "encoding": "mapping",
            "key": "t_address",
            "label": "mapping(address => struct IERC721A.AddressData)",
            "numberOfBytes": "32",
            "value": "t_struct(AddressData)1794_storage"
          },
          "t_mapping(t_uint256,t_address)": {
            "encoding": "mapping",
            "key": "t_uint256",
            "label": "mapping(uint256 => address)",
            "numberOfBytes": "32",
            "value": "t_address"
          },
          "t_mapping(t_uint256,t_struct(TokenOwnership)1785_storage)": {
            "encoding": "mapping",
            "key": "t_uint256",
            "label": "mapping(uint256 => struct IERC721A.TokenOwnership)",
            "numberOfBytes": "32",
            "value": "t_struct(TokenOwnership)1785_storage"
          },
          "t_string_storage": {
            "encoding": "bytes",
            "label": "string",
            "numberOfBytes": "32"
          },
          "t_struct(AddressData)1794_storage": {
            "encoding": "inplace",
            "label": "struct IERC721A.AddressData",
            "members": [
              {
                "astId": 1787,
                "contract": "contracts/PondNFTs.sol:DuckRaceDerbyPondNFT",
                "label": "balance",
                "offset": 0,
                "slot": "0",
                "type": "t_uint64"
              },
              {
                "astId": 1789,
                "contract": "contracts/PondNFTs.sol:DuckRaceDerbyPondNFT",
                "label": "numberMinted",
                "offset": 8,
                "slot": "0",
                "type": "t_uint64"
              },
              {
                "astId": 1791,
                "contract": "contracts/PondNFTs.sol:DuckRaceDerbyPondNFT",
                "label": "numberBurned",
                "offset": 16,
                "slot": "0",
                "type": "t_uint64"
              },
              {
                "astId": 1793,
                "contract": "contracts/PondNFTs.sol:DuckRaceDerbyPondNFT",
                "label": "aux",
                "offset": 24,
                "slot": "0",
                "type": "t_uint64"
              }
            ],
            "numberOfBytes": "32"
          },
          "t_struct(TokenOwnership)1785_storage": {
            "encoding": "inplace",
            "label": "struct IERC721A.TokenOwnership",
            "members": [
              {
                "astId": 1780,
                "contract": "contracts/PondNFTs.sol:DuckRaceDerbyPondNFT",
                "label": "addr",
                "offset": 0,
                "slot": "0",
                "type": "t_address"
              },
              {
                "astId": 1782,
                "contract": "contracts/PondNFTs.sol:DuckRaceDerbyPondNFT",
                "label": "startTimestamp",
                "offset": 20,
                "slot": "0",
                "type": "t_uint64"
              },
              {
                "astId": 1784,
                "contract": "contracts/PondNFTs.sol:DuckRaceDerbyPondNFT",
                "label": "burned",
                "offset": 28,
                "slot": "0",
                "type": "t_bool"
              }
            ],
            "numberOfBytes": "32"
          },
          "t_uint16": {
            "encoding": "inplace",
            "label": "uint16",
            "numberOfBytes": "2"
          },
          "t_uint256": {
            "encoding": "inplace",
            "label": "uint256",
            "numberOfBytes": "32"
          },
          "t_uint64": {
            "encoding": "inplace",
            "label": "uint64",
            "numberOfBytes": "8"
          }
        }
      },
      "userdoc": {
        "errors": {
          "ApprovalCallerNotOwnerNorApproved()": [
            {
              "notice": "The caller must own the token or be an approved operator."
            }
          ],
          "ApprovalQueryForNonexistentToken()": [
            {
              "notice": "The token does not exist."
            }
          ],
          "ApprovalToCurrentOwner()": [
            {
              "notice": "The caller cannot approve to the current owner."
            }
          ],
          "ApproveToCaller()": [
            {
              "notice": "The caller cannot approve to their own address."
            }
          ],
          "BalanceQueryForZeroAddress()": [
            {
              "notice": "Cannot query the balance for the zero address."
            }
          ],
          "MintToZeroAddress()": [
            {
              "notice": "Cannot mint to the zero address."
            }
          ],
          "MintZeroQuantity()": [
            {
              "notice": "The quantity of tokens minted must be more than zero."
            }
          ],
          "OwnerQueryForNonexistentToken()": [
            {
              "notice": "The token does not exist."
            }
          ],
          "TransferCallerNotOwnerNorApproved()": [
            {
              "notice": "The caller must own the token or be an approved operator."
            }
          ],
          "TransferFromIncorrectOwner()": [
            {
              "notice": "The token must be owned by `from`."
            }
          ],
          "TransferToNonERC721ReceiverImplementer()": [
            {
              "notice": "Cannot safely transfer to a contract that does not implement the ERC721Receiver interface."
            }
          ],
          "TransferToZeroAddress()": [
            {
              "notice": "Cannot transfer to the zero address."
            }
          ],
          "URIQueryForNonexistentToken()": [
            {
              "notice": "The token does not exist."
            }
          ]
        },
        "events": {
          "AdminSet(address,bool)": {
            "notice": "emitted when admin role is granted or revoked"
          }
        },
        "kind": "user",
        "methods": {
          "mintByAdmin(address,uint256)": {
            "notice": "- Mint NFT"
          },
          "reveal(string,bool)": {
            "notice": "- Reveal NFTs"
          },
          "setAdmin(address,bool)": {
            "notice": "Grant or Revoke Admin Access"
          },
          "setBaseURI(string)": {
            "notice": "- Set base URI for token"
          },
          "setInitialURI(string)": {
            "notice": "- Set initial unrevealed URI"
          },
          "tokenURI(uint256)": {
            "notice": "- Get token URI"
          }
        },
        "version": 1
      }
    }
  }
}